:020000040000FA
:06000000006A01EF01F0AF
:0800080034EF01F00A6EF80B61
:10001000E830E830E830E926D8B0EA2A90EC00F081
:100020000A6EEF14FEEF00F00A50D8A0E86AEF184D
:100030000A14EF1AFEEF00F0008A00AA009A00B638
:1000400003D0008644D827E2080E056E54D8043643
:10005000052EFCD700AA2ED85CD855D800BA1BD8DC
:1000600021D80450D890FEEF00F0008A00AA009A30
:1000700000B405D0FE0B016E0084D8900AD000B801
:1000800005D0086E008823D806E2085027D803E27E
:1000900000AAFEEF00F00ED83CD80094009800961D
:1000A00001D8F7D71CC0EAFF1A3CE96EE98818505E
:1000B000EC1208D01CC0EAFF1AC0E9FF181CEE16AB
:1000C000E988EC16040E026E022EFED71200EADF5B
:1000D00020D8F0DF18D8015000B60109046E080ED0
:1000E000056E0436D8B0DEDFD8A0E4DF12D80BD816
:1000F000052EF7D7D7DF0DD81CC0EAFF1AC0E9FFDD
:100100001850EF14FF0F1DC0EAFF1BC0E9FF191CB8
:10011000D6D71DC0EAFF1B3CE96EE9881950C8D745
:10012000010E0AB0E8440AB2E8440AB2E8440AB44C
:10013000E8381200D89002360336FF0FFBE2025077
:10014000FEEF00F0D89003320232FF0FFBE20250C4
:10015000FEEF00F0036A056A046E010E02D0046E21
:10016000050E0A6E0550035C02E10450025C040EA9
:10017000D8B0010ED8B4020E0A14D8A4FF0EFEEFB8
:1001800000F0E866FF0E0214D8A4FF0EFEEF00F0A8
:10019000076A066A100E086E0334063607360450E6
:1001A000065E0550075A05E2045006260550072250
:1001B000D89002360336082EEFD70250FEEF00F03B
:1001C00004500802F3CF06F0F4CF07F005500902FF
:1001D000F3CF02F0F4CF03F00802F3500726F450F7
:1001E0000222E86A032204500902F3500726F45061
:1001F0000222E86A03220650FEEF00F0000104002C
:100200001200E968EA6AED6AE950EA10FCE1EF6A77
:100210007E6A7F6A700ED36E040E926E2F0E936EFE
:10022000FC0E946E040E776E240EAC6E080EB86E43
:10023000B06A210EAF6E04009EAA22EF01F00F01FA
:10024000AE50F9D79E98AB8E9D8AAB88D768D66A98
:10025000460ED56EF294F28A32EF01F0D58EF28C12
:10026000F28E1200B7EF05F0E06AE950616FEA50D4
:10027000606F0F019EAA26D00F01ABA404D0AE5030
:10028000AB9EAB8E1FD0ABA203D0AB98AB881AD07D
:10029000E06A6351650FE96EEA6A6351010F625DBE
:1002A000D8A403D00F01AE50E4D76351010F636FA0
:1002B0001808D8A402D0000E636F0F01AE50E06A98
:1002C000EF6ED7D70F01F2A404D0F294E06A010ECA
:1002D000646FE06A6151E96E6051EA6E1100346A40
:1002E0000400010E345CD8B082EF01F0800EE96E9C
:1002F0000F0EEA6E3450050F89DED88095DE342A61
:10030000D8A0EED712003650350FE96E000EEA6A1B
:10031000EA220A0EEF6E800EE96E0F0EEA6E36507C
:10032000050F74DED89080DE1200346A0400010EDE
:10033000345CD8B0D8EF01F03450350FE96E000EC0
:10034000EA6AEA22EFCF14F004001450D8B4D5EFD3
:1003500001F03450350FE96E000EEA6AEA22EFCF61
:1003600014F01404146E156A000E155A3450350F2B
:10037000E96E000EEA6AEA2214C0EFFF3450350F2E
:10038000E96E000EEA6AEA22EFCF14F0040014507E
:100390000008D8A4D5EF01F0800EE96E0F0EEA6ECA
:1003A0003450050F33DED8803FDE342AD8A0BED7C4
:1003B000120024C002F025C003F0080E046E056A86
:1003C000E7DE06C014F007C015F0D89014361536D5
:1003D000400E14242F6E24C002F025C003F0080E36
:1003E000046E056AD5DE146E03C015F0026A036A56
:1003F00015C005F01450B3DED8A481EF02F0010E51
:100400002614146E000E2714156E040014501510D7
:10041000D8B42AEF02F026C002F027C003F0080E7D
:1004200094DE2D6E810E1A6E0F0E1C6E400E186E2D
:10043000810E1B6E0F0E1D6E100E196E2F5017DEE3
:10044000D8B005EF03F02D5010DED8B005EF03F063
:100450007FEF02F026C002F027C003F0060E75DE23
:10046000146E03C015F0FF0E14142D6E810E1A6E5B
:100470000F0E1C6E400E186E810E1B6E0F0E1D6E41
:10048000100E196E2F5037EC00F0D8B005EF03F0C6
:100490002D5035EC00F0D8B005EF03F026C002F087
:1004A00027C003F00E0E51DE146E03C015F0030ECC
:1004B0001416000E1516FC0E14102D6E400E2F5C37
:1004C000146E156A000E155A700E14242F6E810ECC
:1004D0001A6E0F0E1C6E400E186E810E1B6E0F0EE4
:1004E0001D6E100E196E2F5037EC00F0D8B005EFCE
:1004F00003F02D5035EC00F0D8B005EF03F005EF18
:1005000003F0010E2614146E000E2714156E04005D
:1005100014501510D8B4AEEF02F026C002F027C078
:1005200003F0080E12DE2D6E820E1A6E0F0E1C6E78
:10053000020E186E820E1B6E0F0E1D6E010E196ECE
:100540002F5037EC00F0D8B005EF03F02D5035EC0C
:1005500000F0D8B005EF03F005EF03F026C002F07D
:1005600027C003F0060EA5EC00F0146E03C015F0D2
:10057000FF0E14142D6E820E1A6E0F0E1C6E020EDC
:10058000186E820E1B6E0F0E1D6E010E196E2F500F
:1005900037EC00F0D8B005EF03F02D5035EC00F04B
:1005A000D8B005EF03F026C002F027C003F00E0E0E
:1005B000A5EC00F0146E03C015F0030E1416000E27
:1005C0001516FC0E14102D6E400E2F5C146E156A5D
:1005D000000E155A700E14242F6E820E1A6E0F0E16
:1005E0001C6E020E186E820E1B6E0F0E1D6E010E1B
:1005F000196E2F5037EC00F0D8B005EF03F02D50F6
:1006000035EC00F0D8B005EF03F01200326A0400B8
:10061000020E325CD8B0DFEF03F032501E0FE96EED
:10062000000EEA6AEA22EFCF14F0D89014342E6E4E
:1006300032500008D8A4E868FF0A146EE86A82A461
:10064000E868166E14C002F01650C1EC00F0166E89
:10065000176E040016501710D8B433EF03F0010ED4
:100660002E124CEF03F032500108D8A4E868FF0ABC
:10067000146EE86A80A4E868166E14C002F0165082
:10068000C1EC00F0166E176E040016501710D8B4A7
:100690004CEF03F0010E2E1232501E0FE96E000EC9
:1006A000EA6AEA222EC0EFFF04002E50FF08D8A409
:1006B000DCEF03F02C6A0400080E2C5CD8B0DCEFF1
:1006C00003F0D8902C34146E156A1536700E14246D
:1006D0002F6E040032500008D8A489EF03F0810E79
:1006E0001A6E0F0E1C6E400E186E810E1B6E0F0ED2
:1006F0001D6E100E196E2F5037EC00F0D8B0D9EFE8
:1007000003F01CEC00F0D8B0D9EF03F0306EA7EF87
:1007100003F0040032500108D8A4A7EF03F0820EC2
:100720001A6E0F0E1C6E020E186E820E1B6E0F0ECE
:100730001D6E010E196E2F5037EC00F0D8B0D9EFB6
:1007400003F01CEC00F0D8B0D9EF03F0306E301E8F
:1007500004003050D8B4D1EF03F0366A83EC01F0D6
:1007600032C008F0096A080E046E056AE0EC00F079
:10077000146E07C015F02C501424246EE86A15205E
:10078000256E24507D0FE96E000E2520EA6EEFCF16
:1007900014F004001450305CD8B4D1EF03F0B4EC82
:1007A00004F024507D0FE96E000E2520EA6E30C063
:1007B000EFFF2C2AD8A07FD7322AD8A028D7120042
:1007C000000E82BE010E026E030E9DEC00F0376E2D
:1007D000000E82BC010E026E036A020E9DEC00F058
:1007E000146E03C015F014503726000E82BA010EA5
:1007F000026E036A010E9DEC00F0146E03C015F04A
:1008000014503726375082B8010F376E120004009B
:100810009EB80CEF04F0FBD71200808804003F5014
:100820000008D8A418EF04F0409C409A2EEF04F082
:1008300004003F500108D8A422EF04F0409C408AF5
:100840002EEF04F004003F500408D8A42CEF04F06D
:10085000408C409A2EEF04F0408C408AD8DF40C094
:10086000ADFF40C03EF0000E40BC010E026E000E17
:1008700040BA010EC1EC00F0146E156E0400145065
:100880001510D8B44DEF04F0C2DF3F28AD6E3F28FD
:10089000146E156A153614503E1A316A3F04146EF0
:1008A000156A000E155A31C002F0036A15C005F032
:1008B0001450ACEC00F0D8A474EF04F0A8DF315071
:1008C0004C0FE96E000EEA6AEA22EFCFADFF31501D
:1008D0004C0FE96E000EEA6AEA22EFCF14F01450D2
:1008E0003E1A312AD8A0DAD792DFFF0E3E18AD6E3D
:1008F0008EDF0400ACB27EEF04F0FBD780981200CC
:10090000060E416E8ADF040041500008D8B4B3EFF0
:1009100004F0DBEC04F0040041500008D8B4B2EF5E
:1009200004F0F29E64C044F0646BF28E0400445004
:10093000D8B4B2EF04F0432A010E4314146E156AC2
:10094000026A036A15C005F01450AFEC00F0D8A499
:10095000B2EF04F04106040041500008D8B4B2EFF1
:1009600004F05BDFD0D71200820E406E0F0E4C6E8B
:1009700037C04DF042C04EF024C04FF07F0E30140F
:10098000506E800E3014146E156A14C002F015C03B
:1009900003F0070EA5EC00F0516E060E3F6EB0D7C7
:1009A000810E406E2AC04CF037C04DF02BC04EF087
:1009B000030E3F6E32D704006251635DD8B4B2EFCC
:1009C00005F06251650FE96E000EEA6AEA22EFCF88
:1009D00038F0040038AE12EF05F038C03AF038C0F5
:1009E00039F0040038AC03EF05F0040038AAFDEF3D
:1009F00004F0010E3D6E01EF05F0050E3C6E020E97
:100A00003D6E0FEF05F0040038AA0BEF05F0030E62
:100A10003C6E0DEF05F0010E3C6E020E3D6E3B6A22
:100A2000A7EF05F03850391A04003D500108D8A44A
:100A300020EF05F038C03CF0020E3D6EA7EF05F048
:100A400004003D500208D8A4A7EF05F03C060400BE
:100A50003C500008D8A498EF05F03D6A9F0E3A1666
:100A600004003950FF08D8A496EF05F00400455063
:100A7000375CD8A496EF05F004003A508108D8A45A
:100A80006AEF05F041C002F0000EAAEC00F0146E0F
:100A90004E50425CD8A4E868FF0A166E14C002F0FB
:100AA0001650C1EC00F0166E176E040016501710A9
:100AB000D8B468EF05F0422A800E4214146E156A0D
:100AC000040014501510D8B467EF05F0426A416A6B
:100AD00096EF05F004003A508308D8A496EF05F08D
:100AE00048C024F0256A49C002F0036A0E0E9DEC4E
:100AF00000F0146E03C015F04AC002F0036A070E3E
:100B00009DEC00F0166E03C017F014501626155019
:100B100017224B501624266EE86A1720276ED9EC50
:100B200001F046C02AF047C02BF03ADFA7EF05F0EE
:100B30000400070E3B5CD8B0A7EF05F03B50450F13
:100B4000E96E000EEA6AEA2238C0EFFF3B2AF29C07
:100B5000622B040062511808D8A4B0EF05F0626B54
:100B6000F28C29D712003D6A2068216812006FECD0
:100B700001F0F9DF25DE2EEC01F01DDFF29E64C0EE
:100B800033F0646BF28E04003350D8B4CCEF05F030
:0E0B900006EC03F095EC01F0F0D70300FED761
:020000040030CA
:03000100281F12A3
:020005008081F8
:0600080003C003E0034009
:00000001FF
