:020000040000FA
:04000000DA0159299F
:080008008231252A0408C8001A
:10001000520884005308850048088000D20A03145F
:100020005629DA16DA1EDA12DA191A28DA156B20CE
:10003000031852280830CB008020CA0DCB0B1C2897
:10004000DA1E5F208E208820DA1A522057204A08B4
:10005000031056295A175A1F5A13860051080310C5
:10006000031D35285A1B5228562916003D20031817
:100070005629D1032E28DA16DA1EDA125A19452823
:10008000FE39DD005A15031056295A1A4D28CE00A4
:100090005A166B20031852284E0873200318522852
:1000A000DA1E56295F208E205A115A12DA1164087E
:1000B00085006208840006316008800467286408AF
:1000C0008500620884006009800506318005682883
:1000D00069286A28562957208E2058215F208820B9
:1000E0005D08DA190138CA000830CB00CA0D0318C0
:1000F0005720031C5F208E208820CB0B76285720AA
:100100008E20640885006208840060080005FF3EB8
:100110006508850063088400610964286508850016
:100120006308840061085D28CC00D10803195629B2
:100130004C085121D1039628DD1351080319DD170E
:100140000530D0002730CB001030B2200330CB0078
:10015000E830B220CB016430B220CB010A30B220AB
:100160004C08B928CA004D08C9004C08C800252110
:100170004808C800D0030319DD1351080319C32828
:100180005002031808004808031DDD13DD1B08009A
:10019000303E512980010131090BFC335629CB0136
:1001A000CA00FF30CA07031CCB07031C56290330C3
:1001B000C900E730DD20D128C901C80000000230A5
:1001C00064000310C83B0301C93B0318E028080082
:1001D000C835C90DFF3E0318E82848085629C93616
:1001E000C80CFF3E0318EF2848085629CB01CA0067
:1001F00002300A29C901CB01CA0003300A29C9010A
:10020000CB01CA0001300A29CA0004300A29CB01F7
:10021000CA000530D0004B084902031D11294A08C5
:100220004802043003180130031902305005031D41
:10023000FF3056290038031DFF300405031DFF3031
:1002400056290404031DFF305629CD01CC0110307E
:10025000CE00490DCC0DCD0D4A08CC024B08CD3B4C
:10026000031837294A08CC074B08CD3D0310C80DA9
:10027000C90DCE0B2929480856291030D000C901D4
:10028000C801CF0CCE0C031C49294A08C8074B08EB
:10029000C93DC90CC80CCD0CCC0CD00B41294C0865
:1002A0005629840059088A005808820040016400D9
:1002B000080020308400850160308031CA20A030E1
:1002C0008400850150308031CA2020308400013004
:1002D000850050308031CA20A03084000130850074
:1002E00050308031CA2020308400023085005030E8
:1002F0008031CA20A0308400023085005030803127
:10030000CA20203084000330850050308031CA205C
:10031000A03084000330850050308031CA20203066
:1003200084000430850050308031CA20A030840021
:100330000430850050308031CA20203084000530E0
:10034000850050308031CA20A030840005308500FF
:1003500050308031CA202030840006308500503073
:100360008031CA2051018D017E01B801C301CE0147
:100370004001243092000F309300B13094007E0190
:100380002430B900093099000A309A000B309B00E4
:100390001430A4007D011730CB007E010D30A60083
:1003A000420120309E0010309F009C011D309B00B8
:1003B0004001640081314E0183108F1E831440017F
:1003C0008318E52942011908F4334E010F12420146
:1003D0009D174E01991642011D167D011030CD006A
:1003E0007E010F30A100540124309E0008309F0090
:1003F0009C0144309B004001640082314E01831017
:100400008F1F831440018318082A54011908F433FC
:100410004E010F1354019D174E01991754011D16DB
:100420004B01FF309D009C016A309F004E018C12F1
:10043000961640018231232A4B0180309E000B1713
:100440008B17400108009A31A22A88010408DC00B9
:100450000508DB004E018F1E263242011D1D0432AD
:1004600019089D139D171F329D1C03321D121D1666
:100470001A3288015F08383E840085015F08013E1A
:100480005E02031D033242011908E4335F08013E96
:10049000DF00103C031D02320030DF00420119086A
:1004A00088018000D7334E018F1F263254011D1D55
:1004B000043219089D139D171F329D1C03321D1213
:1004C0001D161A3288016708203E840085016708DE
:1004D000013E6602031D033254011908E433670824
:1004E000013EE700183C031D02320030E7005401D2
:1004F000190888018000D7334E018C1E04328C12FB
:1005000088010130E80088015C0884005B088500F0
:100510000900083042015A044001FA000830420143
:100520005A04D0000030D100043050044001FB00D8
:10053000083042015A044001FD000D30E200003055
:10054000E4002030E0000D30E3000030E500103022
:10055000E1004E3080313D200330D10087017A30F8
:1005600080312A200A308031CF200800F03042014B
:100570005A05D000D101083050044001FA00F03093
:1005800042015A05D000D1010830D0040030D10416
:10059000043050044001FB00F03042015A05D00005
:1005A000D101083050044001FC000F3042015A05CF
:1005B000D000D10150084001C8004201510840015B
:1005C000C90004308031EA204201D00040014908CE
:1005D0004201D100083050044001FD000F304201BB
:1005E0005A05D000D10150084001C800420151080D
:1005F0004001C90004308031EA204201D0004001AE
:1006000049084201D1000830D0040030D104043040
:1006100050044001FE000F3042015A05D000D101C4
:1006200050084001C800420151084001C90004308F
:100630008031EA204201D000400149084201D10046
:10064000083050044001FF000D30E2000030E400AB
:100650002030E0000D30E3000030E5001030E10014
:100660004E3080313D200630D10087017A30803114
:100670002A200A308031CF2008006930D200D3010F
:1006800042015908103CD0000030031CFF3ED1004D
:1006900050084001D1000630D800D9012030803107
:1006A00094200030803107204201DD0140016400C8
:1006B000103042015D02843140010318352C4201A3
:1006C0005B084001C80002308031FA204201D000AE
:1006D00059084001C80010308031FA204201D20090
:1006E0005008840052084001813121214201D2008A
:1006F000D300640052085304833140010319822B54
:100700008431352C42015D08693E8400003085014A
:10071000853D0008DA0064005A08003C833140013E
:10072000031D942B8431352CF03042015A05D00042
:10073000D1010830D0040030D10401305004400110
:10074000FA00F03042015A05D000D1010830D0043F
:100750000030D1040130D0040030D1040430500402
:100760004001FB00F03042015A05D000D1010830B1
:10077000D0040030D104013050044001FC000F309F
:1007800042015A05D000D10150084001C800420181
:1007900051084001C90004308031EA204201D000F4
:1007A000400149084201D1000830D0040030D10492
:1007B000013050044001FD000F3042015A05D000C5
:1007C000D10150084001C800420151084001C90050
:1007D00004308031EA204201D00040014908420142
:1007E000D1000830D0040030D1040130D0040030F2
:1007F000D104043050044001FE000F3042015A057C
:10080000D000D10150084001C80042015108400108
:10081000C90004308031EA204201D000400149087B
:100820004201D1000830D0040030D104013050041E
:100830004001FF000D30E2000030E4002030E00015
:100840000D30E3000030E5001030E1004E30803123
:100850003D200630D10087017A3080312A204201C4
:10086000D90ADD0A4001031D22330800420101308C
:10087000DA0040018231B62A42015B084001C8001B
:1008800002308031FA204201D00059084001C800EE
:1008900010308031FA204201D20050088400520802
:1008A0004001813121214201D200D300640052086D
:1008B00053048431400103195E2C080042015B0897
:1008C000323E840001308501853D0008D000803033
:1008D0005007D000D101D10D50085907DA0040016E
:1008E0008231B62A42010130DB00D9014001843156
:1008F0003C248331542383313D230730CB00D03057
:100900008031D02008003230D2000130D3000030D6
:10091000803107204030803107200D30E200003068
:10092000E4002030E0000D30E3000030E50010303E
:10093000E1004E3080313D20003080313B2064307A
:100940008031CF2042013030DA00400182318922EB
:10095000823189228231892242012030DA0040012D
:100960008231892242012830DA0040018231B622E8
:1009700042012830DA0040018231B62242010830BB
:10098000DA0040018231B62242010130DA00400132
:100990008231B62242010630DA0040018231B622AD
:1009A00042012830DA0040018231B62242010F3084
:1009B000DA0040018231B62259330D30E2000030B6
:1009C000E4002030E0000D30E3000030E50010309E
:1009D000E100A03080313D2085310318C32D420154
:1009E0003508400180313D2085310318C32D420177
:1009F0003408400180313B2085310318C32D0D3070
:100A0000E2000030E4002030E0000D30E300003070
:100A1000E5001030E100A03080313D208531031821
:100A2000C32D8031112085310318C32D4201DC0014
:100A3000400108000D30E2000030E4002030E0000A
:100A40000D30E3000030E5001030E100A0308031CF
:100A50003D2085310318C32D420135084001803106
:100A60003D2085310318C32D4201340840018031F7
:100A70003D2085310318C32D42015C0840018031BF
:100A80003B2085310318C32D0A308031CF20080068
:100A90000D30E2000030E4002030E0000D30E300D3
:100AA0000030E5001030E100A03080313D2085317C
:100AB0000318C32D42013508400180313D208531A6
:100AC0000318C32D42013408400180313B20853199
:100AD0000318C32D0D30E2000030E4002030E000A8
:100AE0000D30E3000030E5001030E100A03080312F
:100AF0003D2085310318C32D803113208531031823
:100B0000C32D4201B7004001803111208531031807
:100B1000C32D4201B600400108000D30E200003054
:100B2000E4002030E0000D30E3000030E50010303C
:100B3000E100A03080313D2085310318C32D4201F2
:100B40003508400180313D2085310318C32D420115
:100B50003408400180313D2085310318C32D420106
:100B60003708400180313D2085310318C32D4201F3
:100B70003608400180313B2085310318C32D0A30EF
:100B80008031CF2008006930D200D3014530803158
:100B90000720453080310720503080310720523007
:100BA000803107204F30803107204D3080310720C1
:100BB000203080310720453080310720723080316D
:100BC00007207230803107206F308031072072306B
:100BD000803107200030803107208431722C42019F
:100BE000E9350F3040010D054201D000D10140012F
:100BF00001300E1A013A4201D2000030D3005208EF
:100C00004001C800420153084001C900043080314E
:100C1000EA204201D200400149084201D3005008B5
:100C2000D2045108D3045209EC0064006C086B0232
:100C300086314001031D202E01304201E9044001AC
:100C400042016C08EB00640069087F3C863140017A
:100C5000031DBF2E42016C086A06E9006C08EA0019
:100C60000130E6004001420169086605D000D1016B
:100C70006400500851048631400103198A2E420154
:100C80006C086605D000D10164005008510486311B
:100C900040010319572E42016608EF00AE01AF0173
:100CA0000230B000B101EE14400186318A2E64009A
:100CB00042016F08013C86314001031D632E9A31C9
:100CC00031228631852E640042016F08023C863154
:100CD0004001031D6F2E9A3131228631852E64002A
:100CE00042016F08043C86314001031D7B2E9A317E
:100CF00031228631852E640042016F08083C86311E
:100D00004001031D852E9A3131224201EF016E14FC
:100D1000EE104001420166084001CE00CF010230D2
:100D2000CA00CB0181313D214201E6006400093057
:100D300066024001031C9733103042016905D00060
:100D4000D101640050085104863140010319BB2EC3
:100D500042016E1410306C05D000D10164005008BF
:100D60005104863140010319B92E9931C8218631C9
:100D7000BB2E9931B22142017F30E900400164006D
:100D800042016F08873140010319662F4201AE0A04
:100D90000319AF0A2E084001C80042012F08400184
:100DA000C900420131084001CB0042013008400136
:100DB000813108218731031D662F42016E144001E5
:100DC00099315A210230C800C9014201310840015D
:100DD000CB00420130084001813108218731031DD9
:100DE000262F640042016F08013C86314001031D3B
:100DF000FD2E9931D52187311F2F640042016F08E4
:100E0000023C87314001031D092F9931EC218731C4
:100E10001F2F640042016F08043C87314001031D0D
:100E2000152F9A31032287311F2F640042016F086A
:100E3000083C87314001031D1F2F9A310E224201C9
:100E40007D30B000B10140018731622F64008731ED
:100E500042018310EE1C8314400183185D2F64004F
:100E600042016F08013C87314001031D3B2F9A313D
:100E70002F2287315D2F640042016F08023C8731C9
:100E80004001031D472F9A312F2287315D2F6400C7
:100E900042016F08043C87314001031D532F9A31F2
:100EA0002F2287315D2F640042016F08083C873193
:100EB0004001031D5D2F9A31192242012430B000F8
:100EC000B10140014201AE01AF0140010800420101
:100ED000EE104001080064005E085F0288310319CB
:100EE0004C285E08383E840000308501853D0008AE
:100EF0004301AE00640087318310AE1F83144001AC
:100F00008318C22F43012E08B0002E08AF006400E2
:100F1000873183102E1F831440018318A62F64008D
:100F2000873143018310AE1E8314400183189E2F26
:100F300043010130B30040018731A42F4301053044
:100F4000B2000230B30040018731BD2F6400873109
:100F500043018310AE1E831440018318B52F430153
:100F60000330B20040018731B92F43010130B20094
:100F7000400143010230B30040014301B10140018F
:100F80008831432843012E08AF0664003308023C31
:100F900088314001031D35284301B2036400320843
:100FA000003C88314001031D20284301B301640047
:100FB0002F08FF3C88314001031D1E2843013008E3
:100FC000B03C031DFF30FF3A4201D0001030450510
:100FD000D200D301500884005208530440018131EB
:100FE0001A214201D200D300640052085304883110
:100FF000400103191E2842016E140F304505D00030
:10100000D10150084001C800420151084001C90007
:1010100007308031EA204201D000400149084201F6
:10102000D10044085007BA000301513DBB002030F5
:1010300045054301B600400192311822883133281A
:101040006400023043013102883140010318332823
:1010500043013108443E840001308501853D2E085E
:101060008000B10A400188314328640043013308FD
:10107000013C88314001031D432843012E08B20082
:101080000230B3004001DE0A64005E08103C883183
:10109000031D4B28DE011F3308004301B301420149
:1010A000FF30BA00FF30BB00400108006400883107
:1010B0004E0183100F1B8314400183186028F63300
:1010C00008000E15640043012A08003C88314001E5
:1010D000031D702843012B13AB1240018831902867
:1010E000640043012A08013C88314001031D7E2829
:1010F00043012B13AB164001883190286400430153
:101100002A08043C88314001031D8C2843012B1719
:10111000AB1240018831902843012B17AB164001D8
:101120008831562043012B0854019A0043012B08B3
:10113000A90000302B1B013084000030AB1A0130B5
:10114000400181311A214201D000D10064005008D1
:101150005104883140010319BE28883156204301CB
:101160002A0A54019A00013043012A074201D000A3
:10117000D101D10D50084301A90640014201E0010F
:101180004001013043012A024201D000D101003068
:10119000D13B60084001C800C9014201510840012B
:1011A000CB00420150084001813101218831031DEB
:1011B000F6288831562042016008273E840001301D
:1011C0008501853D000854019A0042016008273ED0
:1011D000840001308501853D0008D000500843019E
:1011E000A9064201E00A4001031DCB338831562095
:1011F000FF304301290654019A00400188315620EE
:1012000064008931540183109E18831440018318AF
:101210000A29F6330E11080043010630AC004001E4
:1012200088316120640043012C08003C8931400171
:1012300003198A298931C421640043012C08003C28
:1012400089314001031989298B1368084301B900CA
:101250004001E8018B1764004301390889314001DE
:10126000031989294301B80A013038054201D00029
:10127000D1014001C801C901420151084001CB0020
:10128000420150084001813108218931031D89291B
:101290004301AC0364002C08003C89314001031970
:1012A000552988316120893189296930D200D301DB
:1012B0005430803107205830803107202030803171
:1012C00007204630803107206130803107206930A7
:1012D000803107206C30803107202030803107209A
:1012E0007430803107206F3080310720203080310A
:1012F0000720D101420127084001CC00CD01063072
:10130000D800D90180319C20003080310720843101
:1013100072248833080043018330AB004201460841
:10132000A7006708A80043012D084201A90048084A
:10133000AA004A084001C80042014B084001C90008
:1013400006308031F1204201D000400149084201BD
:10135000D1000F305005AB003F304A05AC004301CF
:101360000630AA004001583343018130AB004201EE
:101370005408A7006708A8005508A90043010330D6
:10138000AA004001883161286400660867028A313A
:101390000319CD2A6608203E840000308501853D72
:1013A00000084301A30064008A318310A31F831443
:1013B000400183181B2A43012308A5002308A40029
:1013C000640089318310231F831440018318FF298F
:1013D0006400893143018310A31E831440018318E4
:1013E000F72943010130A80040018931FD2943015B
:1013F0000530A7000230A80040018A31162A640097
:101400008A3143018310A31E8314400183180E2ADE
:1014100043010330A70040018A31122A4301013001
:10142000A700400143010230A80040014301A6018A
:1014300040018A31C12A43012308A4066400280818
:10144000013C8A314001031D2D2A43012308A700D6
:101450000230A80040018A31C12A640043012808F3
:10146000023C8A314001031DC12A4301A7036400E5
:101470002708003C8A314001031DAE2A4301A80120
:101480009F30A50564002408FF3C8A314001031DFC
:10149000AC2A64004201200867028A314001031D22
:1014A000AC2A640043012508813C8A314001031DB8
:1014B000902A43012C084001C80000308031FF20F1
:1014C0004201D000290843012D02031DFF30FF3ADD
:1014D0004201D200500884005208400181311A2193
:1014E0004201D200D3006400520853048A31400103
:1014F00003198E2A4301AD0A80302D054201D00028
:10150000D1016400500851048A31400103198B2A2B
:101510004301AD0140014301AC0140018A31AC2AD5
:10152000640043012508823C8A314001031DAC2A36
:1015300042012108D4002208D50040018931B4219C
:1015400042012108C600C7012308C800C9012408B8
:10155000DF0040019331E5238A31C12A640007305E
:10156000430126028A3140010318C12A430126089B
:10157000203E840001308501853D23088000A60AB5
:1015800040010B13E60A64006608183C8A31031D0B
:10159000CA2AE6010B178931C42908004301A801B2
:1015A0004201FF30BA00FF30BB0040010800420199
:1015B0006E153A084001CE0042013B084001CF00C1
:1015C0000230CA00CB0181313D214201D0004001EF
:1015D0004D084201D10000305007B4000030513DA9
:1015E000B500FF30B600FF30B700400185318D2DCA
:1015F0000230CE00CF0142013A084001CA00420148
:101600003B084001CB0081313D214201D000400127
:101610004D084201D10000305007B4000030513D68
:10162000B500400185314825420136084001C80017
:10163000420137084001C9000F308031F1204201DA
:10164000D000400149084201D10001305005031982
:101650006E11031D6E1536084001C800420137089F
:101660004001C90007308031F1204201D000400123
:1016700049084201D1000F305005C6000030510525
:10168000C70036084001C800420137084001C900C0
:1016900003308031F1204201D0004001490842016D
:1016A000D1000F305005C80000305105C900073087
:1016B0003605CE0000303705CF004001080042015A
:1016C00046084001C800420147084001C9000730F0
:1016D0008031EA204201D000400149084201D10096
:1016E00048084001C800420149084001C9000330D0
:1016F0008031EA204201D200400149084201D30072
:101700005008D2075108D33D52084E07CC00530869
:101710004F3DCD004001080042013A084001CE0093
:1017200042013B084001CF000230CA00CB018131A9
:101730003D214201D00040014D084201D10000305E
:101740005007B4000030513DB50040018B315F239C
:1017500042014C08B6004D08B700400185318D2D7F
:101760004201FF30BA00FF30BB0040018B315F23E4
:101770004201B401B5014001420134084001C800F2
:10178000420135084001C9000730CB00CC3081311F
:1017900001218B31031DF72B853148254201360885
:1017A0004001C800420137084001C90042014D080C
:1017B0004001CB0042014C084001813108218B31AE
:1017C000031DF02B003042013402D0000030353BC5
:1017D000D1005136BB00500CBA0040018B31F72BC1
:1017E0004201B40A0319B50A4001031DC5330800BC
:1017F0004201C601C7014001420146084001C8003C
:10180000420147084001C900CB010F30813101215D
:101810008C31031D862C4201C801C90140014201DF
:1018200048084001C800420149084001C900CB01F5
:101830000F30813101218C31031D7F2C420146087C
:101840004001C800420147084001C900043080310E
:10185000EA204201D000400149084201D100480875
:10186000D0074908D13D50084001CE00420151083F
:101870004001CF000230CA00CB0181313D2142013D
:10188000D00040014D084201D100CE305007B400D5
:101890000730513DB50040018531482542013608E9
:1018A0004001C800420137084001C900FF30CB00A9
:1018B000FF308031F7208C31031D782C420136082F
:1018C000CA003708CB0046084001C800420147085B
:1018D0004001C900420167084001813107218C3174
:1018E000031D762C913124218C31782C89318B2168
:1018F0004201C80A0319C90A4001031D903342017D
:10190000C60A0319C70A4001031D763308004201C5
:1019100046084001C800420147084001C9000430A0
:101920008031EA204201D000400149084201D10043
:101930004808D0074908D13D50084001CE00420177
:1019400051084001CF000230CA00CB0181313D2156
:101950004201D00040014D084201D100CE30500775
:10196000B4000730513DB500400185314825FF30B6
:10197000C800FF30C900420137084001CB004201D6
:1019800036084001813108218C31031DCF2C4201E2
:101990005530B6005530B700400185318D2508001F
:1019A0008C31872442014E084001CE0042014F088D
:1019B0004001CF000230CA00CB0181313D214201FC
:1019C000D00040014D084201D10036084001C80056
:1019D000420137084001C9004201500840018031EE
:1019E000F1204201D000400149084201D1000330FA
:1019F000D0050030D10540010130C800C9014201C5
:101A000051084001CB0042015008400181310821BA
:101A10008D31031D112D43012030B70040018D3160
:101A2000142D4301B701400108008C318724640064
:101A300043013708003C8D314001031D712D4201E7
:101A40004E084001CE0042014F084001CF00023055
:101A5000CA00CB0181313D214201D00040014D0837
:101A60004201D10040010330C800C90142015008C1
:101A700040018031EA204201D00040014908420182
:101A8000D100D009D1093608D0053708D1054E0854
:101A90004001CE0042014F084001CF000230CA0091
:101AA000CB0181313D214201D20040014D0842016C
:101AB000D30040010230C800C90142015208400170
:101AC0008031EA204201D200400149084201D3009E
:101AD00050085204B60051085304B70040018D313C
:101AE000FA2D640043013708203C8D314001031D6D
:101AF000CB2D42014E084001CE0042014F0840016B
:101B0000CF000230CA00CB0181313D214201D0001B
:101B100040014D084201D10040010330C800C90115
:101B20004201500840018031EA204201D0004001CA
:101B300049084201D100D009D1093608D00537083B
:101B4000D1054E084001CE0042014F084001CF00B0
:101B50000230CA00CB0181313D214201D200400157
:101B60004D084201D30040010130C800C9014201C3
:101B7000520840018031EA204201D2004001490868
:101B80004201D30050085204B60051085304B70074
:101B900040018D31FA2D640043013708803C8D31BE
:101BA0004001031DFA2D42014E084001CE004201C2
:101BB0004F084001CF000230CA00CB0181313D21E6
:101BC0004201D00040014D084201D10040010330E4
:101BD000C800C9014201500840018031EA20420199
:101BE000D000400149084201D1005008B606510812
:101BF000B706400185318D2D4301FF30A200023030
:101C000042013C07B40000303D3DB5004301A10155
:101C1000400164002830430121028E314001031845
:101C20003C2E85314825FF30C800FF30C9004201F5
:101C300037084001CB0042013608400181310821BC
:101C40008E31031D252E8E313C2E4301213584001B
:101C50008501850DA03084070030853D420136089E
:101C60001A00370880000230B4070030B53D430148
:101C7000A10A4001031DCD33640043012108003C4B
:101C80008E3140010319472E4301A2014001080093
:101C90004301A0014201CE30B4000930B50040013B
:101CA000420134084001C800420135084001C90022
:101CB0001930CB008030813101218E31031D812EFE
:101CC00085314825FF30C800FF30C9004201370880
:101CD0004001CB00420136084001813108218E319C
:101CE000031D742E8E31812E4301A00A5230420111
:101CF000B4074001031CD4334201B50A4001031D5F
:101D0000CF3308004201FF30BE00FF30BF00CE30AD
:101D1000BC000930BD0040010130430120024201F6
:101D2000D000D1010030D13B50084001CE0042012B
:101D300051084001CF005230CA00CB0181313D2112
:101D40004201D00040014D084201D100CE30D00701
:101D50000930D13D3C084001C80042013D08400126
:101D6000C900420151084001CB0042015008400126
:101D7000813101218E31031DEB2E42013C08B4005C
:101D80003D08B50040018531482542013608400133
:101D9000C800420137084001C90042014308400120
:101DA000CB00420142084001813108218E31031DE0
:101DB000E02E42013608BE003708BF00400108008F
:101DC00052304201BC074001031CA6334201BD0A48
:101DD0004001031DA133080042014008C200410830
:101DE000C30040018E31822642013E084001C800F6
:101DF00042013F084001C900FF30CB00FF30803175
:101E0000F7208F31031D7F2F523042013C07E8003D
:101E10004001430120084001CE00CF013230CA000A
:101E2000CB0181313D214201D00040014D084201EA
:101E3000D100CE30D0070930D13D0130D002003082
:101E4000D13B68084001C800C90142015108400166
:101E5000CB00420150084001813101218F31031D27
:101E6000482F42016808B400B50140018431DD24E7
:101E700042013C08B4003D08B500400185311A25F7
:101E80004201BC0A0319BD0AE80A4001031DC1331F
:101E90004201FF30DC003C08B4003D08B5004001C1
:101EA000523042013C07D00000303D3DD1000130AE
:101EB000D0020030D13B34084001C800420135084F
:101EC0004001C900420151084001CB0042015008C5
:101ED0004001813101218F31031D772F85311A2572
:101EE0004201B40A0319B50A4001031DD933430165
:101EF000A0034201FF30C000FF30C10040010800D4
:101F000042014008C2004108C30040018E318226D0
:101F1000FF30C800FF30C90042013F084001CB003C
:101F200042013E084001813108218F31031DD82F25
:101F3000640043012008323C8F314001031DD52F3E
:101F40006930D200D3015430803107206F308031A6
:101F500007206F30803107202030803107206D301E
:101F6000803107206130803107206E3080310720BA
:101F70007930803107202030803107207230803165
:101F800007206F3080310720753080310720743092
:101F90008031072065308031072073308031072081
:101FA0000030803107208431722C4301A00A4001A7
:101FB0004201E30102303C07B40000303D3DB50072
:101FC0004001023042013C07D00000303D3DD100CD
:101FD0000130430121024201D200D3010030D33B42
:101FE00052084001CE00420153084001CF000230A8
:101FF000CA00CB0181313D214201D20040014D0890
:102000004201D3005008D2075108D33D34084001A3
:10201000C800420135084001C9004201530840018F
:10202000CB00420152084001813101219031031D52
:1020300035284201633584008501850DA030840771
:102040000030853D0008B6001000B7004001853122
:102050008D254201E30A0230B4074001031CB1336D
:102060004201B50A4001031DAC336400283042012F
:10207000630290314001031845284201FF30B60049
:10208000FF30B700400185318D2542013C08B40086
:102090003D08B5004008B6004108B7004001853151
:1020A0008D259631FD2E843136244201DB01D90184
:1020B000400184313C246930D200D3014530803165
:1020C0000720723080310720613080310720733063
:1020D000803107206930803107206E308031072041
:1020E0006730803107202030803107204530803133
:1020F0000720453080310720503080310720523092
:10210000803107204F30803107204D30803107204B
:102110000030803107208331542342016E14FF3098
:10212000B600FF30B700B401B501400142013408E8
:102130004001C800420135084001C9000730CB000A
:10214000CC30813101219031031DB32885318D259B
:1021500002304201B4074001031CE8334201B50AD2
:102160004001031DE3334201CE30B4000730B50017
:102170004001420134084001C800420135084001D5
:10218000C9000930CB00CC30813101219031031DD1
:10219000D62885318D2502304201B4074001031C49
:1021A000E8334201B50A4001031DE3334201FF3029
:1021B000B600FF30B700CE30B4000930B5004001A2
:1021C000420134084001C800420135084001C900FD
:1021D0001930CB008030813101219131031D092953
:1021E00085318D2542010230B4070030B53D4001F4
:1021F00085318D2502304201B4020030B53B5230AA
:10220000B4074001031CDC334201B50A4001031D41
:10221000D73308008C31872442013608CA003708BA
:10222000CB0046084001C800420147084001C900F0
:102230004201670840018031F6209131031D2229B7
:1022400089318B2991312429420148084001C80075
:10225000420149084001C9000830CA00CB01813160
:1022600025214C084201D00040014D084201D10017
:10227000D035D10D40305007DE00FF304A05D70081
:1022800048084001C800420149084001C90008301F
:10229000CA00CB01813125214201D000400149080B
:1022A0004201D1004001C801C90142015108400169
:1022B000CB00420150084001813108219131031DBA
:1022C000BD290C30E2000030E4000130E0000C30A9
:1022D000E3000030E5000230E10042015E08400109
:1022E00080313D2092310318172A420157084001DE
:1022F00080313B2092310318172A42014A084001DD
:10230000C80042014B084001C90008308031F1206B
:102310004201D000400149084201D1000330D005FC
:102320000030D105FC305004D70040305E02D000B0
:10233000D1010030D13B70305007DE000C3040013D
:10234000E2000030E4000130E0000C30E300003037
:10235000E5000230E10042015E08400180313D208D
:1023600092310318172A42015708400180313B205F
:1023700092310318172A9231172A0C30E2000030EC
:10238000E4000830E0000C30E3000030E5001030DD
:10239000E10042015E08400180313D209231031886
:1023A000172A42015708400180313B20923103181F
:1023B000172A42014A084001C80042014B08400167
:1023C000C90008308031F1204201D00040014908A5
:1023D0004201D1000330D0050030D105FC3050045B
:1023E000D70040305E02D000D1010030D13B7030C8
:1023F0005007DE000C304001E2000030E4000830FD
:10240000E0000C30E3000030E5001030E100420154
:102410005E08400180313D2092310318172A4201A5
:102420005708400180313B2092310318172A0800D9
:102430008A31F822640042016D08023C9331400168
:10244000031D8D2B64009231420183106E1D831495
:1024500040018318B22A42013A08C2003B08C30077
:1024600040018E31822642013E084001C8004201EF
:102470003F084001C900FF30CB00FF308031F7201A
:102480009231031D782A6930D200D3015330803154
:102490000720773080310720693080310720743081
:1024A0008031072063308031072068308031072079
:1024B000203080310720693080310720733080312F
:1024C00007202030803107207230803107206F30A4
:1024D000803107207530803107207430803107202B
:1024E0006530803107200030803107209231AE2ADC
:1024F0006930D200D30153308031072077308031EA
:102500000720693080310720743080310720633024
:10251000803107206830803107202030803107204B
:102520007530803107206E30803107206430803173
:102530000720653080310720663080310720693000
:10254000803107206E3080310720653080310720D0
:102550006430803107200030803107208431722CB4
:1025600093318B2B4301FF30A20064002108003C13
:10257000933140010319092B4201E401400101306C
:10258000430121024201D000D1010030D13B640857
:102590004001C800C901420151084001CB0042017D
:1025A00050084001813101219331031D072B420165
:1025B000643584008501850DA03084070030853D99
:1025C0000008D0001000D100FF30D0057F30D105C9
:1025D00050084001C800420151084001C9004201B1
:1025E0003B084001CB0042013A08400181310821FB
:1025F0009331031D022B420164084301A2004001F4
:102600009331072B4201E40A4001031DB833933193
:102610000C2B4201E4014001640043012208FF3C0D
:1026200093314001031D5C2B6400283043012102DB
:1026300093314001031C572B6930D200D301543031
:10264000803107206F30803107206F3080310720C4
:102650002030803107206D3080310720613080319B
:1026600007206E30803107207930803107202030FC
:102670008031072073308031072077308031072088
:102680006930803107207430803107206330803119
:102690000720683080310720653080310720733093
:1026A000803107200030803107208431722C4301B3
:1026B0002108A200A10A4001640043013608003C41
:1026C00093314001031D7C2B003042013A04D000BD
:1026D00080303B04D1004301223584008501850D03
:1026E000A03084070030853D420150081A0051088F
:1026F0008000400193318B2B4301223584008501FA
:10270000850DA03084070030853D42013A081A004B
:102710003B08800040019331E42B64009331420177
:1027200083106E1D831440018318D02B42013A0898
:10273000C2003B08C30040018E31822642013E08A0
:102740004001C80042013F084001C900FF30CB00F2
:10275000FF308031F7209331031DC82B42013A0826
:10276000C0003B08C10040018D31FC2564004201DE
:102770006D08003C93314001031DC62B9631152690
:1027800042014208BA004308BB0040019331CE2BFE
:102790004201FF30C000FF30C10040019331E42B03
:1027A0004201FF30C000FF30C10064006D08003CF2
:1027B00093314001031DE42B43013608B70040016B
:1027C0008D31152591310A2108004301B5014001E1
:1027D0006400053043013502943140010318922C06
:1027E000420146084001CE00420147084001CF00A7
:1027F0005030CA00CB0181313D214201D00040015F
:102800004D084201D10048084001CE00420149086C
:102810004001CF000530CA00CB0181313D2142018A
:10282000D20040014D084201D30043013508420166
:10283000D2070318D30A500852074301B4004001DD
:102840000130C800C9014301350840018031EA2048
:102850004201D000400149084201D1005F08D00583
:10286000D1016400500851049431400103198D2CAA
:1028700042016E146E11430135084201CE00CF01B2
:1028800064006D08003C94314001031D512C43014C
:102890008030B70040018D31152591310A219431E6
:1028A000852C640042016D08013C94314001031DF8
:1028B000852C42013A084001C80042013B08400112
:1028C000C900FF30CB00FF308031F7209431031D69
:1028D000852C420140084001C800420141084001E6
:1028E000C900FF30CB00FF308031F7209431031D49
:1028F000812C42013A08C0003B08C10040018E31E2
:10290000EC268B318C2391310A218B31B02342018B
:10291000FF30C000FF30C10040014301B50A400153
:10292000031D563308004201E101400164000230FA
:1029300042016102953140010318952D4201610861
:10294000383E840001308501853D0008D0005035B7
:10295000D8006108003C031DFF30FF3AD00003019E
:1029600040010C1DFF304201D20050088400520883
:10297000400181311A214201D200D3006400520883
:102980005304943140010319CB2C01304201D80487
:1029900040019431EC2C42016108013C031DFF30E1
:1029A000FF3AD000030140018C1EFF304201D200EB
:1029B000500884005208400181311A214201D2009E
:1029C000D300640052085304943140010319EC2CE5
:1029D00001304201D804400142016108383E8400C0
:1029E00001308501853D5808800064005808FF3C8F
:1029F00095314001031D902D4201D6014001640034
:102A0000083042015602953140010318902D4201D1
:102A10005635D000D101D10D70305007DE00640072
:102A20006108003C95314001031D342D0C30E2005B
:102A30000030E4000130E0000C30E3000030E5003D
:102A40000230E10042015E08400180313D209531B5
:102A500003188B2D80311120953103188B2D4201E5
:102A6000DF0040019531582D640042016108013CAE
:102A700095314001031D582D0C30E2000030E40078
:102A80000830E0000C30E3000030E5001030E100D9
:102A900042015E08400180313D20953103188B2DA5
:102AA00080311120953103188B2D4201DF00400148
:102AB00042015F09D000FF30D10050084001C8003A
:102AC000420151084001C90003308031F120420128
:102AD000D000400149084201D1001F305005DF00FD
:102AE00061084001CE00CF010830CA00CB0181311E
:102AF0003D214201D00040014D084201D10056085D
:102B00005007C8000301513DC9006708C600C7014E
:102B100040019331E5234201D60A4001031D6F3382
:102B20004201E10A4001031D0133080042010F3058
:102B3000E700400197312A2742016E154001080045
:102B4000640043012208FF3C963140010319142E12
:102B5000640043012108013C95314001031DB62D5D
:102B60004301FF30A20040019631112E0130430194
:102B700021024201D000D1010030D13B5008400178
:102B8000C800420151084001C90043012208400128
:102B9000813107219531031DD22D4301A20340014C
:102BA0009631112E430122084201E4004001023017
:102BB000430121024201D000D1010030D13B640821
:102BC0004001C800C901420151084001CB00420147
:102BD00050084001813101219631031D112E013031
:102BE00042016407D000D101D10D50358400510D50
:102BF0008500A03084070030853D0008D00010001B
:102C0000D100643584008501850DA0308407003033
:102C1000853D50081A0051088000E40A4001031D58
:102C2000C6334301A10340010800640043012108A9
:102C3000003C963140010319812E4201E50140011B
:102C40000130430121024201D000D1010030D13BCB
:102C500065084001C800C901420151084001CB008C
:102C6000420150084001813101219631031D812E1E
:102C70004201653584008501850DA0308407003050
:102C8000853D0008D0001000D100FF305005BA008B
:102C90007F305105BB0040018A31F8226400963133
:102CA000420183106E198314400183187C2E420167
:102CB000653584008501850DA03084070030853D91
:102CC0000008D0001000D1000030D0058030D105C0
:102CD000640050085104963140010319742E4301D9
:102CE000B70140019631782E43012030B7004001F2
:102CF0008D31152591310A214201E50A4001031D5C
:102D00009F33080043012208FF3C031DFF304201AE
:102D1000D00043012208003C031DFF304201D200D5
:102D2000500884005208400181311A214201D2002A
:102D3000D300640052085304963140010319B62EA3
:102D40004301A203223584008501850DA03084074C
:102D50000030853D00084201D0001000D100FF3056
:102D60005005BA007F305105BB0040010800430107
:102D70002208FF3C031DFF304201D0000130430117
:102D800021024201D200D3010030D33B430122088B
:102D90004001C800C901420153084001CB00420173
:102DA00052084001813104214201D20050088400C0
:102DB0005208400181311A214201D200D30064003F
:102DC00052085304963140010319FC2E4301A20A14
:102DD000223584008501850DA03084070030853DB3
:102DE00000084201D0001000D100FF305005BA00A9
:102DF0007F305105BB004001080042014008BA0085
:102E00004108BB004008C2004108C30040018E31A8
:102E10008226FF30C800FF30C90042013F08400150
:102E2000CB0042013E084001813108219731031D4A
:102E3000212F4201FF30C000FF30C1004001973117
:102E4000232F8D31FC2508004301FF30A200A10192
:102E5000400108004201FF30C000FF30C1004001C6
:102E60008E31482E4201DB01D901400184313C24DE
:102E7000640042016D08023C9831400103199D280D
:102E800042013A084001C80042013B084001C90024
:102E9000FF30CB00FF308031F7209731031D6C2FBE
:102EA0006930D200D301D101013042013A07D0008C
:102EB00000303B3DD10050084001CC004201510898
:102EC0004001CD000630D800D90180319C2000306F
:102ED0008031072097317B2F6930D200D3013F30FA
:102EE000803107203F30803107203F30803107207C
:102EF00000308031072083315423FF30C800FF3079
:102F0000C900420141084001CB0042014008400194
:102F1000813108219831031D3628640042016D0873
:102F2000003C97314001031DD42F640097314201CA
:102F300083106E1D831440018318AC2F6930D200BA
:102F4000D3013D30803107203F30803107200030F1
:102F5000803107209731D02F8C31D0246400430179
:102F60003708003C97314001031DC42F6930D2005F
:102F7000D3013D30803107205430803107200030AC
:102F8000803107209731D02F6930D200D3013D30F6
:102F90008031072043308031072000308031072006
:102FA0008331542398313428640042016D08013C78
:102FB00098314001031D3428640097314201831089
:102FC0006E1D831440018318F92F6930D200D3019C
:102FD0003E30803107203F30803107203F30803144
:102FE00007203F30803107200030803107209831A2
:102FF00032286930D200D3013E3080310720D10120
:10300000420146084001CC00420147084001CD0082
:103010000630D800D90180319C202E308031072025
:10302000D101420148084001CC0042014908400159
:10303000CD000630D800D90180319C202E3080315F
:103040000720D10142014E084001CC0042014F0847
:103050004001CD000630D800D90180319C200030DD
:103060008031072083315423983150286930D200B1
:10307000D3013E30803107205230803107204F305D
:1030800080310720553080310720543080310720AF
:1030900045308031072000308031072083315423B0
:1030A00083313D2342010130DB00D90140018431ED
:1030B0003C24640042016D08013C98314001031D2D
:1030C00099286930D200D30144308031072045303F
:1030D000803107204C30803107202030803107209C
:1030E0005230803107205430803107204530803104
:1030F0000720203080310720203080310720203009
:103100008031072020308031072045308031072072
:1031100052308031072041308031072053308031D8
:10312000072045308031072000308031072083316F
:10313000542383313D2399315829640043012108E8
:10314000003C98314001031DBC286930D200D301F6
:103150003F30803107203F30803107203F308031C1
:1031600007203D30803107203F308031072000307C
:1031700080310720993119296930D200D301D1015A
:103180004301223584008501850DA030840700307D
:10319000853D00084201D0001000D100FF30D0056D
:1031A0007F30D105D00A0319D10A50084001CC0064
:1031B000420151084001CD000630D800D9018031CC
:1031C0009C20003080310720833154234301223575
:1031D00084008501850DA03084070030853D0008FE
:1031E0004201D0001000D1000030D0058030D10560
:1031F0006400500851049931400103190D296930C8
:10320000D200D3013D308031072054308031072077
:10321000003080310720993119296930D200D3015B
:103220003D3080310720433080310720003080312D
:1032300007208331542383313D2342010130DB00D9
:10324000D901400184313C246930D200D30155308A
:103250008031072050308031072020308031072016
:1032600020308031072044308031072057308031B2
:1032700007204E3080310720203080310720593020
:1032800080310720453080310720533080310720BE
:103290002030803107204E30803107204F30803180
:1032A00007200030803107208331542383313D23B0
:1032B0009931722942010130D9000F30D900400103
:1032C00084313C246930D200D30120308031072082
:1032D0000030803107208331542B0130CB009030F7
:1032E0008031D0204201DB010F30D9004001843110
:1032F0003C24640042016D08003C99314001031DEB
:103300008C296930D200D3014F3080310720003042
:10331000803107209931B029640042016D08013CD9
:1033200099314001031D9F296930D200D3015030EB
:10333000803107200030803107209931B0296400A6
:1033400042016D08023C99314001031DB0296930EA
:10335000D200D30152308031072000308031072065
:103360008331542B640042016D08003C99314001C7
:103370000319C729640042016D08023C99314001DC
:10338000031DC4299631FD264201ED0140010800CC
:10339000640042016D08003C99314001031DD429AD
:1033A00042010130ED0040010800640042016D0857
:1033B000013C99314001031DE1299A31322A9931AA
:1033C000EB29640042016D08023C99314001031D64
:1033D000EB299A31902A0800640042016D08013CF3
:1033E00099314001031DF8299A316A2A9A31022A3B
:1033F000640042016D08023C9A314001031D022A1B
:103400009A31922A0800640042016D08023C9A3108
:103410004001031D0D2A9A31942A080064004201DC
:103420006D08023C9A314001031D182A9A319A2AEC
:103430000800640042016D08023C9A314001031DFE
:10344000252A9A319C229A312F2A640042016D0864
:10345000013C9A314001031D2F2A903153208731BE
:10346000672F0800FF30C800FF30C90042013B0849
:103470004001CB0042013A084001813108219A31D4
:10348000031D432A0800420140084001C8004201D0
:1034900041084001C900FF30CB00FF308031F720E8
:1034A0009A31031D5D2A42013A08C0003B08C10061
:1034B00040018E31EC269A31692A64009A3142012A
:1034C00083106E1D831440018318672A08008A3117
:1034D000D7220800FF30C800FF30C90042013B0876
:1034E0004001CB0042013A084001813108219A3164
:1034F000031D7B2A080064009A31420183106E1973
:10350000831440018318862A8A31D722420102306F
:10351000ED003A08C0003B08C10040018D31FC2D90
:103520009631822E9631B72E42010130ED004001D6
:103530008F31802F9531A02D42010130ED004001E7
:103540009631FD2E8431832488314D208A31CE225C
:103550009531962564009A310E1EB42A420101303D
:10356000ED0040019A31B72A4201ED0140014201CC
:103570006E14400182311C228B31F82387316B2776
:103580008931C4218B1368084201E2004001E8013F
:103590008B176400420162089A3140010319D42A52
:1035A000943193248531EF2564009A3142018310D0
:1035B0006E1C831440018318E22A9731322742019E
:0A35C0006E104001DB336300FE33A0
:020000040001F9
:02000E00883B2D
:080010007D37BF07FF1FFF3F12
:00000001FF
