:020000040000FA
:04000000DA0159299F
:080008008231252A0408C8001A
:10001000520884005308850048088000D20A03145F
:100020005629DA16DA1EDA12DA191A28DA156B20CE
:10003000031852280830CB008020CA0DCB0B1C2897
:10004000DA1E5F208E208820DA1A522057204A08B4
:10005000031056295A175A1F5A13860051080310C5
:10006000031D35285A1B5228562916003D20031817
:100070005629D1032E28DA16DA1EDA125A19452823
:10008000FE39DD005A15031056295A1A4D28CE00A4
:100090005A166B20031852284E0873200318522852
:1000A000DA1E56295F208E205A115A12DA1164087E
:1000B00085006208840006316008800467286408AF
:1000C0008500620884006009800506318005682883
:1000D00069286A28562957208E2058215F208820B9
:1000E0005D08DA190138CA000830CB00CA0D0318C0
:1000F0005720031C5F208E208820CB0B76285720AA
:100100008E20640885006208840060080005FF3EB8
:100110006508850063088400610964286508850016
:100120006308840061085D28CC00D10803195629B2
:100130004C085121D1039628DD1351080319DD170E
:100140000530D0002730CB001030B2200330CB0078
:10015000E830B220CB016430B220CB010A30B220AB
:100160004C08B928CA004D08C9004C08C800252110
:100170004808C800D0030319DD1351080319C32828
:100180005002031808004808031DDD13DD1B08009A
:10019000303E512980010131090BFC335629CB0136
:1001A000CA00FF30CA07031CCB07031C56290330C3
:1001B000C900E730DD20D128C901C80000000230A5
:1001C00064000310C83B0301C93B0318E028080082
:1001D000C835C90DFF3E0318E82848085629C93616
:1001E000C80CFF3E0318EF2848085629CB01CA0067
:1001F00002300A29C901CB01CA0003300A29C9010A
:10020000CB01CA0001300A29CA0004300A29CB01F7
:10021000CA000530D0004B084902031D11294A08C5
:100220004802043003180130031902305005031D41
:10023000FF3056290038031DFF300405031DFF3031
:1002400056290404031DFF305629CD01CC0110307E
:10025000CE00490DCC0DCD0D4A08CC024B08CD3B4C
:10026000031837294A08CC074B08CD3D0310C80DA9
:10027000C90DCE0B2929480856291030D000C901D4
:10028000C801CF0CCE0C031C49294A08C8074B08EB
:10029000C93DC90CC80CCD0CCC0CD00B41294C0865
:1002A0005629840059088A005808820040016400D9
:1002B000080020308400850160308031CA20A030E1
:1002C0008400850150308031CA2020308400013004
:1002D000850050308031CA20A03084000130850074
:1002E00050308031CA2020308400023085005030E8
:1002F0008031CA20A0308400023085005030803127
:10030000CA20203084000330850050308031CA205C
:10031000A03084000330850050308031CA20203066
:1003200084000430850050308031CA20A030840021
:100330000430850050308031CA20203084000530E0
:10034000850050308031CA20A030840005308500FF
:1003500050308031CA202030840006308500503073
:100360008031CA2051018D017E01B801C301CE0147
:100370004001243092000F309300B13094007E0190
:100380002430B900093099000A309A000B309B00E4
:100390001430A4007D011730CB007E010D30A60083
:1003A000420120309E0010309F009C011D309B00B8
:1003B0004001640081314E0183108F1E831440017F
:1003C0008318E52942011908F4334E010F12420146
:1003D0009D174E01991642011D167D011030CD006A
:1003E0007E010F30A100540124309E0008309F0090
:1003F0009C0144309B004001640082314E01831017
:100400008F1F831440018318082A54011908F433FC
:100410004E010F1354019D174E01991754011D16DB
:100420004B01FF309D009C016A309F004E018C12F1
:10043000961640018231232A4B0180309E000B1713
:100440008B17400108009C31EB2C88010408DC006C
:100450000508DB004E018F1E263242011D1D0432AD
:1004600019089D139D171F329D1C03321D121D1666
:100470001A3288015F08383E840085015F08013E1A
:100480005E02031D033242011908E4335F08013E96
:10049000DF00103C031D02320030DF00420119086A
:1004A00088018000D7334E018F1F263254011D1D55
:1004B000043219089D139D171F329D1C03321D1213
:1004C0001D161A3288016708203E840085016708DE
:1004D000013E6602031D033254011908E433670824
:1004E000013EE700183C031D02320030E7005401D2
:1004F000190888018000D7334E018C1E04328C12FB
:1005000088010130E80088015C0884005B088500F0
:1005100009000830420162044001FA00083042013B
:100520006204D2000030D300043052044001FB00CA
:100530000830420162044001FD000D30E20000304D
:10054000E4002030E0000D30E3000030E500103022
:10055000E1004E3080313D200330D10087017A30F8
:1005600080312A200A308031CF200800F03042014B
:100570006205D200D301083052044001FA00F03085
:1005800042016205D200D3010830D2040030D30406
:10059000043052044001FB00F03042016205D200F9
:1005A000D301083052044001FC000F3042016205C3
:1005B000D200D30152084001C80042015308400153
:1005C000C90004308031EA204201D20040014908CC
:1005D0004201D300083052044001FD000F304201B7
:1005E0006205D200D30152084001C80042015308FD
:1005F0004001C90004308031EA204201D2004001AC
:1006000049084201D3000830D2040030D30404303A
:1006100052044001FE000F3042016205D200D301B6
:1006200052084001C800420153084001C90004308B
:100630008031EA204201D200400149084201D30042
:10064000083052044001FF000D30E2000030E400A9
:100650002030E0000D30E3000030E5001030E10014
:100660004E3080313D200630D10087017A30803114
:100670002A200A308031CF2008006930D200D3010F
:1006800042016108103CD2000030031CFF3ED30041
:1006900052084001D1000630D800D9012030803105
:1006A00094200030803107204201E50140016400C0
:1006B000103042016502843140010318352C42019B
:1006C00063084001C80002308031FA204201D200A4
:1006D00061084001C80010308031FA204201D40086
:1006E0005208840054084001813121214201D40084
:1006F000D500640054085504833140010319822B4E
:100700008431352C42016508693E84000030850142
:10071000853D0008E20064006208003C833140012E
:10072000031D942B8431352CF03042016205D20038
:10073000D3010830D2040030D30401305204400108
:10074000FA00F03042016205D200D3010830D20431
:100750000030D3040130D2040030D30404305204FA
:100760004001FB00F03042016205D200D3010830A5
:10077000D2040030D304013052044001FC000F3099
:1007800042016205D200D30152084001C800420173
:1007900053084001C90004308031EA204201D200F0
:1007A000400149084201D3000830D2040030D3048C
:1007B000013052044001FD000F3042016205D200B9
:1007C000D30152084001C800420153084001C9004A
:1007D00004308031EA204201D20040014908420140
:1007E000D3000830D2040030D3040130D2040030EA
:1007F000D304043052044001FE000F304201620570
:10080000D200D30152084001C80042015308400100
:10081000C90004308031EA204201D2004001490879
:100820004201D3000830D2040030D3040130520416
:100830004001FF000D30E2000030E4002030E00015
:100840000D30E3000030E5001030E1004E30803123
:100850003D200630D10087017A3080312A204201C4
:10086000E10AE50A4001031D22330800420101307C
:10087000E20040018231B62A420163084001C8000B
:1008800002308031FA204201D20061084001C800E4
:1008900010308031FA204201D400520884005408FC
:1008A0004001813121214201D400D5006400540867
:1008B00055048431400103195E2C0800420163088D
:1008C000323E840001308501853D0008D200803031
:1008D0005207D200D301D30D52086107E200400154
:1008E0008231B62A42010130E300E1014001843146
:1008F0003C248331542383313D230730CB00D03057
:100900008031D02008003230D2000130D3000030D6
:10091000803107204030803107200D30E200003068
:10092000E4002030E0000D30E3000030E50010303E
:10093000E1004E3080313D20003080313B2064307A
:100940008031CF2042013030E200400182318922E3
:10095000823189228231892242012030E200400125
:100960008231892242012830E20040018231B622E0
:1009700042012830E20040018231B62242010830B3
:10098000E20040018231B62242010130E200400122
:100990008231B62242010630E20040018231B622A5
:1009A00042012830E20040018231B62242010F307C
:1009B000E20040018231B62259330D30E2000030AE
:1009C000E4002030E0000D30E3000030E50010309E
:1009D000E100A03080313D2085310318C32D420154
:1009E0003508400180313D2085310318C32D420177
:1009F0003408400180313B2085310318C32D0D3070
:100A0000E2000030E4002030E0000D30E300003070
:100A1000E5001030E100A03080313D208531031821
:100A2000C32D8031112085310318C32D4201E4000C
:100A3000400108000D30E2000030E4002030E0000A
:100A40000D30E3000030E5001030E100A0308031CF
:100A50003D2085310318C32D420135084001803106
:100A60003D2085310318C32D4201340840018031F7
:100A70003D2085310318C32D4201640840018031B7
:100A80003B2085310318C32D0A308031CF20080068
:100A90000D30E2000030E4002030E0000D30E300D3
:100AA0000030E5001030E100A03080313D2085317C
:100AB0000318C32D42013508400180313D208531A6
:100AC0000318C32D42013408400180313B20853199
:100AD0000318C32D0D30E2000030E4002030E000A8
:100AE0000D30E3000030E5001030E100A03080312F
:100AF0003D2085310318C32D803113208531031823
:100B0000C32D4201B7004001803111208531031807
:100B1000C32D4201B600400108000D30E200003054
:100B2000E4002030E0000D30E3000030E50010303C
:100B3000E100A03080313D2085310318C32D4201F2
:100B40003508400180313D2085310318C32D420115
:100B50003408400180313D2085310318C32D420106
:100B60003708400180313D2085310318C32D4201F3
:100B70003608400180313B2085310318C32D0A30EF
:100B80008031CF2008006930D200D3014530803158
:100B90000720453080310720503080310720523007
:100BA000803107204F30803107204D3080310720C1
:100BB000203080310720453080310720723080316D
:100BC00007207230803107206F308031072072306B
:100BD000803107200030803107208431722C43019E
:100BE000A1350F3040010D054201D200D301400173
:100BF00001300E1A013A4201D4000030D5005408E9
:100C00004001C800420155084001C900043080314C
:100C1000EA204201D400400149084201D5005208AF
:100C2000D4045308D50454094301A40064002408E3
:100C3000230286314001031D212E01304301A1040E
:100C4000400143012408A300640021087F3C863151
:100C50004001031DC82E430124082206A1002408D8
:100C6000A20042010130EE0040014301210842018F
:100C70006E05D200D301640052085304863140014E
:100C80000319912E4301240842016E05D200D301BD
:100C90006400520853048631400103195E2E42015C
:100CA0006E084301A7004201AE01AF010230B0005F
:100CB000B1014301A61440018631912E6400430125
:100CC0002708013C86314001031D6A2E9C317324A4
:100CD00086318C2E640043012708023C8631400196
:100CE000031D762E9C31732486318C2E64004301C3
:100CF0002708043C86314001031D822E9C31732459
:100D000086318C2E640043012708083C863140015F
:100D1000031D8C2E9C3173244301A7012614A610B9
:100D2000400142016E084001CE00CF010230CA00EE
:100D3000CB0181313D214201EE00640009306E0299
:100D40004001031C92331030430121054201D200BF
:100D5000D301640052085304863140010319C42EA4
:100D600043012614103024054201D200D30164004F
:100D700052085304863140010319C22E9C310A24C3
:100D80008631C42E9B31F42343017F30A100400102
:100D90006400430127088731400103196F2F420186
:100DA000AE0A0319AF0A2E084001C80042012F08FD
:100DB0004001C900420131084001CB004201300826
:100DC0004001813108218731031D6F2F4301261413
:100DD00040019B319C230230C800C9014201310807
:100DE0004001CB00420130084001813108218731A8
:100DF000031D2F2F640043012708013C8731400168
:100E0000031D062F9C3117248731282F64004301CE
:100E10002708023C87314001031D122F9C312E24EC
:100E20008731282F640043012708043C87314001A3
:100E3000031D1E2F9C3145248731282F6400430158
:100E40002708083C87314001031D282F9C3150247E
:100E500042017D30B000B101400187316B2F640049
:100E6000873143018310A61C831440018318662F29
:100E7000640043012708013C87314001031D442FD2
:100E80009C3171248731662F640043012708023C9E
:100E900087314001031D502F9C3171248731662F0B
:100EA000640043012708043C87314001031D5C2F87
:100EB0009C3171248731662F640043012708083C68
:100EC00087314001031D662F9C315B244201243091
:100ED000B000B10140014201AE01AF014001080084
:100EE0004301A6104001080064005E085F028831DB
:100EF000031956285E08383E840000308501853D80
:100F000000084301B600640087318310B61F8314C4
:100F100040018318CB2F43013608B8003608B700CC
:100F2000640087318310361F831440018318AF2F6C
:100F30006400873143018310B61E83144001831877
:100F4000A72F43010130BB0040018731AD2F430182
:100F50000530BA000230BB0040018731C62F640063
:100F6000873143018310B61E831440018318BE2FBE
:100F700043010330BA0040018731C22F43010130E1
:100F8000BA00400143010230BB0040014301B901F6
:100F9000400188314D2843013608B70664003B08FC
:100FA000023C88314001031D3F284301BA0364001D
:100FB0003A08003C88314001031D2A284301BB0147
:100FC00064003708FF3C88314001031D2828430195
:100FD0003808B03C031DFF30FF3A4201D200103008
:100FE0004505D400D5015208840054085504400139
:100FF00081311A214201D400D500640054085504FF
:101000008831400103192828430126140F3042017A
:101010004505D200D30152084001C80042015308DF
:101020004001C90007308031EA204201D20040016E
:1010300049084201D30044085207BA000301533D56
:10104000BB00203045054301BE00400193317323AE
:1010500088313D2864000230430139028831400163
:1010600003183D2843013908443E840001308501BE
:10107000853D36088000B90A400188314D2864005A
:1010800043013B08013C88314001031D4D284301C9
:101090003608BA000230BB004001DE0A64005E0878
:1010A000103C8831031D5528DE011E330800430122
:1010B000BB014201FF30BA00FF30BB004001080015
:1010C000640088314E0183100F1B83144001831884
:1010D0006A28F63308000E15640043013208003C0C
:1010E00088314001031D7A2843013313B3124001B4
:1010F00088319A28640043013208013C883140015C
:10110000031D882843013313B316400188319A2800
:10111000640043013208043C88314001031D9628D5
:1011200043013317B312400188319A284301331722
:10113000B3164001883160204301330854019A00FE
:1011400043013308B1000030331B0130840000300C
:10115000B31A0130400181311A214201D200D3007B
:10116000640052085304883140010319C8288831AB
:1011700060204301320A54019A00013043013207D2
:101180004201D200D301D30D52084301B106400100
:101190004201E80140010130430132024201D20024
:1011A000D3010030D33B68084001C800C9014201A7
:1011B00053084001CB004201520840018131012116
:1011C0008931031D00298831602042016808273ECB
:1011D000840001308501853D000854019A004201D8
:1011E0006808273E840001308501853D0008D20053
:1011F00052084301B1064201E80A4001031DCB3306
:1012000088316020FF304301310654019A004001CB
:101210008831602064008931540183109E18831442
:10122000400183181429F6330E11080043010630DB
:10123000B400400188316B204301C00140016400CB
:1012400043013408003C8931400103198D2989315B
:10125000DA21640043013408003C8931400103195C
:101260008C298B1368084301C1004001E8018B17EA
:101270006400430141088931400103198C2943016D
:10128000C00A640040080A3C89314001031D8C29D2
:101290004301B40364003408003C89314001031960
:1012A000582988316B204301C001400189318C29C4
:1012B0006930D200D301543080310720583080315A
:1012C00007202030803107204630803107206130F0
:1012D000803107206930803107206C308031072051
:1012E0002030803107207430803107206F3080310A
:1012F0000720203080310720D1014201270840011A
:10130000CC00CD010630D800D90180319C200030BE
:1013100080310720843172249233080043018330E6
:10132000B30042014808A7006F08A8004301350830
:101330004201A9004A08AA004C084001C800420125
:101340004D084001C9000E308031F1204201D20029
:10135000400149084201D30003305205AB004C085C
:101360004001C80042014D084001C90007308031EA
:10137000F1204201D200400149084201D3007F30F0
:101380005205AC007F304C05AD0043010730B20080
:1013900040014C3343018130B30042015C08A70097
:1013A0006F08A8005D08A90043010330B2004001A6
:1013B00088316B286400660867028A310319F12AB4
:1013C0006608203E840000308501853D0008430109
:1013D000AB0064008A318310AB1F83144001831873
:1013E000312A43012B08AD002B08AC0064008A3180
:1013F00083102B1F831440018318152A64008A313F
:1014000043018310AB1E8314400183180D2A43014E
:101410000130B00040018A31132A43010530AF008A
:101420000230B00040018A312C2A64008A31430125
:101430008310AB1E831440018318242A4301033018
:10144000AF0040018A31282A43010130AF0040013A
:1014500043010230B00040014301AE0140018A3136
:10146000E52A43012B08AC0664003008013C8A31B0
:101470004001031D432A43012B08AF000230B00096
:1014800040018A31E52A640043013008023C8A3178
:101490004001031DE52A4301AF0364002F08003C0F
:1014A0008A314001031DD22A4301B0019F30AD05AE
:1014B00064002C08FF3C8A314001031DD02A6400DF
:1014C000420120086F028A314001031DD02A6400C6
:1014D00043012D08813C8A314001031DA62A4301A6
:1014E00034084001C80000308031FF204201D200A2
:1014F000290843013502031DFF30FF3A4201D400A1
:10150000520884005408400181311A214201D4005C
:10151000D5006400540855048A3140010319A42AF7
:101520004301B50A803035054201D200D301640081
:10153000520853048A3140010319A12A4301B5011D
:1015400040014301B40140018A31D02A64004301C3
:101550002D08823C8A314001031DD02A4201210816
:10156000DC002208DD0040018931CA214201210846
:10157000C800C9012308CA00CB0124084001C800E3
:10158000C90107308031EA204201D20040014908F8
:101590004201D30052082507E7004001953141255B
:1015A0008A31E52A6400073043012E028A31400166
:1015B0000318E52A43012E08203E840001308501EE
:1015C000853D2B088000AE0A40010B13E60A64003B
:1015D0006608183C8A31031DEE2AE6010B17893193
:1015E000DA2908004301B0014201FF30BA00FF30A0
:1015F000BB004001080042013A084001CE00420110
:101600003B084001CF000230CA00CB0181313D21AF
:101610004201D20040014D084201D3000030520780
:10162000B4000030533DB5004001853148254201EA
:1016300036084001C800420137084001C90008309F
:10164000CB0000308031FC208B31031D472B420141
:1016500036084001CE00420137084001CF00023079
:10166000CA00CB0181313D214201D20040014D0829
:101670004201D300D2305207B4001930533DB500B7
:10168000FF30B600FF30B700400185318D254201A3
:101690003A084001CE0042013B084001CF00023031
:1016A000CA00CB0181313D214201D20040014D08E9
:1016B0004201D30000305207B4000030533DB50062
:1016C000FF30B600FF30B700400185318D2D02306C
:1016D000CE00CF0142013A084001CA0042013B0856
:1016E0004001CB0081313D214201D20040014D0833
:1016F0004201D30000305207B4000030533DB50022
:10170000400185314825420136084001C8004201A8
:1017100037084001C9000F308031F1204201D2006A
:10172000400149084201D300013052054301031929
:101730002611031D2615420136084001C80042014A
:1017400037084001C90007308031F1204201D20042
:10175000400149084201D3000F305205C800003053
:101760005305C90036084001C8004201370840014E
:10177000C90003308031F1204201D2004001490804
:101780004201D3000F305205CA0000305305CB0090
:1017900007303605D00000303705D1004001080081
:1017A000420148084001C800420149084001C900FF
:1017B00007308031EA204201D2004001490842014D
:1017C000D3004A084001C80042014B084001C9004B
:1017D00003308031EA204201D4004001490842012F
:1017E000D5005208D4075308D53D54085007CE0001
:1017F0005508513DCF00400108008A31FB224201CB
:101800003A084001CE0042013B084001CF000230BF
:10181000CA00CB0181313D214201D20040014D0877
:101820004201D30000305207B4000030533DB500F0
:1018300040018B31D02342014E08B6004F08B7005B
:10184000400185318D2542014E084001CE00420104
:101850004F084001CF000230CA00CB0181313D2149
:101860004201D20040014D084201D300D23052075C
:10187000B4001930533DB5003A08B6003B08B70034
:10188000400185318D2D8B31D02342014E0840011E
:10189000CE0042014F084001CF000230CA00CB0108
:1018A00081313D214201D20040014D084201D30067
:1018B000D2305207B4001930533DB5004001853194
:1018C000482542013608BA003708BB00400108002D
:1018D0004201C801C9014001420148084001C80055
:1018E000420149084001C900CB010F30813101217B
:1018F0008C31031DF62C4201CA01CB01400142018B
:101900004A084001C80042014B084001C900CB0110
:101910000F30813101218C31031DEF2C4201480829
:101920004001C800420149084001C900043080312B
:10193000EA204201D200400149084201D3004A088E
:10194000D2074B08D33D52084001CE004201530854
:101950004001CF000230CA00CB0181313D2142015C
:10196000D20040014D084201D300CE305207B400EE
:101970000730533DB5004001853148254201360806
:101980004001C800420137084001C900FF30CB00C8
:10199000FF308031F7208C31031DE82C42013608DE
:1019A000CC003708CD0048084001C8004201490872
:1019B0004001C90042016F084001813107218C318B
:1019C000031DE62C9131E4218C31E82C89318E21E4
:1019D0004201CA0A0319CB0A4001031D9033420198
:1019E000C80A0319C90A4001031D763308004201E1
:1019F00048084001C800420149084001C9000430BC
:101A00008031EA204201D200400149084201D3005E
:101A10004A08D2074B08D33D52084001CE0042018C
:101A200053084001CF000230CA00CB0181313D2173
:101A30004201D20040014D084201D300CE3052078E
:101A4000B4000730533DB50040018531482D8C313D
:101A5000F724420101303605D20000303705D300AB
:101A60006400520853048D31400103195B2DC801F5
:101A70000130C9004201500840018031EA20420192
:101A8000D200400149084201D3003608D205370888
:101A9000D3056400520853048D3140010319562DBB
:101AA00043012030BF0040018D31592D4301BF015A
:101AB00040018D319D2D420150084001CE00420170
:101AC00051084001CF000230CA00CB0181313D21D5
:101AD0004201D20040014D084201D30036084001C6
:101AE000C800420137084001C900420152084001C4
:101AF0008031F1204201D200400149084201D30067
:101B00000330D2050030D30540010130C800C901BF
:101B1000420153084001CB0042015208400181318B
:101B200008218D31031D9A2D43012030BF00400153
:101B30008D319D2D4301BF01400108008C31F724F8
:101B4000420101303605D20000303705D300640071
:101B5000520853048D3140010319F02DC8010130A2
:101B6000C9004201500840018031EA204201C6000C
:101B7000400149084201C700640043013F08003C9E
:101B80008D314001031DD02D42014609D200470985
:101B9000D3005208B6055308B70540018D31EE2D2C
:101BA000640043013F08203C8D314001031DE02DBE
:101BB00042014608B6044708B70440018D31EE2DB6
:101BC000640043013F08803C8D314001031DEE2D30
:101BD00042014608B6064708B70640018E31962EE8
:101BE000420150084001CE00420151084001CF009F
:101BF0000230CA00CB0181313D214201D2004001B7
:101C00004D084201D30040010330C800C901420120
:101C1000520840018031EA204201C60040014908D3
:101C20004201C700640043013F08003C8E3140017F
:101C3000031D4D2E42014609D2004709D300360844
:101C4000D2053708D30550084001CE0042015108A3
:101C50004001CF000230CA00CB0181313D21420159
:101C6000D40040014D084201D50040010230C800B7
:101C7000C9014201540840018031EA204201D400E8
:101C8000400149084201D50052085404B6005308E7
:101C90005504B70040018E31962E640043013F0881
:101CA000203C8E314001031D882E42014609D2009E
:101CB0004709D3003608D2053708D305500840013C
:101CC000CE00420151084001CF000230CA00CB01D2
:101CD00081313D214201D40040014D084201D5002F
:101CE00040010130C800C90142015408400180315F
:101CF000EA204201D400400149084201D5005208BF
:101D00005404B60053085504B70040018E31962E96
:101D1000640043013F08803C8E314001031D962E34
:101D200042014608B6064708B706400185318D2DA9
:101D30004301FF30AA00023042013C07B4000030EA
:101D40003D3DB5004301A901400164002830430135
:101D500029028E3140010318D82E85314825FF30E5
:101D6000C800FF30C900420137084001CB004201E2
:101D700036084001813108218E31031DC12E8E317C
:101D8000D82E4301293584008501850DA0308407B4
:101D90000030853D420136081A00370880000230C5
:101DA000B4070030B53D4301A90A4001031DCD33FE
:101DB000640043012908003C8E3140010319E32EE1
:101DC0004301AA01400108004301A8014201CE30AD
:101DD000B4000930B5004001420134084001C80098
:101DE000420135084001C9001930CB0080308131F3
:101DF00001218F31031D1D2F85314825FF30C8007B
:101E0000FF30C900420137084001CB0042013608CB
:101E10004001813108218F31031D102F8F311D2F7B
:101E20004301A80A52304201B4074001031CD433D5
:101E30004201B50A4001031DCF3308004201FF30C3
:101E4000BE00FF30BF00CE30BC000930BD004001F5
:101E50000130430128024201D200D3010030D33BBC
:101E600052084001CE00420153084001CF005230D9
:101E7000CA00CB0181313D214201D20040014D0811
:101E80004201D300CE30D2070930D33D3C08400197
:101E9000C80042013D084001C90042015308400109
:101EA000CB00420152084001813101218F31031DD5
:101EB000872F42013C08B4003D08B5004001853140
:101EC0004825420136084001C80042013708400158
:101ED000C900420143084001CB00420142084001D1
:101EE000813108218F31031D7C2F42013608BE004D
:101EF0003708BF004001080052304201BC074001D2
:101F0000031CA6334201BD0A4001031DA133080092
:101F100042014008C2004108C30040018F311E2722
:101F200042013E084001C80042013F084001C9008B
:101F3000FF30CB00FF308031F7209031031D1F2888
:101F4000523042013C074301A000400143012808F0
:101F50004001CE00CF013230CA00CB0181313D219A
:101F60004201D20040014D084201D300CE30D207D9
:101F70000930D33D0130D2020030D33B4301200869
:101F80004001C800C901420153084001CB00420191
:101F900052084001813101218F31031DE82F430197
:101FA00020084201B400B50140018431DD24420122
:101FB0003C08B4003D08B500400185311A254201B6
:101FC000BC0A0319BD0A4301A00A4001031DBE3328
:101FD0004201FF30E4003C08B4003D08B500400178
:101FE000523042013C07D20000303D3DD300013069
:101FF000D2020030D33B34084001C800420135080A
:102000004001C900420153084001CB00420152087F
:102010004001813101219031031D172885311A2596
:102020004201B40A0319B50A4001031DD933430123
:10203000A8034201FF30C000FF30C100400108008A
:1020400042014008C2004108C30040018F311E27F1
:10205000FF30C800FF30C90042013F084001CB00FB
:1020600042013E084001813108219031031D78284A
:10207000640043012808323C90314001031D75285B
:102080006930D200D3015430803107206F30803165
:1020900007206F30803107202030803107206D30DD
:1020A000803107206130803107206E308031072079
:1020B0007930803107202030803107207230803124
:1020C00007206F3080310720753080310720743051
:1020D0008031072065308031072073308031072040
:1020E0000030803107208431722C4301A80A40015E
:1020F0004201EB0102303C07B40000303D3DB50029
:102100004001023042013C07D20000303D3DD30087
:102110000130430129024201D400D5010030D53BF2
:1021200054084001CE00420155084001CF00023062
:10213000CA00CB0181313D214201D40040014D084C
:102140004201D5005208D4075308D53D3408400158
:10215000C800420135084001C9004201550840014C
:10216000CB00420154084001813101219031031D0F
:10217000D52842016B3584008501850DA030840788
:102180000030853D0008B6001000B70040018531E1
:102190008D254201EB0A0230B4074001031CB13324
:1021A0004201B50A4001031DAC33640028304201EE
:1021B0006B02903140010318E5284201FF30B60060
:1021C000FF30B700400185318D2542013C08B40045
:1021D0003D08B5004008B6004108B7004001853110
:1021E0008D2599310529843136244201E301E1012D
:1021F000400184313C246930D200D3014530803124
:102200000720723080310720613080310720733021
:10221000803107206930803107206E3080310720FF
:1022200067308031072020308031072045308031F1
:102230000720453080310720503080310720523050
:10224000803107204F30803107204D30803107200A
:10225000003080310720833154234301261442018A
:10226000FF30B600FF30B700B401B50140014201B4
:1022700034084001C800420135084001C900073058
:10228000CB00CC30813101219131031D542985319E
:102290008D2502304201B4074001031CE83342019E
:1022A000B50A4001031DE3334201CE30B4000730CC
:1022B000B5004001420134084001C8004201350820
:1022C0004001C9000930CB00CC308131012191316E
:1022D000031D772985318D2502304201B407400165
:1022E000031CE8334201B50A4001031DE3334201F8
:1022F000CE30B4000930B50040014201340840013D
:10230000C800420135084001C9001930CB008030B7
:10231000813101219131031DA62985318D2542018D
:102320000230B4070030B53D400185318D250230C3
:102330004201B4020030B53B5230B4074001031CE7
:10234000DC334201B50A4001031DD7334201D230CC
:10235000B4001930B5004001420134084001C80002
:10236000420135084001C9002930CB00D03081310D
:1023700001219131031DC92985318D25023042018A
:10238000B4074001031CE8334201B50A4001031DB4
:10239000E33308008C31F72442013608CC003708BB
:1023A000CD0048084001C800420149084001C90069
:1023B00042016F0840018031F6209131031DE2296E
:1023C00089318E299131E42942014A084001C8002F
:1023D00042014B084001C9000830CA00CB018131DD
:1023E00025214C084201D20040014D084201D30092
:1023F000D235D30D40305207E6004A084001C800EC
:1024000042014B084001C9000830CA00CB018131AC
:1024100025214201D200400149084201D300400178
:10242000C801C901420153084001CB0042015208D2
:102430004001813108219231031DC92A4201013036
:102440004C05D20000304D05D300640052085304FF
:10245000923140010319582A42014C084001C8003A
:1024600042014D084001C90008308031F12042018D
:10247000DF000C304001E2000030E4000130E000F9
:102480000C30E3000030E5000230E1004201660854
:10249000400180313D2093310318722B42015F08C7
:1024A000400180313B2093310318722B9231C72AAF
:1024B00042014C084001C80042014D084001C900DA
:1024C00006308031F1204201D2004001490842012A
:1024D000D300FF305205DF000C304001E200003035
:1024E000E4000130E0000C30E3000030E500023091
:1024F000E10042016608400180313D20933103181C
:10250000722B42015F08400180313B209331031858
:10251000722B42014C084001C80042014D084001A5
:10252000C9000E308031F1204201D200400149083B
:102530004201D3000330D2050030D305FC305204F1
:10254000DF0040306602D200D3010030D33B703050
:102550005207E6000C304001E2000030E400013098
:10256000E0000C30E3000030E5000230E100420101
:102570006608400180313D2093310318722B4201DF
:102580005F08400180313B2093310318722B933157
:10259000722B420101304C05D20000304D05D300B2
:1025A000640052085304933140010319032B420184
:1025B0004C084001C80042014D084001C9000830E4
:1025C0008031F1204201DF000C304001E200003098
:1025D000E4000830E0000C30E3000030E50010308B
:1025E000E10042016608400180313D20933103182B
:1025F000722B42015F08400180313B209331031868
:10260000722B9331722B42014C084001C8004201E9
:102610004D084001C90006308031F1204201D2004E
:10262000400149084201D300FF305205DF000C3061
:102630004001E2000030E4000830E0000C30E3002C
:102640000030E5001030E1004201660840018031B1
:102650003D2093310318722B42015F084001803105
:102660003B2093310318722B42014C084001C800F3
:1026700042014D084001C9000E308031F120420175
:10268000D200400149084201D3000330D205003096
:10269000D305FC305204DF0040306602D200D30183
:1026A0000030D33B70305207E6000C304001E200AE
:1026B0000030E4000830E0000C30E3000030E500BA
:1026C0001030E10042016608400180313D20933125
:1026D0000318722B42015F08400180313B20933187
:1026E0000318722B08008B3167236400430125080F
:1026F000023C94314001031DE82C640094314301F5
:102700008310261D8314400183180D2C42013A08C2
:10271000C2003B08C30040018F311E2742013E0822
:102720004001C80042013F084001C900FF30CB0012
:10273000FF308031F7209331031DD32B6930D20055
:10274000D301533080310720773080310720693042
:1027500080310720743080310720633080310720BA
:102760006830803107202030803107206930803187
:1027700007207330803107202030803107207230ED
:10278000803107206F30803107207530803107207D
:10279000743080310720653080310720003080316F
:1027A00007209431092C6930D200D3015330803195
:1027B000072077308031072069308031072074305E
:1027C0008031072063308031072068308031072056
:1027D0002030803107207530803107206E30803105
:1027E0000720643080310720653080310720663053
:1027F000803107206930803107206E30803107201A
:10280000653080310720643080310720003080310E
:1028100007208431722C9431E62C4301FF30AA004A
:1028200064002908003C943140010319642C4201E2
:10283000EC0140010130430129024201D200D301E1
:102840000030D33B6C084001C800C9014201530865
:102850004001CB00420152084001813101219431F5
:10286000031D622C42016C3584008501850DA0306A
:1028700084070030853D0008D2001000D300FF30EF
:10288000D2057F30D30552084001C80042015308E9
:102890004001C90042013B084001CB0042013A0817
:1028A0004001813108219431031D5D2C42016C08E7
:1028B0004301AA0040019431622C4201EC0A40011C
:1028C000031DB8339431672C4201EC0140016400D0
:1028D00043012A08FF3C94314001031DB72C6400DA
:1028E00028304301290294314001031CB22C693085
:1028F000D200D3015430803107206F30803107205F
:102900006F30803107202030803107206D308031DA
:1029100007206130803107206E3080310720793008
:10292000803107202030803107207330803107202C
:102930007730803107206930803107207430803152
:1029400007206330803107206830803107206530F0
:10295000803107207330803107200030803107201C
:102960008431722C43012908AA00A90A400164009D
:1029700043013E08003C94314001031DD72C003038
:1029800042013A04D20080303B04D30043012A358F
:1029900084008501850DA03084070030853D42010B
:1029A00052081A005308800040019431E62C43017C
:1029B0002A3584008501850DA03084070030853DCF
:1029C00042013A081A003B08800040019531402D31
:1029D0006400953143018310261D83144001831840
:1029E0002B2D42013A08C2003B08C30040018F3141
:1029F0001E2742013E084001C80042013F08400135
:102A0000C900FF30CB00FF308031F7209531031D26
:102A1000232D42013A08C0003B08C10040018E311D
:102A20009826640043012508003C95314001031DB0
:102A3000212D98311D2042014208BA004308BB00F5
:102A400040019531292D4201FF30C000FF30C10007
:102A500040019531402D4201FF30C000FF30C100E0
:102A6000640043012508003C95314001031D402DC1
:102A700043013E08BF0040018D319E259131CA219E
:102A800008008C31F724420101303605D2000030B5
:102A90003705D300640052085304953140010319EF
:102AA000562D4301BD01400195315A2D430103309C
:102AB000BD00400143013D08BD00400164000830F5
:102AC00043013D02963140010318B02E42014808EF
:102AD0004001CE00420149084001CF005030CA00F9
:102AE000CB0181313D214201D20040014D0842011C
:102AF000D3004A084001CE0042014B084001CF00FC
:102B00000530CA00CB0181313D214201D400400192
:102B10004D084201D50043013D084201D407031886
:102B2000D50A520854074301BC0040010130C800D7
:102B3000C90143013D0840018031EA204201D20031
:102B4000400149084201D3006708D205D30164005F
:102B500052085304963140010319AA2E430126144A
:102B600026113D084201D000D1016400430125082F
:102B7000003C95314001031DD92D8C314324420185
:102B80003A084001C80042013B084001C900FF303B
:102B9000CB00FF308031F7209531031DD72D430145
:102BA0008030BF0040018D319E259131CA21963180
:102BB000A22E640043012508013C96314001031D0B
:102BC000A22E42013A084001C80042013B084001E0
:102BD000C900FF30CB00FF308031F7209631031D54
:102BE000A22E420140084001C800420141084001B4
:102BF000C900FF30CB00FF308031F7209631031D34
:102C0000092E42013A08C0003B08C10040018F3143
:102C100088278B31FD238C31F7244201360840018F
:102C2000C800420137084001C900FF30CB00FF3027
:102C30008031F7204201D2003A084001C800420129
:102C40003B084001C9000330CB0083308031FC20B9
:102C50004201D40001303605D60000303705D700D8
:102C600056084001C800420157084001C900CB0185
:102C700000308031F7204201D60054088400560805
:102C8000400181311A214201D600D7005208840048
:102C9000560857044001813121214201D600D70056
:102CA0003A084001C80042013B084001C900033016
:102CB000CB008330813104214201D8000130360538
:102CC000DA0000303705DB00580884005A085B043E
:102CD000400181311A214201DA00DB005608570415
:102CE00084005A085B044001813121214201DA004D
:102CF000DB0064005A085B04963140010319A02EE2
:102D000042013A084001C80042013B084001C900A5
:102D10000330CB0083308031FC209631031D982E88
:102D200042014030B6005530B700400196319E2E2A
:102D300042010130B600FF30B700400185318D25DA
:102D40009131CA218C3143244201FF30C000FF3051
:102D5000C10040014301BD0A95314001031D5E2DB4
:102D600008004201E90140016400023042016902A9
:102D70009731400103189D2F42016908383E8400B5
:102D800001308501853D0008D2005235E000690818
:102D9000003C031DFF30FF3AD200030140010C1D2F
:102DA000FF304201D40052088400540840018131B0
:102DB0001A214201D400D50064005408550496310C
:102DC00040010319E92E01304201E004400197312E
:102DD0000A2F42016908013C031DFF30FF3AD2006F
:102DE000030140018C1EFF304201D40052088400D0
:102DF0005408400181311A214201D400D5006400F9
:102E0000540855049731400103190A2F013042013B
:102E1000E004400142016908383E84000130850128
:102E2000853D6008800064006008FF3C97314001E8
:102E3000031D982F4201DE01400164000830420169
:102E40005E02973140010318982F42015E35D2008F
:102E5000D301D30D70305207E60064006908003CCE
:102E600097314001031D522F0C30E2000030E40086
:102E70000130E0000C30E3000030E5000230E100FA
:102E800042016608400180313D2097310318932F9D
:102E90008031112097310318932F4201E700400140
:102EA0009731762F640042016908013C9731400157
:102EB000031D762F0C30E2000030E4000830E00003
:102EC0000C30E3000030E5001030E10042016608FC
:102ED000400180313D2097310318932F803111201C
:102EE00097310318932F4201E70040014201E7099F
:102EF00069084001CE00CF010830CA00CB01813102
:102F00003D214201D20040014D084201D3005E083C
:102F10005207CA000301533DCB006F08C800C90126
:102F20004001953141254201DE0A4001031D8533F0
:102F30004201E90A4001031D1733080042010F3026
:102F4000EF0040019931322143012615400108006C
:102F5000640043012A08FF3C9831400103191C28F2
:102F6000640043012908013C97314001031DBE2F35
:102F70004301FF30AA004001983119280130430174
:102F800029024201D200D3010030D33B5208400154
:102F9000C800420153084001C90043012A0840010A
:102FA000813107219731031DDA2F4301AA03400124
:102FB0009831192843012A084201EC0040010230EF
:102FC000430129024201D200D3010030D33B6C08F7
:102FD0004001C800C901420153084001CB00420131
:102FE00052084001813101219831031D1928013017
:102FF00042016C07D200D301D30D52358400530D2A
:103000008500A03084070030853D0008D200100004
:10301000D3006C3584008501850DA0308407003015
:10302000853D52081A0053088000EC0A4001031D38
:10303000C6334301A9034001080064004301290885
:10304000003C98314001031989284201ED014001FB
:103050000130430129024201D200D3010030D33BA9
:103060006D084001C800C901420153084001CB006E
:10307000420152084001813101219831031D892804
:1030800042016D3584008501850DA0308407003034
:10309000853D0008D2001000D300FF305205BA0071
:1030A0007F305305BB0040018B31672364009831AA
:1030B0004301831026198314400183188428420198
:1030C0006D3584008501850DA03084070030853D75
:1030D0000008D2001000D3000030D2058030D305A4
:1030E0006400520853049831400103197C284301BD
:1030F000BF0140019831802843012030BF004001CA
:103100008D319E259131CA214201ED0A4001031DF6
:103110009F33080043012A08FF3C031DFF30420192
:10312000D20043012A08003C031DFF304201D400B5
:10313000520884005408400181311A214201D40010
:10314000D500640054085504983140010319BE2885
:103150004301AA032A3584008501850DA030840728
:103160000030853D00084201D2001000D300FF303E
:103170005205BA007F305305BB00400108004301EF
:103180002A08FF3C031DFF304201D20001304301F9
:1031900029024201D400D5010030D53B43012A0861
:1031A0004001C800C901420155084001CB0042015D
:1031B00054084001813104214201D40052088400A6
:1031C0005408400181311A214201D400D500640025
:1031D0005408550499314001031904294301AA0AEE
:1031E0002A3584008501850DA03084070030853D97
:1031F00000084201D2001000D300FF305205BA008F
:103200007F305305BB004001080042014008BA006E
:103210004108BB004008C2004108C30040018F3193
:103220001E27FF30C800FF30C90042013F0840019F
:10323000CB0042013E084001813108219931031D34
:1032400029294201FF30C000FF30C10040019931FF
:103250002B298E31982608004301FF30AA00A901CE
:10326000400108004201FF30C000FF30C1004001B2
:103270008E31E42E4201E301E101400184313C241E
:10328000640043012508023C9A3140010319DF2AFA
:1032900042013A084001C80042013B084001C90010
:1032A000FF30CB00FF308031F7209931031D7429A6
:1032B0006930D200D301D101013042013A07D20076
:1032C00000303B3DD30052084001CC00420153087E
:1032D0004001CD000630D800D90180319C2000305B
:1032E00080310720993183296930D200D3013F30E2
:1032F000803107203F30803107203F308031072068
:1033000000308031072083315423FF30C800FF3064
:10331000C900420141084001CB0042014008400180
:10332000813108219A31031D3E2A6400430125089A
:10333000003C99314001031DDC29640099314301AF
:103340008310261D831440018318B4296930D200EC
:10335000D3013D30803107203F30803107200030DD
:10336000803107209931D8298D3127256400430108
:103370003F08003C99314001031DCC296930D2003F
:10338000D3013D3080310720543080310720003098
:10339000803107209931D8296930D200D3013D30DE
:1033A00080310720433080310720003080310720F2
:1033B000833154239A313C2A640043012508013C9F
:1033C0009A314001031D3C2A64009A314301831065
:1033D000261D831440018318012A6930D200D301CD
:1033E0003E30803107203F30803107203F30803130
:1033F00007203F30803107200030803107209A318C
:103400003A2A6930D200D3013E3080310720D10101
:10341000420148084001CC00420149084001CD006A
:103420000630D800D90180319C202E308031072011
:10343000D10142014A084001CC0042014B08400141
:10344000CD000630D800D90180319C202E3080314B
:103450000720D101420150084001CC00420151082F
:103460004001CD000630D800D90180319C200030C9
:1034700080310720833154239A31582A6930D20091
:10348000D3013E30803107205230803107204F3049
:10349000803107205530803107205430803107209B
:1034A000453080310720003080310720833154239C
:1034B00083313D2342010130E300E10140018431C9
:1034C0003C24640043012508013C9A314001031D5E
:1034D000A32A6930D200D30144308031072045301F
:1034E000803107204C308031072020308031072088
:1034F00052308031072054308031072045308031F0
:1035000007202030803107202030803107202030F4
:10351000803107202030803107204530803107205E
:1035200052308031072041308031072053308031C4
:10353000072045308031072000308031072083315B
:1035400054239A31DB2A6930D200D301D1014201E0
:1035500048084001CC00420149084001CD00063036
:10356000D800D90180319C202E3080310720D10134
:1035700042014A084001CC0042014B084001CD0005
:103580000630D800D90180319C202E3080310720B0
:10359000D101420150084001CC00420151084001D4
:1035A000CD000630D800D90180319C200030803118
:1035B00007208331542383313D239B319A2B6400B0
:1035C00043012908003C9A314001031DFE2A69305D
:1035D000D200D3013F30803107203F3080310720B7
:1035E0003F30803107203D30803107203F3080312F
:1035F00007200030803107209B315B2B6930D200DF
:10360000D301D10143012A3584008501850DA03005
:1036100084070030853D00084201D2001000D3002D
:10362000FF30D2057F30D305D20A0319D30A5208DE
:103630004001CC00420153084001CD000630D800C3
:10364000D90180319C200030803107208331542300
:1036500043012A3584008501850DA03084070030A0
:10366000853D00084201D2001000D3000030D20591
:103670008030D3056400520853049B314001031984
:103680004F2B6930D200D3013D30803107205430B8
:10369000803107200030803107209B315B2B69305F
:1036A000D200D3013D3080310720433080310720E4
:1036B0000030803107208331542383313D23420180
:1036C0000130E300E101400184313C246930D20043
:1036D000D301553080310720503080310720203011
:1036E000803107202030803107204430803107208E
:1036F0005730803107204E30803107202030803114
:103700000720593080310720453080310720533061
:10371000803107202030803107204E308031072053
:103720004F3080310720003080310720833154230F
:1037300083313D239B31B42B42010130E1000F3036
:10374000E100400184313C246930D200D3012030B3
:10375000803107200030803107208331542B013025
:10376000CB0090308031D0204201E3010F30E100E6
:10377000400184313C24640043012508003C9B3116
:103780004001031DCE2B6930D200D3014F30803170
:1037900007200030803107209B31F22B6400430169
:1037A0002508013C9B314001031DE12B6930D2000B
:1037B000D3015030803107200030803107209B3109
:1037C000F22B640043012508023C9B314001031D9C
:1037D000F22B6930D200D301523080310720003003
:1037E000803107208331542B640043012508003CBD
:1037F0009C3140010319092C640043012508023C57
:103800009C314001031D062C993105214301A5017E
:1038100040010800640043012508003C9C31400140
:10382000031D162C43010130A5004001080064006F
:1038300043012508013C9C314001031D232C9C3190
:10384000742C9C312D2C640043012508023C9C31D2
:103850004001031D2D2C9C31D92C0800640043012C
:103860002508013C9C314001031D3A2C9C31AF2CB2
:103870009C31442C640043012508023C9C314001EA
:10388000031D442C9C31DB2C0800640043012508F7
:10389000023C9C314001031D4F2C9C31DD2C080063
:1038A000640043012508023C9C314001031D5A2C51
:1038B0009C31E32C0800640043012508023C9C3144
:1038C0004001031D672C9C31E5249C31712C640060
:1038D00043012508013C9C314001031D712C9031AE
:1038E000F3208731702F0800FF30C800FF30C90077
:1038F00042013B084001CB0042013A0840018131BE
:1039000008219C31031D852C08004201400840011C
:10391000C800420141084001C900FF30CB00FF3020
:103920008031F7209C31031D9F2C42013A08C000D2
:103930003B08C10040018F3188279C31AE2C6400C8
:103940009C3143018310261D831440018318A92C48
:1039500008008A31FB224301261540010800FF3090
:10396000C800FF30C90042013B084001CB004201C2
:103970003A084001813108219C31031DC02C080008
:1039800064009C314301831026198314400183187D
:10399000CE2C8A31FB22430126154001430102301F
:1039A000A50042013A08C0003B08C10040018E3129
:1039B000982E98318A289831BF2843010130A500FC
:1039C0004001903120289731A82F43010130A500F4
:1039D00040019931052984318324883157208A3167
:1039E000F22297319E2764009C310E1EFD2C43016C
:1039F0000130A50040019D31002D4301A50140018A
:103A000043012614400182311C220330CB00E830F0
:103A10008031D0208C316824873174278931DA21B4
:103A20008B1368084201EA004001E8018B1764002B
:103A300042016A089D3140010319222D9631B126B9
:103A40008531EF2564009D3143018310261C8314CA
:103A500040018318302D99313A214301261040014D
:063A6000DB336300FE33BE
:020000040001F9
:02000E00883B2D
:080010007D37BF07FF1FFF3F12
:00000001FF
