:020000040000FA
:04000000DA015E299A
:0800080082312A2A0408C80015
:10001000520884005308850048088000D20A03145F
:100020005B29DA16DA1EDA12DA191A28DA156B20C9
:10003000031852280830CB008020CA0DCB0B1C2897
:10004000DA1E5F208E208820DA1A522057204A08B4
:1000500003105B295A175A1F5A13860051080310C0
:10006000031D35285A1B52285B2916003D20031812
:100070005B29D1032E28DA16DA1EDA125A1945281E
:10008000FE39DD005A1503105B295A1A4D28CE009F
:100090005A166B20031852284E0873200318522852
:1000A000DA1E5B295F208E205A115A12DA11640879
:1000B00085006208840006316008800467286408AF
:1000C0008500620884006009800506318005682883
:1000D00069286A285B2957208E205D215F208820AF
:1000E0005D08DA190138CA000830CB00CA0D0318C0
:1000F0005720031C5F208E208820CB0B76285720AA
:100100008E20640885006208840060080005FF3EB8
:100110006508850063088400610964286508850016
:100120006308840061085D28CC00D10803195B29AD
:100130004C085621D1039628DD1351080319DD1709
:100140000530D0002730CB001030B2200330CB0078
:10015000E830B220CB016430B220CB010A30B220AB
:100160004C08B928CA004D08C9004C08C8002A210B
:100170004808C800D0030319DD1351080319C32828
:100180005002031808004808031DDD13DD1B08009A
:10019000303E562980010131090BFC335B29CB012C
:1001A000CA00FF30CA07031CCB07031C5B290330BE
:1001B000C900E730DD20D128C901C80000000230A5
:1001C00064000310C83B0301C93B0318E028080082
:1001D000C835C90DFF3E0318E82848085B29C93611
:1001E000C80CFF3E0318EF2848085B29CB01CA0062
:1001F00002300A29C901CB01CA0003300A29C9010A
:10020000CB01CA0001300A29CA0004300A29CB01F7
:10021000CA000530D0004B084902031D11294A08C5
:100220004802043003180130031902305005031D41
:10023000FF305B290038031DFF300405031DFF302C
:100240005B290404031DFF305B290038031DFF30C8
:10025000FF3A5B29CD01CC011030CE00490DCC0D09
:10026000CD0D4A08CC024B08CD3B03183C294A0867
:10027000CC074B08CD3D0310C80DC90DCE0B2E2960
:1002800048085B291030D000C901C801CF0CCE0C42
:10029000031C4E294A08C8074B08C93DC90CC80CA5
:1002A000CD0CCC0CD00B46294C085B298400590896
:1002B0008A00580882004001640008002030840051
:1002C000850160308031CA20A03084008501503023
:1002D0008031CA20203084000130850050308031C8
:1002E000CA20A03084000130850050308031CA20FF
:1002F000203084000230850050308031CA20A03088
:1003000084000230850050308031CA2020308400C3
:100310000330850050308031CA20A0308400033083
:10032000850050308031CA202030840004308500A0
:1003300050308031CA20A030840004308500503015
:100340008031CA2020308400053085005030803153
:10035000CA20A03084000530850050308031CA208A
:10036000203084000630850050308031CA20510191
:100370008D017E01B801C301CE01400124309200FD
:100380000F309300B13094007E012430B900093061
:1003900099000A309A000B309B001430A4007D01B4
:1003A0001730CB007E010D30A600420120309E00A8
:1003B00010309F009C011D309B0040016400813182
:1003C0004E0183108F1E831440018318EA294201D5
:1003D0001908F4334E010F1242019D174E01991670
:1003E00042011D167D011030CD007E010F30A100AD
:1003F000540124309E0008309F009C0144309B0033
:100400004001640082314E0183108F1F831440012C
:1004100083180D2A54011908F4334E010F135401A7
:100420009D174E01991754011D164B01FF309D0079
:100430009C016A309F004E018C1296164001823159
:10044000282A4B0180309E000B178B1740010800B3
:100450009C31022C88010408DC000508DB004E01F9
:100460008F1E263242011D1D043219089D139D174F
:100470001F329D1C03321D121D161A3288015F089F
:10048000383E840085015F08013E5E02031D033291
:1004900042011908E4335F08013EDF00103C031DF0
:1004A00002320030DF004201190888018000D73392
:1004B0004E018F1F263254011D1D043219089D1351
:1004C0009D171F329D1C03321D121D161A32880102
:1004D0006708203E840085016708013E6602031D0F
:1004E000033254011908E4336708013EE700183C61
:1004F000031D02320030E700540119088801800012
:10050000D7334E018C1E04328C1288010130E80072
:1005100088015C0884005B088500090008304201FE
:100520005A044001FA00083042015A04D000003059
:10053000D100043050044001FB00083042015A044D
:100540004001FD000D30E2000030E4002030E0000A
:100550000D30E3000030E5001030E1004E30803116
:100560003D200330D10087017A3080312A200A30C3
:100570008031CF200800F03042015A05D000D1016F
:10058000083050044001FA00F03042015A05D00012
:10059000D1010830D0040030D104043050044001AF
:1005A000FB00F03042015A05D000D1010830500460
:1005B0004001FC000F3042015A05D000D101500823
:1005C0004001C800420151084001C9000430803197
:1005D000EA204201D000400149084201D100083020
:1005E00050044001FD000F3042015A05D000D101F6
:1005F00050084001C800420151084001C9000430C0
:100600008031EA204201D000400149084201D10076
:100610000830D0040030D104043050044001FE0002
:100620000F3042015A05D000D10150084001C800E6
:10063000420151084001C90004308031EA204201E2
:10064000D000400149084201D10008305004400167
:10065000FF000D30E2000030E4002030E0000D30FB
:10066000E3000030E5001030E1004E3080313D20E5
:100670000630D10087017A3080312A200A3080315B
:10068000CF2008006930D200D30142015908103C44
:10069000D0000030031CFF3ED10050084001D100C3
:1006A0000630D800D90120308031942000308031CC
:1006B00007204201DD0140016400103042015D026B
:1006C0008431400103183A2C42015B084001C80004
:1006D00002308031FA204201D00059084001C800A0
:1006E00010308031FA204201D200500884005208B4
:1006F0004001813121214201D200D300640052081F
:100700005304833140010319872B84313A2C420171
:100710005D08693E840000308501853D0008DA00EF
:1007200064005A08003C83314001031D992B843139
:100730003A2CF03042015A05D000D1010830D004E3
:100740000030D104013050044001FA00F030420181
:100750005A05D000D1010830D0040030D104013056
:10076000D0040030D104043050044001FB00F030CC
:1007700042015A05D000D1010830D0040030D10424
:10078000013050044001FC000F3042015A05D000F6
:10079000D10150084001C800420151084001C90080
:1007A00004308031EA204201D00040014908420172
:1007B000D1000830D0040030D10401305004400191
:1007C000FD000F3042015A05D000D1015008400110
:1007D000C800420151084001C90004308031EA20BC
:1007E0004201D000400149084201D1000830D00444
:1007F0000030D1040130D0040030D1040430500462
:100800004001FE000F3042015A05D000D1015008CE
:100810004001C800420151084001C9000430803144
:10082000EA204201D000400149084201D1000830CD
:10083000D0040030D104013050044001FF000D30DD
:10084000E2000030E4002030E0000D30E300003032
:10085000E5001030E1004E3080313D200630D100FF
:1008600087017A3080312A204201D90ADD0A40010D
:10087000031D2233080042010130DA0040018231B9
:10088000BB2A42015B084001C80002308031FA20D7
:100890004201D00059084001C80010308031FA20D0
:1008A0004201D200500884005208400181312121C8
:1008B0004201D200D3006400520853048431400145
:1008C0000319632C080042015B08323E84000130AA
:1008D0008501853D0008D00080305007D000D1014F
:1008E000D10D50085907DA0040018231BB2A42017C
:1008F0000130DB00D9014001843141248331592387
:10090000833142230730CB00D0308031D020080023
:100910003230D2000130D300003080310720403027
:10092000803107200D30E2000030E4002030E0008C
:100930000D30E3000030E5001030E1004E30803132
:100940003D20003080313B2064308031CF20420197
:100950003030DA00400182318E2282318E228231A3
:100960008E2242012030DA00400182318E22420183
:100970002830DA0040018231BB2242012830DA00FF
:1009800040018231BB2242010830DA00400182314D
:10099000BB2242010130DA0040018231BB22420118
:1009A0000630DA0040018231BB2242012830DA00F1
:1009B00040018231BB2242010F30DA004001823116
:1009C000BB2259330D30E2000030E4002030E0005B
:1009D0000D30E3000030E5001030E100A030803140
:1009E0003D2085310318C82D420135084001803172
:1009F0003D2085310318C82D420134084001803163
:100A00003B2085310318C82D0D30E2000030E40092
:100A10002030E0000D30E3000030E5001030E10050
:100A2000A03080313D2085310318C82D8031112040
:100A300085310318C82D4201DC00400108000D304B
:100A4000E2000030E4002030E0000D30E300003030
:100A5000E5001030E100A03080313D2085310318E1
:100A6000C82D42013508400180313D2085310318F1
:100A7000C82D42013408400180313D2085310318E2
:100A8000C82D42015C08400180313B2085310318AC
:100A9000C82D0A308031CF2008000D30E200003030
:100AA000E4002030E0000D30E3000030E5001030BD
:100AB000E100A03080313D2085310318C82D42016E
:100AC0003508400180313D2085310318C82D420191
:100AD0003408400180313B2085310318C82D0D308A
:100AE000E2000030E4002030E0000D30E300003090
:100AF000E5001030E100A03080313D208531031841
:100B0000C82D8031132085310318C82D4201B7004C
:100B100040018031112085310318C82D4201B600F3
:100B2000400108000D30E2000030E4002030E00019
:100B30000D30E3000030E5001030E100A0308031DE
:100B40003D2085310318C82D420135084001803110
:100B50003D2085310318C82D420134084001803101
:100B60003D2085310318C82D4201370840018031EE
:100B70003D2085310318C82D4201360840018031DF
:100B80003B2085310318C82D0A308031CF20080062
:100B90006930D200D30145308031072045308031A3
:100BA00007205030803107205230803107204F30ED
:100BB000803107204D3080310720203080310720E0
:100BC000453080310720723080310720723080310B
:100BD00007206F30803107207230803107200030CD
:100BE000803107208431772C4201E9350F304001F4
:100BF0000D054201D000D101400101300E1A013A29
:100C00004201D2000030D30052084001C800420126
:100C100053084001C90004308031EA204201D2006B
:100C2000400149084201D3005008D2045108D304BE
:100C30005209EC0064006C086B0286314001031D10
:100C4000252E01304201E904400142016C08EB000D
:100C5000640069087F3C86314001031DC42E4201B7
:100C60006C086A06E9006C08EA000130E600400101
:100C7000420169086605D000D101640050085104A2
:100C80008631400103198F2E42016C086605D000A1
:100C9000D1016400500851048631400103195C2ED3
:100CA00042016608EF00AE01AF010230B000B101B1
:100CB000EE14400186318F2E640042016F08013C22
:100CC00086314001031D682E9B31912386318A2E87
:100CD000640042016F08023C86314001031D742EFE
:100CE0009B31912386318A2E640042016F08043CB7
:100CF00086314001031D802E9B31912386318A2E3F
:100D0000640042016F08083C86314001031D8A2EB1
:100D10009B3191234201EF016E14EE10400142011C
:100D200066084001CE00CF010230CA00CB018131FC
:100D300042214201E6006400093066024001031CC2
:100D40009733103042016905D000D101640050088A
:100D50005104863140010319C02E42016E14103037
:100D60006C05D000D1016400500851048631400167
:100D70000319BE2E9B3128238631C02E9B311223AE
:100D800042017F30E9004001640042016F08873171
:100D9000400103196B2F4201AE0A0319AF0A2E0856
:100DA0004001C80042012F084001C900420131083A
:100DB0004001CB00420130084001813108218731D8
:100DC000031D6B2F42016E1440019A31BA2202308A
:100DD000C800C901420131084001CB00420130087E
:100DE0004001813108218731031D2B2F640042010E
:100DF0006F08013C87314001031D022F9B313523D1
:100E00008731242F640042016F08023C8731400182
:100E1000031D0E2F9B314C238731242F6400420188
:100E20006F08043C87314001031D1A2F9B31632357
:100E30008731242F640042016F08083C873140014C
:100E4000031D242F9B316E2342017D30B000B10180
:100E500040018731672F6400873142018310EE1C07
:100E6000831440018318622F640042016F08013C23
:100E700087314001031D402F9B318F238731622F23
:100E8000640042016F08023C87314001031D4C2F72
:100E90009B318F238731622F640042016F08043C2D
:100EA00087314001031D582F9B318F238731622FDB
:100EB000640042016F08083C87314001031D622F26
:100EC0009B31792342012430B000B101400142013D
:100ED000AE01AF01400108004201EE1040010800E0
:100EE00064005E085F028831031951285E08383EAD
:100EF000840000308501853D00084301AE00640098
:100F000087318310AE1F831440018318C72F43011C
:100F10002E08B0002E08AF006400873183102E1F0A
:100F2000831440018318AB2F640087314301831081
:100F3000AE1E831440018318A32F43010130B30078
:100F400040018731A92F43010530B2000230B300C0
:100F500040018731C22F6400873143018310AE1EE8
:100F6000831440018318BA2F43010330B2004001BB
:100F70008731BE2F43010130B200400143010230EE
:100F8000B30040014301B1014001883148284301C9
:100F90002E08AF0664003308023C88314001031D6F
:100FA0003A284301B20364003208003C8831400112
:100FB000031D25284301B30164002F08FF3C88313D
:100FC0004001031D232843013008B03C031DFF30BE
:100FD000FF3A4201D00010304505D200D30150083D
:100FE000840052085304400181311A214201D20089
:100FF000D3006400520853048831400103192328A8
:1010000042016E140F304505D000D1015008400157
:10101000C800420151084001C90007308031EA2070
:101020004201D000400149084201D1004408500764
:10103000BA000301513DBB00203045054301B60015
:1010400040019231E02288313828640002304301A7
:101050003102883140010318382843013108443EE9
:10106000840001308501853D2E088000B10A4001D1
:1010700088314828640043013308013C883140012D
:10108000031D482843012E08B2000230B30040017E
:10109000DE0A64005E08103C8831031D5028DE0122
:1010A0001F3308004301B3014201FF30BA00FF3093
:1010B000BB0040010800640088314E0183100F1B03
:1010C0008314400183186528F63308000E15640068
:1010D00043012A08003C88314001031D7528430163
:1010E0002B13AB12400188319528640043012A0874
:1010F000013C88314001031D832843012B13AB16AB
:10110000400188319528640043012A08043C883155
:101110004001031D912843012B17AB124001883178
:10112000952843012B17AB16400188315B20430102
:101130002B0854019A0043012B08A90000302B1BF7
:10114000013084000030AB1A0130400181311A2196
:101150004201D000D10064005008510488314001A0
:101160000319C32888315B2043012A0A54019A00DD
:10117000013043012A074201D000D101D10D5008AE
:101180004301A90640014201E00140010130430151
:101190002A024201D000D1010030D13B6008400159
:1011A000C800C901420151084001CB00420150086A
:1011B0004001813101218831031DFB2888315B20EA
:1011C00042016008273E840001308501853D00080A
:1011D00054019A0042016008273E840001308501D5
:1011E000853D0008D00050084301A9064201E00AED
:1011F0004001031DCB3388315B20FF3043012906BA
:1012000054019A00400188315B2064008931540107
:1012100083109E188314400183180F29F6330E1192
:10122000080043010630AC004001883166206400AC
:1012300043012C08003C8931400103198F29893171
:10124000DC21640043012C08003C89314001031972
:101250008E298B1368084301B9004001E8018B1700
:101260006400430139088931400103198E29430183
:10127000B80A013038054201D000D1014001C8014F
:10128000C901420151084001CB0042015008400110
:10129000813108218931031D8E294301AC0364008B
:1012A0002C08003C8931400103195A2988316620F5
:1012B00089318E296930D200D30154308031072022
:1012C000583080310720203080310720463080316F
:1012D00007206130803107206930803107206C3071
:1012E0008031072020308031072074308031072082
:1012F0006F3080310720203080310720D10142013A
:1013000027084001CC00CD010630D800D90180313A
:101310009C200030803107208431772488330800F6
:1013200043018330AB0042014608A7006708A800CC
:1013300043012D084201A9004808AA004A084001BB
:10134000C80042014B084001C9000E308031F12035
:101350004201D000400149084201D100033050054C
:10136000AB004A084001C80042014B084001C900D7
:1013700007308031F1204201D0004001490842018C
:10138000D1007F305005AC007F304A05AD004301ED
:101390000730AA004001453343018130AB004201D0
:1013A0005408A7006708A8005508A90043010330A6
:1013B000AA004001883166286400660867028A3105
:1013C0000319E52A6608203E840000308501853D2A
:1013D00000084301A30064008A318310A31F831413
:1013E00040018318332A43012308A5002308A400E1
:1013F00064008A318310231F831440018318172A45
:1014000064008A3143018310A31E831440018318B2
:101410000F2A43010130A80040018A31152A4301F7
:101420000530A7000230A80040018A312E2A64004E
:101430008A3143018310A31E831440018318262A96
:1014400043010330A70040018A312A2A43010130B9
:10145000A700400143010230A80040014301A6015A
:1014600040018A31D92A43012308A40664002808D0
:10147000013C8A314001031D452A43012308A7008E
:101480000230A80040018A31D92A640043012808AB
:10149000023C8A314001031DD92A4301A70364009D
:1014A0002708003C8A314001031DC62A4301A801D8
:1014B0009F30A50564002408FF3C8A314001031DCC
:1014C000C42A64004201200867028A314001031DDA
:1014D000C42A640043012508813C8A314001031D70
:1014E000A82A43012C084001C80000308031FF20A9
:1014F0004201D000290843012D02031DFF30FF3AAD
:101500004201D200500884005208400181311A2162
:101510004201D200D3006400520853048A314001D2
:101520000319A62A4301AD0A80302D054201D000DF
:10153000D1016400500851048A3140010319A32AE3
:101540004301AD0140014301AC0140018A31C42A8D
:10155000640043012508823C8A314001031DC42AEE
:1015600042012108D4002208D50040018931CC2154
:1015700042012108C600C7012308C800C901240888
:10158000DF0040019431AD248A31D92A640007304C
:10159000430126028A3140010318D92A4301260853
:1015A000203E840001308501853D23088000A60A85
:1015B00040010B13E60A64006608183C8A31031DDB
:1015C000E22AE6010B178931DC2908004301A80152
:1015D0004201FF30BA00FF30BB0040010800420169
:1015E0006E153A084001CE0042013B084001CF0091
:1015F0000230CA00CB01813142214201D0004001BA
:101600004D084201D10000305007B4000030513D78
:10161000B500FF30B600FF30B70040018531922D94
:101620000230CE00CF0142013A084001CA00420117
:101630003B084001CB00813142214201D0004001F2
:101640004D084201D10000305007B4000030513D38
:10165000B500400185314D25420136084001C800E2
:10166000420137084001C9000F308031F1204201AA
:10167000D000400149084201D10001305005031952
:101680006E11031D6E1536084001C800420137086F
:101690004001C90007308031F1204201D0004001F3
:1016A00049084201D1000F305005C60000305105F5
:1016B000C70036084001C800420137084001C90090
:1016C00003308031F1204201D0004001490842013D
:1016D000D1000F305005C80000305105C900073057
:1016E0003605CE0000303705CF004001080042012A
:1016F00046084001C800420147084001C9000730C0
:101700008031EA204201D000400149084201D10065
:1017100048084001C800420149084001C90003309F
:101720008031EA204201D200400149084201D30041
:101730005008D2075108D33D52084E07CC00530839
:101740004F3DCD004001080042013A084001CE0063
:1017500042013B084001CF000230CA00CB01813179
:1017600042214201D00040014D084201D100003029
:101770005007B4000030513DB50040018B31772354
:1017800042014C08B6004D08B70040018531922D4A
:101790004201FF30BA00FF30BB0040018B3177239C
:1017A0004201B401B5014001420134084001C800C2
:1017B000420135084001C9000730CB00CC308131EF
:1017C00001218C31031D0F2C85314D254201360836
:1017D0004001C800420137084001C90042014D08DC
:1017E0004001CB0042014C084001813108218C317D
:1017F000031D082C003042013402D0000030353B7C
:10180000D1005136BB00500CBA0040018C310F2C76
:101810004201B40A0319B50A4001031DC53308008B
:101820004201C601C7014001420146084001C8000B
:10183000420147084001C900CB010F30813101212D
:101840008C31031D9E2C4201C801C9014001420197
:1018500048084001C800420149084001C900CB01C5
:101860000F30813101218C31031D972C4201460834
:101870004001C800420147084001C90004308031DE
:10188000EA204201D000400149084201D100480845
:10189000D0074908D13D50084001CE00420151080F
:1018A0004001CF000230CA00CB0181314221420108
:1018B000D00040014D084201D100CE305007B400A5
:1018C0000730513DB500400185314D2542013608B4
:1018D0004001C800420137084001C900FF30CB0079
:1018E000FF308031F7208C31031D902C42013608E7
:1018F000CA003708CB0046084001C800420147082B
:101900004001C900420167084001813107218C3143
:10191000031D8E2C9131C4218C31902C8931902162
:101920004201C80A0319C90A4001031D903342014C
:10193000C60A0319C70A4001031D76330800420195
:1019400046084001C800420147084001C900043070
:101950008031EA204201D000400149084201D10013
:101960004808D0074908D13D50084001CE00420147
:1019700051084001CF000230CA00CB018131422121
:101980004201D00040014D084201D100CE30500745
:10199000B4000730513DB500400185314D2D8C31EB
:1019A0009F24420100303605D00080303705D10039
:1019B0006400500851048D31400103190B2D013092
:1019C000C800C90142014E0840018031EA204201AD
:1019D000D000400149084201D10050358400510D2A
:1019E0008500363084070130853D0008D0001000A6
:1019F000D1006400500851048D3140010319062DB7
:101A000043012030B70040018D31092D4301B7015A
:101A100040018D314D2D42014E084001CE00420162
:101A20004F084001CF000230CA00CB018131422172
:101A30004201D00040014D084201D100360840016A
:101A4000C800420137084001C90042015008400166
:101A50008031F1204201D000400149084201D1000B
:101A60000330D0050030D10540010130C800C90164
:101A7000420151084001CB00420150084001813130
:101A800008218D31031D4A2D43012030B70040014C
:101A90008D314D2D4301B701400108008C319F2449
:101AA000420100303605D00080303705D100640097
:101AB000500851048D3140010319B72D64004301D2
:101AC0003708003C8D314001031D7B2D0130C800DB
:101AD000C90142014E0840018031EA204201D00094
:101AE000400149084201D1005008B6045108B7042A
:101AF00040018D31B52D640043013708203C8D3104
:101B00004001031D9A2D0130C800C90142014E0851
:101B100040018031EA204201D000400149084201E1
:101B2000D100D009D1095008B6055108B7054001C8
:101B30008D31B52D640043013708803C8D31400163
:101B4000031DB52D0130C800C90142014E084001F6
:101B50008031EA204201D000400149084201D10011
:101B60005008B6065108B70640018E319A2E64001F
:101B700043013708003C8E314001031D112E420104
:101B80004E084001CE0042014F084001CF00023014
:101B9000CA00CB01813142214201D00040014D08F1
:101BA0004201D10040010330C800C9014201500880
:101BB00040018031EA204201D00040014908420141
:101BC000D100D009D1093608D0053708D1054E0813
:101BD0004001CE0042014F084001CF000230CA0050
:101BE000CB01813142214201D20040014D08420126
:101BF000D30040010230C800C9014201520840012F
:101C00008031EA204201D200400149084201D3005C
:101C100050085204B60051085304B70040018E31F9
:101C20009A2E640043013708203C8E314001031D89
:101C30006B2E42014E084001CE0042014F08400188
:101C4000CF000230CA00CB01813142214201D000D5
:101C500040014D084201D10040010330C800C901D4
:101C60004201500840018031EA204201D000400189
:101C700049084201D100D009D1093608D0053708FA
:101C8000D1054E084001CE0042014F084001CF006F
:101C90000230CA00CB01813142214201D200400111
:101CA0004D084201D30040010130C800C901420182
:101CB000520840018031EA204201D2004001490827
:101CC0004201D30050085204B60051085304B70033
:101CD00040018E319A2E640043013708803C8E31DA
:101CE0004001031D9A2E42014E084001CE004201E0
:101CF0004F084001CF000230CA00CB0181314221A0
:101D00004201D00040014D084201D10040010330A2
:101D1000C800C9014201500840018031EA20420157
:101D2000D000400149084201D1005008B6065108D0
:101D3000B70640018531922D4301FF30A2000230E9
:101D400042013C07B40000303D3DB5004301A10114
:101D5000400164002830430121028E314001031804
:101D6000DC2E85314D25FF30C800FF30C90042010F
:101D700037084001CB00420136084001813108217B
:101D80008E31031DC52E8E31DC2E4301213584009A
:101D90008501850DA03084070030853D420136085D
:101DA0001A00370880000230B4070030B53D430107
:101DB000A10A4001031DCD33640043012108003C0A
:101DC0008E3140010319E72E4301A20140010800B2
:101DD0004301A0014201CE30B4000930B5004001FA
:101DE000420134084001C800420135084001C900E1
:101DF0001930CB008030813101218F31031D212F1B
:101E000085314D25FF30C800FF30C9004201370839
:101E10004001CB00420136084001813108218F3159
:101E2000031D142F8F31212F4301A00A523042018C
:101E3000B4074001031CD4334201B50A4001031D1D
:101E4000CF3308004201FF30BE00FF30BF00CE306C
:101E5000BC000930BD0040010130430120024201B5
:101E6000D000D1010030D13B50084001CE004201EA
:101E700051084001CF005230CA00CB0181314221CC
:101E80004201D00040014D084201D100CE30D007C0
:101E90000930D13D3C084001C80042013D084001E5
:101EA000C900420151084001CB00420150084001E5
:101EB000813101218F31031D8B2F42013C08B40079
:101EC0003D08B500400185314D25420136084001ED
:101ED000C800420137084001C900420143084001DF
:101EE000CB00420142084001813108218F31031D9E
:101EF000802F42013608BE003708BF0040010800AD
:101F000052304201BC074001031CA6334201BD0A06
:101F10004001031DA133080042014008C2004108EE
:101F2000C30040018F31222742013E084001C80012
:101F300042013F084001C900FF30CB00FF30803133
:101F4000F7209031031D1F28523042013C07E80062
:101F50004001430120084001CE00CF013230CA00C9
:101F6000CB01813142214201D00040014D084201A4
:101F7000D100CE30D0070930D13D0130D002003041
:101F8000D13B68084001C800C90142015108400125
:101F9000CB00420150084001813101218F31031DE6
:101FA000E82F42016808B400B50140018431E22401
:101FB00042013C08B4003D08B500400185311F25B1
:101FC0004201BC0A0319BD0AE80A4001031DC133DE
:101FD0004201FF30DC003C08B4003D08B500400180
:101FE000523042013C07D00000303D3DD10001306D
:101FF000D0020030D13B34084001C800420135080E
:102000004001C900420151084001CB004201500883
:102010004001813101219031031D172885311F2591
:102020004201B40A0319B50A4001031DD933430123
:10203000A0034201FF30C000FF30C1004001080092
:1020400042014008C2004108C30040018F312227ED
:10205000FF30C800FF30C90042013F084001CB00FB
:1020600042013E084001813108219031031D78284A
:10207000640043012008323C90314001031D752863
:102080006930D200D3015430803107206F30803165
:1020900007206F30803107202030803107206D30DD
:1020A000803107206130803107206E308031072079
:1020B0007930803107202030803107207230803124
:1020C00007206F3080310720753080310720743051
:1020D0008031072065308031072073308031072040
:1020E0000030803107208431772C4301A00A400161
:1020F0004201E30102303C07B40000303D3DB50031
:102100004001023042013C07D00000303D3DD1008B
:102110000130430121024201D200D3010030D33B00
:1021200052084001CE00420153084001CF00023066
:10213000CA00CB01813142214201D20040014D0849
:102140004201D3005008D2075108D33D3408400162
:10215000C800420135084001C9004201530840014E
:10216000CB00420152084001813101219031031D11
:10217000D5284201633584008501850DA030840790
:102180000030853D0008B6001000B70040018531E1
:1021900092254201E30A0230B4074001031CB13327
:1021A0004201B50A4001031DAC33640028304201EE
:1021B0006302903140010318E5284201FF30B60068
:1021C000FF30B70040018531922542013C08B40040
:1021D0003D08B5004008B6004108B7004001853110
:1021E000922598315D2884313B244201DB01D901DD
:1021F0004001843141246930D200D301453080311F
:102200000720723080310720613080310720733021
:10221000803107206930803107206E3080310720FF
:1022200067308031072020308031072045308031F1
:102230000720453080310720503080310720523050
:10224000803107204F30803107204D30803107200A
:102250000030803107208331592342016E14FF3052
:10226000B600FF30B700B401B501400142013408A7
:102270004001C800420135084001C9000730CB00C9
:10228000CC30813101219131031D532985319225B3
:1022900002304201B4074001031CE8334201B50A91
:1022A0004001031DE3334201CE30B4000730B500D6
:1022B0004001420134084001C80042013508400194
:1022C000C9000930CB00CC30813101219131031D8F
:1022D00076298531922502304201B4074001031C62
:1022E000E8334201B50A4001031DE3334201FF30E8
:1022F000B600FF30B700CE30B4000930B500400161
:10230000420134084001C800420135084001C900BB
:102310001930CB008030813101219131031DA92971
:102320008531922542010230B4070030B53D4001AD
:102330008531922502304201B4020030B53B523063
:10234000B4074001031CDC334201B50A4001031D00
:10235000D73308008C319F2442013608CA00370861
:10236000CB0046084001C800420147084001C900AF
:102370004201670840018031F6209131031DC229D6
:10238000893190299131C429420148084001C8008F
:10239000420149084001C9000830CA00CB0181311F
:1023A0002A214C084201D00040014D084201D100D1
:1023B000D035D10D40305007DE00FF304A05D70040
:1023C00048084001C800420149084001C9000830DE
:1023D000CA00CB0181312A214201D00040014908C5
:1023E0004201D1004001C801C90142015108400128
:1023F000CB00420150084001813108219231031D78
:10240000712A0C30E2000030E4000130E0000C30B2
:10241000E3000030E5000230E10042015E084001C7
:1024200080313D2092310318DF2A420157084001D4
:1024300080313B2092310318DF2A420100304A05E7
:10244000D00080304B05D10050085104400181314B
:1024500025214201D0006400500892314001031947
:102460006F2A42014A084001C80042014B0840015E
:10247000C90008308031F1204201D00040014908F4
:102480004201D1000330D0050030D105FC305004AA
:10249000D70040305E02D000D1010030D13B703017
:1024A0005007DE000C304001E2000030E400013053
:1024B000E0000C30E3000030E5000230E1004201B2
:1024C0005E08400180313D2092310318DF2A42012D
:1024D0005708400180313B2092310318DF2A9231A6
:1024E000DF2A0C30E2000030E4000830E0000C305D
:1024F000E3000030E5001030E10042015E084001D9
:1025000080313D2092310318DF2A420157084001F3
:1025100080313B2092310318DF2A420100304A0506
:10252000D00080304B05D10050085104400181316A
:1025300025214201D0006400500892314001031966
:10254000DF2A42014A084001C80042014B0840010D
:10255000C90008308031F1204201D0004001490813
:102560004201D1000330D0050030D105FC305004C9
:10257000D70040305E02D000D1010030D13B703036
:102580005007DE000C304001E2000030E40008306B
:10259000E0000C30E3000030E5001030E1004201C3
:1025A0005E08400180313D2092310318DF2A42014C
:1025B0005708400180313B2092310318DF2A080080
:1025C0008B311023640042016D08023C94314001BC
:1025D000031D552C64009331420183106E1D83143A
:1025E000400183187A2B42013A08C2003B08C3001D
:1025F00040018F31222742013E084001C8004201BC
:102600003F084001C900FF30CB00FF308031F72088
:102610009331031D402B6930D200D30153308031F8
:1026200007207730803107206930803107207430EF
:1026300080310720633080310720683080310720E7
:10264000203080310720693080310720733080319D
:1026500007202030803107207230803107206F3012
:102660008031072075308031072074308031072099
:102670006530803107200030803107209331762B80
:102680006930D200D3015330803107207730803158
:102690000720693080310720743080310720633093
:1026A00080310720683080310720203080310720BA
:1026B0007530803107206E308031072064308031E2
:1026C000072065308031072066308031072069306F
:1026D000803107206E30803107206530803107203F
:1026E0006430803107200030803107208431772C1E
:1026F0009431532C4301FF30A20064002108003CB8
:10270000933140010319D12B4201E4014001013012
:10271000430121024201D000D1010030D13B6408C5
:102720004001C800C901420151084001CB004201EB
:1027300050084001813101219331031DCF2B42010B
:10274000643584008501850DA03084070030853D07
:102750000008D0001000D100FF30D0057F30D10537
:1027600050084001C800420151084001C90042011F
:102770003B084001CB0042013A0840018131082169
:102780009331031DCA2B420164084301A20040019A
:102790009331CF2B4201E40A4001031DB83393313A
:1027A000D42B4201E4014001640043012208FF3CB4
:1027B00094314001031D242C640028304301210280
:1027C00094314001031C1F2C6930D200D3015430D6
:1027D000803107206F30803107206F308031072033
:1027E0002030803107206D3080310720613080310A
:1027F00007206E308031072079308031072020306B
:1028000080310720733080310720773080310720F6
:102810006930803107207430803107206330803187
:102820000720683080310720653080310720733001
:10283000803107200030803107208431772C43011C
:102840002108A200A10A4001640043013608003CAF
:1028500094314001031D442C003042013A04D00061
:1028600080303B04D1004301223584008501850D71
:10287000A03084070030853D420150081A005108FD
:10288000800040019431532C43012235840085019E
:10289000850DA03084070030853D42013A081A00BA
:1028A0003B08800040019431AC2C6400943142011B
:1028B00083106E1D831440018318982C42013A083E
:1028C000C2003B08C30040018F31222742013E086D
:1028D0004001C80042013F084001C900FF30CB0061
:1028E000FF308031F7209431031D902C42013A08CB
:1028F000C0003B08C10040018E319C2664004201AB
:102900006D08003C94314001031D8E2C97317527D2
:1029100042014208BA004308BB0040019431962CA2
:102920004201FF30C000FF30C10040019431AC2CA7
:102930004201FF30C000FF30C10064006D08003C60
:1029400094314001031DAC2C43013608B70040010F
:102950008D314E259131AA2108004301B501400176
:102960006400083043013502953140010318F22D0F
:10297000420146084001CE00420147084001CF0015
:102980005030CA00CB01813142214201D0004001C8
:102990004D084201D10048084001CE0042014908DB
:1029A0004001CF000530CA00CB01813142214201F4
:1029B000D20040014D084201D300430135084201D5
:1029C000D2070318D30A500852074301B40040014C
:1029D0000130C800C9014301350840018031EA20B7
:1029E0004201D000400149084201D1005F08D005F2
:1029F000D101640050085104953140010319EC2DB8
:102A000042016E146E11430135084201CE00CF0120
:102A100064006D08003C95314001031D2B2D8B3166
:102A2000C82342013A084001C80042013B08400166
:102A3000C900FF30CB00FF308031F7209531031DF6
:102A4000292D43018030B70040018D314E25913151
:102A5000AA219531E42D640042016D08013C9531B5
:102A60004001031DE42D42013A084001C800420123
:102A70003B084001C900FF30CB00FF308031F72018
:102A80009531031DE42D42013A084001C80042017E
:102A90003B084001C9000330CB0084308131042160
:102AA0004201D000430135084001C80005308031A3
:102AB000FA204201D20050088400520840018131BE
:102AC0001A214201D200D300640052085304953108
:102AD00040010319962D6930D200D3015330803163
:102AE000072077308031072069308031072074302B
:102AF0008031072063308031072068308031072023
:102B00002030803107203C3080310720393080313F
:102B100007203030803107203030803107200030EE
:102B200080310720843177249531E42D420140081B
:102B30004001C800420141084001C900FF30CB00FC
:102B4000FF308031F7209531031DAE2D42013A0848
:102B5000C0003B08C10040018F318C278B31A4237A
:102B60008C319F24FF30C800FF30C9004201370874
:102B70004001CB00420136084001813108219531E6
:102B8000031DE22D42013A084001C80042013B0802
:102B90004001C9000330CB0084308031FC209531E6
:102BA000031DDA2D42015530B6000130B700400157
:102BB0009531E02D4201FF30B6008030B700400172
:102BC000853192259131AA218B31C8234201FF30F2
:102BD000C000FF30C10040014301B50A94314001FB
:102BE000031DB02C08004201E101400164000230E5
:102BF00042016102963140010318F52E420161083D
:102C0000383E840001308501853D0008D0005035F4
:102C1000D8006108003C031DFF30FF3AD0000301DB
:102C200040010C1DFF304201D200500884005208C0
:102C3000400181311A214201D200D30064005208C0
:102C400053049631400103192B2E01304201D80460
:102C5000400196314C2E42016108013C031DFF30BA
:102C6000FF3AD000030140018C1EFF304201D20028
:102C7000500884005208400181311A214201D200DB
:102C8000D3006400520853049631400103194C2EBE
:102C900001304201D804400142016108383E8400FD
:102CA00001308501853D5808800064005808FF3CCC
:102CB00096314001031DF02E4201D601400164000F
:102CC000083042015602963140010318F02E4201AD
:102CD0005635D000D101D10D70305007DE006400B0
:102CE0006108003C96314001031D942E0C30E20037
:102CF0000030E4000130E0000C30E3000030E5007B
:102D00000230E10042015E08400180313D209631F1
:102D10000318EB2E8031112096310318EB2E42015F
:102D2000DF0040019631B82E640042016108013C89
:102D300096314001031DB82E0C30E2000030E40053
:102D40000830E0000C30E3000030E5001030E10016
:102D500042015E08400180313D2096310318EB2E80
:102D60008031112096310318EB2E4201DF00400123
:102D700042015F09D000FF30D10050084001C80077
:102D8000420151084001C90003308031F120420165
:102D9000D000400149084201D1001F305005DF003A
:102DA00061084001CE00CF010830CA00CB0181315B
:102DB00042214201D00040014D084201D100560895
:102DC0005007C8000301513DC9006708C600C7018C
:102DD00040019431AD244201D60A4001031D6F33F6
:102DE0004201E10A4001031D0133080042010F3096
:102DF000E700400198318A2042016E154001080029
:102E0000640043012208FF3C973140010319742FED
:102E1000640043012108013C97314001031D162F36
:102E20004301FF30A20040019731712F013043016F
:102E300021024201D000D1010030D13B50084001B5
:102E4000C800420151084001C90043012208400165
:102E5000813107219731031D322F4301A203400125
:102E60009731712F430122084201E40040010230F2
:102E7000430121024201D000D1010030D13B64085E
:102E80004001C800C901420151084001CB00420184
:102E900050084001813101219731031D712F01300C
:102EA00042016407D000D101D10D50358400510D8D
:102EB0008500A03084070030853D0008D000100058
:102EC000D100643584008501850DA0308407003071
:102ED000853D50081A0051088000E40A4001031D96
:102EE000C6334301A10340010800640043012108E7
:102EF000003C973140010319E12F4201E5014001F7
:102F00000130430121024201D000D1010030D13B08
:102F100065084001C800C901420151084001CB00C9
:102F2000420150084001813101219731031DE12FF9
:102F30004201653584008501850DA030840700308D
:102F4000853D0008D0001000D100FF305005BA00C8
:102F50007F305105BB0040018B3110236400973155
:102F6000420183106E19831440018318DC2F420143
:102F7000653584008501850DA03084070030853DCE
:102F80000008D0001000D1000030D0058030D105FD
:102F9000640050085104973140010319D42F4301B4
:102FA000B70140019731D82F43012030B7004001CD
:102FB0008D314E259131AA214201E50A4001031DC0
:102FC0009F33080043012208FF3C031DFF304201EC
:102FD000D00043012208003C031DFF304201D20013
:102FE000500884005208400181311A214201D20068
:102FF000D300640052085304983140010319162885
:103000004301A203223584008501850DA030840789
:103010000030853D00084201D0001000D100FF3093
:103020005005BA007F305105BB0040010800430144
:103030002208FF3C031DFF304201D0000130430154
:1030400021024201D200D3010030D33B43012208C8
:103050004001C800C901420153084001CB004201B0
:1030600052084001813104214201D20050088400FD
:103070005208400181311A214201D200D30064007C
:10308000520853049831400103195C284301A20AF5
:10309000223584008501850DA03084070030853DF0
:1030A00000084201D0001000D100FF305005BA00E6
:1030B0007F305105BB004001080042014008BA00C2
:1030C0004108BB004008C2004108C30040018F31E5
:1030D0002227FF30C800FF30C90042013F084001ED
:1030E000CB0042013E084001813108219831031D87
:1030F00081284201FF30C000FF30C10040019831FB
:1031000083288E319C2608004301FF30A200A101D4
:10311000400108004201FF30C000FF30C100400103
:103120008E31E82E4201DB01D90140018431412476
:10313000640042016D08023C993140010319FD29E8
:1031400042013A084001C80042013B084001C90061
:10315000FF30CB00FF308031F7209831031DCC28A1
:103160006930D200D301D101013042013A07D000C9
:1031700000303B3DD10050084001CC0042015108D5
:103180004001CD000630D800D90180319C200030AC
:10319000803107209831DB286930D200D3013F30DD
:1031A000803107203F30803107203F3080310720B9
:1031B00000308031072083315923FF30C800FF30B1
:1031C000C900420141084001CB00420140084001D2
:1031D000813108219931031D9629640042016D084F
:1031E000003C99314001031D3429640099314201AA
:1031F00083106E1D8314400183180C296930D2009E
:10320000D3013D30803107203F308031072000302E
:1032100080310720993130298C31CF24640043015B
:103220003708003C99314001031D24296930D20040
:10323000D3013D30803107205430803107200030E9
:1032400080310720993130296930D200D3013D30D7
:103250008031072043308031072000308031072043
:103260008331592399319429640042016D08013C4E
:1032700099314001031D9429640099314201831062
:103280006E1D83144001831859296930D200D3017F
:103290003E30803107203F30803107203F30803181
:1032A00007203F30803107200030803107209931DE
:1032B00092296930D200D3013E3080310720D101FC
:1032C000420146084001CC00420147084001CD00C0
:1032D0000630D800D90180319C202E308031072063
:1032E000D101420148084001CC0042014908400197
:1032F000CD000630D800D90180319C202E3080319D
:103300000720D10142014E084001CC0042014F0884
:103310004001CD000630D800D90180319C2000301A
:1033200080310720833159239931B0296930D20087
:10333000D3013E30803107205230803107204F309A
:1033400080310720553080310720543080310720EC
:1033500045308031072000308031072083315923E8
:103360008331422342010130DB00D9014001843125
:103370004124640042016D08013C99314001031D64
:10338000F9296930D200D30144308031072045301B
:10339000803107204C3080310720203080310720D9
:1033A0005230803107205430803107204530803141
:1033B0000720203080310720203080310720203046
:1033C00080310720203080310720453080310720B0
:1033D0005230803107204130803107205330803116
:1033E00007204530803107200030803107208331AD
:1033F0005923833142239A31B82A640043012108BA
:10340000003C9A314001031D1C2A6930D200D301CF
:103410003F30803107203F30803107203F308031FE
:1034200007203D30803107203F30803107200030B9
:10343000803107209A31792A6930D200D301D10135
:103440004301223584008501850DA03084070030BA
:10345000853D00084201D0001000D100FF30D005AA
:103460007F30D105D00A0319D10A50084001CC00A1
:10347000420151084001CD000630D800D901803109
:103480009C200030803107208331592343012235AD
:1034900084008501850DA03084070030853D00083B
:1034A0004201D0001000D1000030D0058030D1059D
:1034B0006400500851049A31400103196D2A6930A3
:1034C000D200D3013D3080310720543080310720B5
:1034D0000030803107209A31792A6930D200D30137
:1034E0003D3080310720433080310720003080316B
:1034F0000720833159238331422342010130DB000D
:10350000D9014001843141246930D200D3015530C2
:103510008031072050308031072020308031072053
:1035200020308031072044308031072057308031EF
:1035300007204E308031072020308031072059305D
:1035400080310720453080310720533080310720FB
:103550002030803107204E30803107204F308031BD
:1035600007200030803107208331592383314223E3
:103570009A31D22A42010130D9000F30D9004001DE
:10358000843141246930D200D301203080310720BA
:103590000030803107208331592B0130CB0090302F
:1035A0008031D0204201DB010F30D900400184314D
:1035B0004124640042016D08003C9A314001031D22
:1035C000EC2A6930D200D3014F308031072000301F
:1035D000803107209B31102B640042016D08013CB3
:1035E0009A314001031DFF2A6930D200D3015030C7
:1035F000803107200030803107209B31102B640080
:1036000042016D08023C9B314001031D102B6930C3
:10361000D200D301523080310720003080310720A2
:103620008331592B640042016D08003C9B314001FD
:103630000319272B640042016D08023C9B314001B5
:10364000031D242B98315D204201ED01400108004B
:10365000640042016D08003C9B314001031D342B86
:1036600042010130ED0040010800640042016D0894
:10367000013C9B314001031D412B9B31922B9B311F
:103680004B2B640042016D08023C9B314001031D3D
:103690004B2B9B31F02B0800640042016D08013C6C
:1036A0009B314001031D582B9B31CA2B9B31622B50
:1036B000640042016D08023C9B314001031D622BF6
:1036C0009B31F22B0800640042016D08023C9B31E3
:1036D0004001031D6D2B9B31F42B08006400420157
:1036E0006D08023C9B314001031D782B9B31FA2B66
:1036F0000800640042016D08023C9B314001031D3B
:10370000852B9B31FC239B318F2B640042016D087C
:10371000013C9B314001031D8F2B9031F3208731F9
:103720006C2F0800FF30C800FF30C90042013B0881
:103730004001CB0042013A084001813108219B3110
:10374000031DA32B0800420140084001C8004201AC
:1037500041084001C900FF30CB00FF308031F72025
:103760009B31031DBD2B42013A08C0003B08C1003C
:1037700040018F318C279B31C92B64009B31420162
:1037800083106E1D831440018318C72B08008A31F3
:10379000EF220800FF30C800FF30C90042013B089B
:1037A0004001CB0042013A084001813108219B31A0
:1037B000031DDB2B080064009B31420183106E194E
:1037C000831440018318E62B8A31EF224201023034
:1037D000ED003A08C0003B08C10040018E319C2E2C
:1037E0009731E22F9831172842010130ED00400156
:1037F000903120289731002F42010130ED00400127
:1038000098315D2884318824883152208A31E6221B
:103810009631F62664009C310E1E142C42010130B4
:10382000ED0040019C31172C4201ED0140014201A5
:103830006E144001823121220330CB00E830803108
:10384000D0208C311024873170278931DC218B13F3
:1038500068084201E2004001E8018B176400420160
:1038600062089C3140010319392C9531F3258531CB
:10387000F42564009C31420183106E1C83144001C6
:103880008318472C9831922042016E104001DB339F
:043890006300FE33A0
:020000040001F9
:02000E00883B2D
:080010007D37BF07FF1FFF3F12
:00000001FF
