:020000040000FA
:06000000006A06EF01F0AA
:0800080039EF01F00A6EF80B5C
:10001000E830E830E830E926D8B0EA2A90EC00F081
:100020000A6EEF1403EF01F00A50D8A0E86AEF1847
:100030000A14EF1A03EF01F0008A00AA009A00B632
:1000400003D0008644D827E2080E056E54D8043643
:10005000052EFCD700AA2ED85CD855D800BA1BD8DC
:1000600021D80450D89003EF01F0008A00AA009A2A
:1000700000B405D0FE0B016E0084D8900AD000B801
:1000800005D0086E008823D806E2085027D803E27E
:1000900000AA03EF01F00ED83CD800940098009617
:1000A00001D8F7D71CC0EAFF1A3CE96EE98818505E
:1000B000EC1208D01CC0EAFF1AC0E9FF181CEE16AB
:1000C000E988EC16040E026E022EFED71200EADF5B
:1000D00020D8F0DF18D8015000B60109046E080ED0
:1000E000056E0436D8B0DEDFD8A0E4DF12D80BD816
:1000F000052EF7D7D7DF0DD81CC0EAFF1AC0E9FFDD
:100100001850EF14FF0F1DC0EAFF1BC0E9FF191CB8
:10011000D6D71DC0EAFF1B3CE96EE9881950C8D745
:10012000010E0AB0E8440AB2E8440AB2E8440AB44C
:10013000E8381200D89002360336FF0FFBE2025077
:1001400003EF01F0D89003320232FF0FFBE20250BE
:1001500003EF01F0036A056A046E010E02D0046E1B
:10016000050E0A6E0550035C02E10450025C040EA9
:10017000D8B0010ED8B4020E0A14D8A4FF0E03EFB3
:1001800001F0E866FF0E0214D8A4FF0E03EF01F0A1
:10019000E866FF0EFF0A03EF01F0076A066A100E19
:1001A000086E0334063607360450065E0550075ABB
:1001B00005E20450062605500722D8900236033681
:1001C000082EEFD7025003EF01F004500802F3CFDE
:1001D00006F0F4CF07F005500902F3CF02F0F4CF98
:1001E00003F00802F3500726F4500222E86A0322C3
:1001F00004500902F3500726F4500222E86A032251
:10020000065003EF01F0000104001200E968EA6AF9
:10021000ED6AE950EA10FCE1EF6A7E6A7F6A700ECF
:10022000D36E040E926E2F0E936EFC0E946E040E1F
:10023000776E240EAC6E080EB86EB06A210EAF6EEB
:1002400004009EAA27EF01F00F01AE50F9D79E9847
:10025000AB8E9D8AAB88D768D66A460ED56EF2946F
:10026000F28A37EF01F0D58EF28CF28E12006BEF2E
:1002700005F0E06AE950616FEA50606F0F019EAAD5
:1002800026D00F01ABA404D0AE50AB9EAB8E1FD0D6
:10029000ABA203D0AB98AB881AD0E06A6351650F6C
:1002A000E96EEA6A6351010F625DD8A403D00F01C1
:1002B000AE50E4D76351010F636F1808D8A402D081
:1002C000000E636F0F01AE50E06AEF6ED7D70F01DB
:1002D000F2A404D0F294E06A010E646FE06A615106
:1002E000E96E6051EA6E1100346A0400010E345C5C
:1002F000D8B087EF01F0800EE96E0F0EEA6E345031
:10030000050F84DED88090DE342AD8A0EED7120004
:100310003650350FE96E000EEA6AEA220A0EEF6ED9
:10032000800EE96E0F0EEA6E3650050F6FDED89024
:100330007BDE1200346A0400010E345CD8B0DDEFBD
:1003400001F03450350FE96E000EEA6AEA22EFCF71
:1003500014F004001450D8B4DAEF01F03450350F23
:10036000E96E000EEA6AEA22EFCF14F01404146E6C
:10037000156A000E155A3450350FE96E000EEA6A00
:10038000EA2214C0EFFF3450350FE96E000EEA6A1E
:10039000EA22EFCF14F0040014500008D8A4DAEFDA
:1003A00001F0800EE96E0F0EEA6E3450050F2EDE5E
:1003B000D8803ADE342AD8A0BED7120024C002F07A
:1003C00025C003F0080E046E056AE7DE06C014F0CF
:1003D00007C015F0D89014361536400E14242F6E31
:1003E000FF0E26142D6E24C002F025C003F0080E67
:1003F000046E056AD2DE146E03C015F0026A036A49
:1004000015C005F01450ABDED8A45FEF02F0810EEA
:100410001A6E0F0E1C6E400E186E810E1B6E0F0EA4
:100420001D6E100E196E2F5022DED8B0B7EF02F0FD
:100430002D501BDED8B0B7EF02F0000E2614146E5C
:10044000800E2714156E14501510A2DE146E0400D1
:100450001450D8B45DEF02F026C002F027C003F0BC
:10046000080E73DE146E03C015F0030E1416000E92
:100470001516FC0E14102D6E400E2F5C146E156AAE
:10048000000E155A700E14242F6E810E1A6E0F0E68
:100490001C6E400E186E810E1B6E0F0E1D6E100E20
:1004A000196E2F5037EC00F0D8B0B7EF02F02D5096
:1004B00035EC00F0D8B0B7EF02F0B7EF02F0820EE3
:1004C0001A6E0F0E1C6E020E186E820E1B6E0F0E31
:1004D0001D6E010E196E2F5037EC00F0D8B0B7EF3B
:1004E00002F02D5035EC00F0D8B0B7EF02F0000E5E
:1004F0002614146E800E2714156E1450151048DE45
:10050000146E04001450D8B4B7EF02F026C002F005
:1005100027C003F0080E19DE146E03C015F0030E99
:100520001416000E1516FC0E14102D6E400E2F5CC6
:10053000146E156A000E155A700E14242F6E820E5A
:100540001A6E0F0E1C6E020E186E820E1B6E0F0EB0
:100550001D6E010E196E2F5037EC00F0D8B0B7EFBA
:1005600002F02D5035EC00F0D8B0B7EF02F01200D9
:10057000326A0400020E325CD8B09FEF03F03250B2
:100580001E0FE96E000EEA6AEA22EFCF14F0D8904F
:1005900014342E6E32500008D8A4E868FF0A146E96
:1005A000E86A82A4E868166E14C002F01650C1EC26
:1005B00000F0166E176E040016501710D8B4E5EF51
:1005C00002F0010E2E12FEEF02F032500108D8A404
:1005D000E868FF0A146EE86A80A4E868166E14C022
:1005E00002F01650C1EC00F0166E176E04001650A3
:1005F0001710D8B4FEEF02F0010E2E1232501E0F6B
:10060000E96E000EEA6AEA222EC0EFFF04002E50C7
:10061000FF08D8A49CEF03F02C6A0400080E2C5CA1
:10062000D8B09CEF03F0D8902C34146E156A1536B0
:10063000700E14242F6E040032500008D8A43BEF33
:1006400003F0810E1A6E0F0E1C6E400E186E810E96
:100650001B6E0F0E1D6E100E196E2F5037EC00F032
:10066000D8B099EF03F01CEC00F0D8B099EF03F08C
:10067000306E59EF03F0040032500108D8A459EF4E
:1006800003F0820E1A6E0F0E1C6E020E186E820E92
:100690001B6E0F0E1D6E010E196E2F5037EC00F001
:1006A000D8B099EF03F01CEC00F0D8B099EF03F04C
:1006B000306E301C146E156814C002F015C003F0C3
:1006C000030EA5EC00F0146E03C015F01F0E1414F9
:1006D000306E04003050D8B491EF03F0366A18DE63
:1006E00032C008F0096A080E046E056AE5EC00F0F5
:1006F000146E07C015F02C501424246EE86A1520DF
:10070000256E24507D0FE96E000E2520EA6EEFCF96
:1007100014F004001450305CD8B491EF03F074EC82
:1007200004F024507D0FE96E000E2520EA6E30C0E3
:10073000EFFF2C2AD8A071D7322AD8A01AD71200DE
:10074000000E82BE010E026E030E9DEC00F0376EAD
:10075000000E82BC010E026E036A020E9DEC00F0D8
:10076000146E03C015F014503726000E82BA010E25
:10077000026E036A010E9DEC00F0146E03C015F0CA
:1007800014503726375082B8010F376E120004001C
:100790009EB8CCEF03F0FBD71200808804003F50D6
:1007A0000008D8A4D8EF03F0409C409AEEEF03F085
:1007B00004003F500108D8A4E2EF03F0409C408AB7
:1007C000EEEF03F004003F500408D8A4ECEF03F070
:1007D000408C409AEEEF03F0408C408AD8DF40C056
:1007E000ADFF40C03EF0000E40BC010E026E000E98
:1007F00040BA010EC1EC00F0146E156E04001450E6
:100800001510D8B40DEF04F0C2DF3F28AD6E3F28BD
:10081000146E156A153614503E1A316A3F04146E70
:10082000156A000E155A31C002F0036A15C005F0B2
:100830001450ACEC00F0D8A434EF04F0A8DF315031
:100840004C0FE96E000EEA6AEA22EFCFADFF31509D
:100850004C0FE96E000EEA6AEA22EFCF14F0145052
:100860003E1A312AD8A0DAD792DFFF0E3E18AD6EBD
:100870008EDF0400ACB23EEF04F0FBD7809812008C
:10088000060E416E8ADF040041500008D8B473EFB1
:1008900004F08FEC04F0040041500008D8B472EF6B
:1008A00004F0F29E64C044F0646BF28E0400445085
:1008B000D8B472EF04F0432A010E4314146E156A83
:1008C000026A036A15C005F01450AFEC00F0D8A41A
:1008D00072EF04F04106040041500008D8B472EFF2
:1008E00004F05BDFD0D71200820E406E0F0E4C6E0C
:1008F00037C04DF042C04EF024C04FF01F0E3014F0
:10090000506E050E3F6EBCD7810E406E2AC04CF073
:1009100037C04DF02BC04EF0030E3F6E3ED70400A3
:100920006251635DD8B466EF05F06251650FE96E00
:10093000000EEA6AEA22EFCF38F0040038AEC6EFC4
:1009400004F038C03AF038C039F0040038ACB7EFE2
:1009500004F0040038AAB1EF04F0010E3D6EB5EFCB
:1009600004F0050E3C6E020E3D6EC3EF04F0040071
:1009700038AABFEF04F0030E3C6EC1EF04F0010E85
:100980003C6E020E3D6E3B6A5BEF05F03850391A43
:1009900004003D500108D8A4D4EF04F038C03CF066
:1009A000020E3D6E5BEF05F004003D500208D8A436
:1009B0005BEF05F03C0604003C500008D8A44CEF67
:1009C00005F03D6A9F0E3A1604003950FF08D8A47E
:1009D0004AEF05F004004550375CD8A44AEF05F013
:1009E00004003A508108D8A41EEF05F041C002F07F
:1009F000000EAAEC00F0146E4E50425CD8A4E868D9
:100A0000FF0A166E14C002F01650C1EC00F0166E0C
:100A1000176E040016501710D8B41CEF05F0422AC8
:100A2000800E4214146E156A040014501510D8B4C8
:100A30001BEF05F0426A416A4AEF05F004003A50A4
:100A40008308D8A44AEF05F048C024F0256A49C0BD
:100A500002F0036A0E0E9DEC00F0146E03C015F058
:100A60004AC002F0036A070E9DEC00F0166E03C048
:100A700017F014501626155017224B501624266EC8
:100A8000E86A1720276EDEEC01F046C02AF047C066
:100A90002BF03ADF5BEF05F00400070E3B5CD8B0AB
:100AA0005BEF05F03B50450FE96E000EEA6AEA2263
:100AB00038C0EFFF3B2AF29C622B040062511808F9
:100AC000D8A464EF05F0626BF28C29D712003D6A5E
:100AD00020682168120074EC01F0F9DF31DE33EC9C
:100AE00001F01DDFF29E64C033F0646BF28E0400EF
:100AF0003350D8B480EF05F0B8EC02F09AEC01F076
:060B0000F0D70300FED750
:020000040030CA
:03000100281F12A3
:020005008081F8
:0600080003C003E0034009
:00000001FF
