:020000040000FA
:06000000006A01EF01F0AF
:0800080034EF01F00A6EF80B61
:10001000E830E830E830E926D8B0EA2A90EC00F081
:100020000A6EEF14FEEF00F00A50D8A0E86AEF184D
:100030000A14EF1AFEEF00F0008A00AA009A00B638
:1000400003D0008644D827E2080E056E54D8043643
:10005000052EFCD700AA2ED85CD855D800BA1BD8DC
:1000600021D80450D890FEEF00F0008A00AA009A30
:1000700000B405D0FE0B016E0084D8900AD000B801
:1000800005D0086E008823D806E2085027D803E27E
:1000900000AAFEEF00F00ED83CD80094009800961D
:1000A00001D8F7D71CC0EAFF1A3CE96EE98818505E
:1000B000EC1208D01CC0EAFF1AC0E9FF181CEE16AB
:1000C000E988EC16040E026E022EFED71200EADF5B
:1000D00020D8F0DF18D8015000B60109046E080ED0
:1000E000056E0436D8B0DEDFD8A0E4DF12D80BD816
:1000F000052EF7D7D7DF0DD81CC0EAFF1AC0E9FFDD
:100100001850EF14FF0F1DC0EAFF1BC0E9FF191CB8
:10011000D6D71DC0EAFF1B3CE96EE9881950C8D745
:10012000010E0AB0E8440AB2E8440AB2E8440AB44C
:10013000E8381200D89002360336FF0FFBE2025077
:10014000FEEF00F0D89003320232FF0FFBE20250C4
:10015000FEEF00F0036A056A046E010E02D0046E21
:10016000050E0A6E0550035C02E10450025C040EA9
:10017000D8B0010ED8B4020E0A14D8A4FF0EFEEFB8
:1001800000F0E866FF0E0214D8A4FF0EFEEF00F0A8
:10019000076A066A100E086E0334063607360450E6
:1001A000065E0550075A05E2045006260550072250
:1001B000D89002360336082EEFD70250FEEF00F03B
:1001C00004500802F3CF06F0F4CF07F005500902FF
:1001D000F3CF02F0F4CF03F00802F3500726F450F7
:1001E0000222E86A032204500902F3500726F45061
:1001F0000222E86A03220650FEEF00F0000104002C
:100200001200E968EA6AED6AE950EA10FCE1EF6A77
:100210007E6A7F6A700ED36E040E926E2F0E936EFE
:10022000FC0E946E040E776E240EAC6E080EB86E43
:10023000B06A210EAF6E04009EAA22EF01F00F01FA
:10024000AE50F9D79E98AB8E9D8AAB88D768D66A98
:10025000460ED56EF294F28A32EF01F0D58EF28C12
:10026000F28E1200F7EF05F0E06AE950616FEA5094
:10027000606F0F019EAA26D00F01ABA404D0AE5030
:10028000AB9EAB8E1FD0ABA203D0AB98AB881AD07D
:10029000E06A6351650FE96EEA6A6351010F625DBE
:1002A000D8A403D00F01AE50E4D76351010F636FA0
:1002B0001808D8A402D0000E636F0F01AE50E06A98
:1002C000EF6ED7D70F01F2A404D0F294E06A010ECA
:1002D000646FE06A6151E96E6051EA6E1100366A3E
:1002E0000400010E365CD8B082EF01F0800EE96E9A
:1002F0000F0EEA6E3650050F89DED88095DE362A5D
:10030000D8A0EED712003850370FE96E000EEA6A17
:10031000EA220A0EEF6E800EE96E0F0EEA6E38507A
:10032000050F74DED89080DE1200366A0400010EDC
:10033000365CD8B0D8EF01F03650370FE96E000EBA
:10034000EA6AEA22EFCF14F004001450D8B4D5EFD3
:1003500001F03650370FE96E000EEA6AEA22EFCF5D
:1003600014F01404146E156A000E155A3650370F27
:10037000E96E000EEA6AEA2214C0EFFF3650370F2A
:10038000E96E000EEA6AEA22EFCF14F0040014507E
:100390000008D8A4D5EF01F0800EE96E0F0EEA6ECA
:1003A0003650050F33DED8803FDE362AD8A0BED7C0
:1003B0001200010E2814146E000E2914156E04008C
:1003C00014501510D8B4F3EF01F0010E026E036A59
:1003D0002650B3DE146E03C015F014501E121550D3
:1003E0001F1201EF02F0010E026E036A2650A5DE15
:1003F000146E03C015F0141E151E14501E16155051
:100400001F1626C002F027C003F0080E046E056A0E
:10041000BFDE06C014F007C015F0D89014361536AC
:10042000400E1424316E26C002F027C003F0080EDF
:10043000046E056AADDE146E03C015F0026A036A2D
:1004400015C005F014508BDED8A4ABEF02F0010EFE
:100450002814146E000E2914156E04001450151083
:10046000D8B454EF02F028C002F029C003F0080EFF
:100470006CDE2F6E810E1A6E0F0E1C6E400E186E03
:10048000810E1B6E0F0E1D6E100E196E315037EC63
:1004900000F0D8B030EF03F02F5035EC00F0D8B0BA
:1004A00030EF03F0A9EF02F028C002F029C003F0FA
:1004B000060E4BDE146E03C015F0FF0E14142F6EE3
:1004C000810E1A6E0F0E1C6E400E186E810E1B6E82
:1004D0000F0E1D6E100E196E315037EC00F0D8B0B3
:1004E00030EF03F02F5035EC00F0D8B030EF03F0D0
:1004F00028C002F029C003F00E0E27DE146E03C0E0
:1005000015F0030E1416000E1516FC0E14102F6EA7
:10051000400E315C146E156A000E155A700E1424CC
:10052000316E810E1A6E0F0E1C6E400E186E810E0B
:100530001B6E0F0E1D6E100E196E315037EC00F051
:10054000D8B030EF03F02F5035EC00F0D8B030EFDA
:1005500003F030EF03F0010E2814146E000E29147E
:10056000156E040014501510D8B4D9EF02F028C04D
:1005700002F029C003F0080EA5EC00F02F6E820EE9
:100580001A6E0F0E1C6E020E186E820E1B6E0F0E70
:100590001D6E010E196E315037EC00F0D8B030EFFF
:1005A00003F02F5035EC00F0D8B030EF03F030EF0F
:1005B00003F028C002F029C003F0060EA5EC00F0FD
:1005C000146E03C015F0FF0E14142F6E820E1A6EF7
:1005D0000F0E1C6E020E186E820E1B6E0F0E1D6E1D
:1005E000010E196E315037EC00F0D8B030EF03F047
:1005F0002F5035EC00F0D8B030EF03F028C002F0F7
:1006000029C003F00E0EA5EC00F0146E03C015F027
:10061000030E1416000E1516FC0E14102F6E400E4D
:10062000315C146E156A000E155A700E1424316E6A
:10063000820E1A6E0F0E1C6E020E186E820E1B6E4C
:100640000F0E1D6E010E196E315037EC00F0D8B050
:1006500030EF03F02F5035EC00F0D8B030EF03F05E
:100660001200346A0400020E345CD8B025EF04F0A6
:100670003450200FE96E000EEA6AEA22EFCF14F040
:10068000D8901434306E34500008D8A4E868FF0ABB
:10069000146EE86A82A4E868166E14C002F0165060
:1006A000C1EC00F0166E176E040016501710D8B487
:1006B0005EEF03F0010E301277EF03F034500108C3
:1006C000D8A4E868FF0A146EE86A80A4E868166E89
:1006D00014C002F01650C1EC00F0166E176E040044
:1006E00016501710D8B477EF03F0010E30123450C3
:1006F000200FE96E000EEA6AEA2230C0EFFF040024
:100700003050FF08D8A422EF04F02E6A0400080E2F
:100710002E5CD8B022EF04F0D8902E34146E156AF7
:100720001536700E1424316E040034500008D8A41D
:10073000B4EF03F0810E1A6E0F0E1C6E400E186E91
:10074000810E1B6E0F0E1D6E100E196E315037ECA0
:1007500000F0D8B01FEF04F01CEC00F0D8B01FEF91
:1007600004F0326ED2EF03F0040034500108D8A434
:10077000D2EF03F0820E1A6E0F0E1C6E020E186E70
:10078000820E1B6E0F0E1D6E010E196E315037EC6E
:1007900000F0D8B01FEF04F01CEC00F0D8B01FEF51
:1007A00004F0326E34C008F0096A080E046E056A5F
:1007B000E0EC00F0146E07C015F02E501424266EE5
:1007C000E86A1520276E010E026E036A26509DEC22
:1007D00000F0146E03C015F01E5014161F501516AD
:1007E000040014501510D8B4F9EF03F0321EFFEFD7
:1007F00003F0321C146E1568F80E1414326E0400E7
:100800003250D8B417EF04F0386A83EC01F0265068
:100810007D0FE96E000E2720EA6EEFCF14F0040082
:100820001450325CD8B417EF04F0F4EC04F0265006
:100830007D0FE96E000E2720EA6E32C0EFFF2E2AF0
:10084000D8A064D7342AD8A00DD71200000E82BEDB
:10085000010E026E030E9DEC00F0396E000E82BC9C
:10086000010E026E036A020E9DEC00F0146E03C0CE
:1008700015F014503926000E82BA010E026E036A7A
:10088000010E9DEC00F0146E03C015F014503926D3
:10089000395082B8010F396E120004009EB852EF31
:1008A00004F0FBD712008088040041500008D8A44F
:1008B0005EEF04F0429C429A74EF04F00400415051
:1008C0000108D8A468EF04F0429C428A74EF04F057
:1008D000040041500408D8A472EF04F0428C429AFC
:1008E00074EF04F0428C428AD8DF42C0ADFF42C0B0
:1008F00040F0000E42BC010E026E000E42BA010E24
:10090000C1EC00F0146E156E040014501510D8B42C
:1009100093EF04F0C2DF4128AD6E4128146E156AD2
:1009200015361450401A336A4104146E156A000ECD
:10093000155A33C002F0036A15C005F01450ACEC30
:1009400000F0D8A4BAEF04F0A8DF33504E0FE96EE0
:10095000000EEA6AEA22EFCFADFF33504E0FE96E88
:10096000000EEA6AEA22EFCF14F01450401A332A3C
:10097000D8A0DAD792DFFF0E4018AD6E8EDF0400EC
:10098000ACB2C4EF04F0FBD780981200060E436EA1
:100990008ADF456A040043500008D8B4F3EF04F03E
:1009A0001BEC05F0040043500008D8B4F2EF04F04B
:1009B000F29E64C046F0646BF28E04004650D8B4D8
:1009C000F2EF04F0452A040045500A08D8A4F2EFDB
:1009D00004F04306040043500008D8B4F2EF04F0DA
:1009E00062DF456AD7D71200820E426E0F0E4E6E3E
:1009F00039C04FF044C050F026C051F0800E321480
:100A0000146E156A14C002F015C003F0070EA5ECB1
:100A100000F0526E7F0E3214536E060E416EB6D742
:100A2000810E426E2CC04EF039C04FF02DC050F0F8
:100A3000030E416E38D704006251635DD8B4F2EF03
:100A400005F06251650FE96E000EEA6AEA22EFCF07
:100A50003AF004003AAE52EF05F03AC03CF03AC02A
:100A60003BF004003AAC43EF05F004003AAA3DEF36
:100A700005F0010E3F6E41EF05F0050E3E6E020ED1
:100A80003F6E4FEF05F004003AAA4BEF05F0030E5E
:100A90003E6E4DEF05F0010E3E6E020E3F6E3D6A5A
:100AA000E7EF05F03A503B1A04003F500108D8A484
:100AB00060EF05F03AC03EF0020E3F6EE7EF05F042
:100AC00004003F500208D8A4E7EF05F03E060400FA
:100AD0003E500008D8A4D8EF05F03F6A9F0E3C16A0
:100AE00004003B50FF08D8A4D6EF05F0040047509F
:100AF000395CD8A4D6EF05F004003C508108D8A496
:100B0000AAEF05F043C002F0000EAAEC00F0146E4C
:100B10005050445CD8A4E868FF0A166E14C002F076
:100B20001650C1EC00F0166E176E04001650171028
:100B3000D8B4A8EF05F0442A800E4414146E156A48
:100B4000040014501510D8B4A7EF05F0446A436AA6
:100B5000D6EF05F004003C508308D8A4D6EF05F08A
:100B60004AC026F0276A4BC002F0036A0E0E9DECC5
:100B700000F0146E03C015F04CC002F0036A070EBB
:100B80009DEC00F0166E03C017F014501626155099
:100B900017224D501624286EE86A1720296ED9ECCA
:100BA00001F048C02CF049C02DF03ADFE7EF05F026
:100BB0000400070E3D5CD8B0E7EF05F03D50470F4D
:100BC000E96E000EEA6AEA223AC0EFFF3D2AF29C83
:100BD000622B040062511808D8A4F0EF05F0626B94
:100BE000F28C29D712003F6A2268236812006FEC4A
:100BF00001F0F9DF2BDE2EEC01F01DDFF29E64C068
:100C000035F0646BF28E04003550D8B40CEF06F06A
:0E0C100031EC03F095EC01F0F0D70300FED7B5
:020000040030CA
:03000100281F12A3
:020005008081F8
:0600080003C003E0034009
:00000001FF
