:020000040000FA
:04000000D601642998
:080008008231852A0408C400BE
:100010004E0884004F08850044088000CE0A03146F
:100020006129D616D61ED612D6191A28D6156B20D7
:10003000031852280830C7008020C60DC70B1C28A3
:10004000D61E5F208E208820D61A522057204608C0
:10005000031061295617561F561386004D080310CA
:10006000031D3528561B5228612916003D20031810
:100070006129CD032E28D616D61ED612561945282C
:10008000FE39D900561503106129561A4D28CA00A9
:1000900056166B20031852284A087320031852285A
:1000A000D61E61295F208E2056115612D611610886
:1000B00085005F08840005315D08800467286108B9
:1000C00085005F0884005D0980050531800568288A
:1000D00069286A28612957208E2063215F208820A3
:1000E0005908D6190138C6000830C700C60D0318D4
:1000F0005720031C5F208E208820C70B76285720AE
:100100008E20610885005F0884005D080005FF3EC1
:1001100062088500600884005E0964286208850022
:10012000600884005E085D28C800CD0803196129B5
:1001300048085C21CD039628D9134D080319D91717
:100140000430CC00490EA9204908A920480EA92056
:1001500048080F39F63E0318073E0A3ECC28D9134B
:100160004D080319D9170530CC002730C7001030CF
:10017000C5200330C700E830C520C7016430C52062
:10018000C7010A30C5204808CC28C6004908C50068
:100190004808C40030214408C400CC030319D91313
:1001A0004D080319D6284C02031808004408031D03
:1001B000D913D91B0800303E5C2980010131090B9D
:1001C000FC336129C701C600FF30C607031CC707FF
:1001D000031C61290330C500E730F020E428C50185
:1001E000C4000000023064000310C43B0301C53B9F
:1001F0000318F3280800C435C50DFF3E0318FB287B
:1002000044086129C60002301529C501C701C6008E
:1002100003301529C60001301529C60006301529FE
:10022000C60004301529C6000530CC004708450239
:10023000031D1C2946084402043003180130031929
:1002400002304C05031DFF3061290038031DFF30CB
:100250000405031DFF3061290404031DFF306129DB
:10026000C901C8011030CA00450DC80DC90D4608A6
:10027000C8024708C93B031842294608C80747086F
:10028000C93D0310C40DC50DCA0B342944086129AA
:100290001030CC00C501C401CB0CCA0C031C54297E
:1002A0004608C4074708C53DC50CC40CC90CC80C9A
:1002B000CC0B4C2948086129840055088A00540851
:1002C0008200200064000800203084008501603036
:1002D0008031DD20A0308400850150308031DD2068
:1002E000203084000130850050308031DD20A03086
:1002F00084000130850050308031DD2020308400C2
:100300000230850050308031DD20A0308400023082
:10031000850050308031DD2020308400033085009E
:1003200050308031DD20A030840003308500503013
:100330008031DD2020308400043085005030803151
:10034000DD20A03084000430850050308031DD2075
:10035000203084000530850050308031DD20A03011
:1003600084000530850050308031DD20203084004D
:100370000630850050308031DD2031008D013E0097
:10038000B801C301CE012000A830910092019F3036
:1003900093003E00B830B9003D001730CB003E005E
:1003A0001030A600220020309E0010309F009C01DB
:1003B0001D309B002000640081312E0083108F1EB1
:1003C000831420008318E72922001908F4332E0033
:1003D0000F1222009D172E00991622001D162000D4
:1003E000FF309D009C016A309F002E008C129616F3
:1003F00032008F018E018E168E1724009B01013072
:100400009D0030309A0095010B30970094012E002A
:1004100010111A1520008231242A2400F83092008D
:10042000FF3093002000080024009801990120006B
:1004300082310D2224001A14141420000800240014
:100440001A1014102000080024008F013D00053010
:100450009200240084308E0020008231622A240021
:100460000E102E00101024008D018C010E1420009F
:1004700008002200B201B301200024000C08220071
:10048000C80024000D082200C900640082312E003B
:100490008310101C831420008318532A220001307B
:1004A000B200B301200064002200480824000C02BE
:1004B0002000031DE23322004808B0004908B100C3
:1004C000200008003C0090013D000330BB001430C8
:1004D000BC003E00013094003C00920101309300CA
:1004E00002309600023097000830980008309900DA
:1004F00091018130900020008231832A80309E005B
:100500000B178B1708009B310F2B88010408D800AC
:100510000508D7002E008F1E263222001D1D043232
:1005200019089D139D171F329D1C03321D121D16A5
:100530001A3288015C08203E840085015C08013E77
:100540005B02031D033222001908E4335C08013EFC
:10055000DC00103C031D02320030DC0022001908D0
:1005600088018000D7332E008C1E04328C12880143
:100570000130E3002E00101E01321012101D043253
:10058000101188010130DA008801580884005708EA
:10059000850009000830220057042000F5000830CB
:1005A00022005704CA000030CB0004304A04200067
:1005B000F6000830220057042000F8000D30DF005C
:1005C0000030E1000130DD000D30E0000030E200DD
:1005D0000230DE004E3080313D200330CD008701F7
:1005E000753080312A200A308031E2200800F03056
:1005F00022005705CA00CB0108304A042000F5004C
:10060000F03022005705CA00CB010830CA04003080
:10061000CB0404304A042000F600F03022005705D5
:10062000CA00CB0108304A042000F7000F30220036
:100630005705CA00CB014A082000C40022004B081D
:100640002000C50004308031FD202200CA002000B7
:1006500045082200CB0008304A042000F8000F3083
:1006600022005705CA00CB014A082000C40022001E
:100670004B082000C50004308031FD202200CA0054
:10068000200045082200CB000830CA040030CB040B
:1006900004304A042000F9000F3022005705CA0038
:1006A000CB014A082000C40022004B082000C500EE
:1006B00004308031FD202200CA00200045082200BD
:1006C000CB0008304A042000FA000D30DF00003073
:1006D000E1000130DD000D30E0000030E2000230CA
:1006E000DE004E3080313D200630CD008701753070
:1006F00080312A200A308031E22008006430CE00A8
:10070000CF0122005608103CCA000030031CFF3EF7
:10071000CB004A082000CD000630D400D50120309F
:10072000803194200030803107202200DA0120003F
:100730006400103022005A02843120000318762C05
:10074000220058082000C400023081310521220017
:10075000CA0056082000C400103081310521220053
:10076000CC004A0884004C08200081312C21220052
:10077000CC00CD0064004C084D04833120000319E7
:10078000C32B8431762C22005A08643E840000304A
:100790008501853D0008D70064005708003C83317F
:1007A0002000031DD52B8431762CF0302200570514
:1007B000CA00CB010830CA040030CB0401304A041F
:1007C0002000F500F03022005705CA00CB010830A8
:1007D000CA040030CB040130CA040030CB0404301A
:1007E0004A042000F600F03022005705CA00CB0171
:1007F0000830CA040030CB0401304A042000F7005E
:100800000F3022005705CA00CB014A082000C4005F
:1008100022004B082000C50004308031FD2022005A
:10082000CA00200045082200CB000830CA0400306E
:10083000CB0401304A042000F8000F302200570595
:10084000CA00CB014A082000C40022004B08200047
:10085000C50004308031FD202200CA002000450878
:100860002200CB000830CA040030CB040130CA0497
:100870000030CB0404304A042000F9000F3022007D
:100880005705CA00CB014A082000C40022004B08CB
:100890002000C50004308031FD202200CA00200065
:1008A00045082200CB000830CA040030CB040130D8
:1008B0004A042000FA000D30DF000030E100013072
:1008C000DD000D30E0000030E2000230DE004E308E
:1008D00080313D200630CD008701753080312A20DF
:1008E0002200D60ADA0A2000031D22330800220063
:1008F0000130D70020008231F72A2200580820005A
:10090000C4000230813105212200CA0056082000AF
:10091000C4001030813105212200CC004A08840037
:100920004C08200081312C212200CC00CD00640035
:100930004C084D048431200003199F2C080022002C
:100940005808363E840001308501853D0008CA0004
:1009500080304A07CA00CB01CB0D4A085607D700A2
:1009600020008231F72A22000130D800D601200071
:1009700084317D248331952383317E230730C70062
:10098000D0308031E32008003630CE000130CF0077
:100990000030803107204030803107200D30DF00EB
:1009A0000030E1000130DD000D30E0000030E200F9
:1009B0000230DE004E3080313D20003080313B205F
:1009C00064308031E22022003030D70020008231B4
:1009D000CA228231CA228231CA2222002030D700A4
:1009E00020008231CA2222002830D7002000823124
:1009F000F72222002830D70020008231F72222007F
:100A00000830D70020008231F72222000130D700C1
:100A100020008231F72222000630D70020008231E8
:100A2000F72222002830D70020008231F72222004E
:100A30000F30D70020008231F72259330D30DF000C
:100A40000030E1000130DD000D30E0000030E20058
:100A50000230DE00A03080313D2086310318BF2EE9
:100A600022003908200080313D2086310318BF2E36
:100A700022003808200080313B2086310318BF2E29
:100A80000D30DF000030E1000130DD000D30E0000E
:100A90000030E2000230DE00A03080313D2086319F
:100AA0000318BF2E8031112086310318BF2E22007B
:100AB000D900200008000D30DF000030E1000130D7
:100AC000DD000D30E0000030E2000230DE00A0303A
:100AD00080313D2086310318BF2E220039082000C6
:100AE00080313D2086310318BF2E220038082000B7
:100AF00080313D2086310318BF2E22005908200086
:100B000080313B2086310318BF2E0A308031E2202D
:100B100008000D30DF000030E1000130DD000D3055
:100B2000E0000030E2000230DE00A03080313D20E5
:100B300086310318BF2E22003908200080313D2065
:100B400086310318BF2E22003808200080313B2058
:100B500086310318BF2E0D30DF000030E100013078
:100B6000DD000D30E0000030E2000230DE00A03099
:100B700080313D2086310318BF2E8031132086310D
:100B80000318BF2E2200BF002000803111208631C3
:100B90000318BF2E2200BE00200008000D30DF0029
:100BA0000030E1000130DD000D30E0000030E200F7
:100BB0000230DE00A03080313D2086310318BF2E88
:100BC00022003908200080313D2086310318BF2ED5
:100BD00022003808200080313D2086310318BF2EC6
:100BE00022003F08200080313D2086310318BF2EAF
:100BF00022003E08200080313B2086310318BF2EA2
:100C00000A308031E22008000D30DF000030E100C2
:100C10000130DD000D30E0000030E2000230DE0087
:100C2000A03080313D2086310318BF2E22003908C4
:100C3000200080313D2086310318BF2E2200380865
:100C4000200080313B2086310318BF2E0D30DF009D
:100C50000030E1000130DD000D30E0000030E20046
:100C60000230DE00A03080313D2086310318BF2ED7
:100C70008031132086310318BF2E2200BB002000D4
:100C80008031132086310318BF2E2200BA002000C5
:100C90008031132086310318BF2E2200BD002000B2
:100CA0008031112086310318BF2E2200BC003A0883
:100CB0002100E60022003B082100E70022003C085A
:100CC0002100E80022003D082100E9002000080082
:100CD000210066082200BA00210067082200BB003C
:100CE000210068082200BC00210069082200BD0024
:100CF0000D302000DF000030E1000130DD000D305C
:100D0000E0000030E2000230DE00A03080313D2003
:100D100086310318BF2E22003908200080313D2083
:100D200086310318BF2E22003808200080313D2074
:100D300086310318BF2E22003B08200080313D2061
:100D400086310318BF2E22003A08200080313D2052
:100D500086310318BF2E22003D08200080313D203F
:100D600086310318BF2E22003C08200080313B2032
:100D700086310318BF2E0A308031E220080064302B
:100D8000CE00CF014530803107204530803107202B
:100D90005030803107205230803107204F30803171
:100DA00007204D308031072020308031072045302A
:100DB0008031072072308031072072308031072067
:100DC0006F30803107207230803107200030803151
:100DD00007208431B32C2200DE350F3020000E05B1
:100DE0002200CA00CB01200001308C1B013A2200F6
:100DF000CC000030CD004C082000C40022004D087B
:100E00002000C50004308031FD202200CC002000ED
:100E100045082200CD004A08CC044B08CD044C09FB
:100E2000E10064006108600287312000031D1C2F6F
:100E300001302200DE04200022006108E00064008E
:100E40005E087F3C87312000031DBD2F2200610812
:100E50005F06DE006108DF000130DD0020002200B7
:100E60005E085D05CA00CB0164004A084B04873167
:100E700020000319882F220061085D05CA00CB01FC
:100E800064004A084B04873120000319552F2200C3
:100E90005D08E4002100EE01EF0122000230B40001
:100EA000B501631520008731882F64002200640893
:100EB000013C87312000031D612F9A317D2287314B
:100EC000832F640022006408023C87312000031D48
:100ED0006D2F9A317D228731832F640022006408B0
:100EE000043C87312000031D792F9A3188228731F5
:100EF000832F640022006408083C87312000031D12
:100F0000832F9A3187222200E401E3146311200029
:100F100022005D082000CA00CB010230C600C701D4
:100F2000813148212200DD00640009305D0220008B
:100F3000031C9533103022005E05CA00CB0164000B
:100F40004A084B04873120000319B92F2200E3140B
:100F500010306105CA00CB0164004A084B04873198
:100F600020000319B72F9731CA278731B92F97313E
:100F7000722722007F30DE00200064002200640817
:100F800088312000031964282100EE0A0319EF0AB2
:100F90006E082000C40021006F082000C500220058
:100FA00035082000C70022003408200081311321B9
:100FB0008831031D64282200E314200097311C2788
:100FC0000230C400C501220035082000C7002200FD
:100FD00034082000813113218831031D2428640046
:100FE00022006408013C87312000031DFB2F99314A
:100FF0008A2188311D28640022006408023C88315F
:101000002000031D07289931BC2188311D28640068
:1010100022006408043C88312000031D1328993104
:10102000EE2188311D28640022006408083C8831C4
:101030002000031D1D289A31102222007D30B400AB
:10104000B5012000883160286400883122008310B7
:10105000631D8314200083185B2864002200640849
:10106000013C88312000031D39289A314122883102
:101070005B28640022006408023C88312000031DC4
:1010800045289A31582288315B2864002200640880
:10109000043C88312000031D51289A317022883188
:1010A0005B28640022006408083C88312000031D8E
:1010B0005B289A317B2222002430B400B501200045
:1010C0002100EE01EF012000080022006311200042
:1010D000080064005B085C028931031948295B0839
:1010E000203E840000308501853D00082200E50097
:1010F000640088318310E51F831420008318C02802
:1011000022006508E7006508E60064008831831066
:10111000651F831420008318A428640088312200EE
:101120008310E51E8314200083189C2822000130C0
:10113000EA0020008831A22822000530E9000230B0
:10114000EA0020008831BB28640088312200831027
:10115000E51E831420008318B32822000330E90021
:1011600020008831B72822000130E9002000220049
:101170000230EA0020002200E801200089313F29E6
:1011800022006508E60664006A08023C89312000F6
:10119000031D31292200E90364006908003C8931FC
:1011A0002000031D1C292200EA0164006608FF3CA0
:1011B00089312000031D1A2922006708B03C031D55
:1011C000FF30FF3ACA0010304705CC00CD014A0875
:1011D00084004C084D042000813125212200CC00E0
:1011E000CD0064004C084D048931200003191A29F0
:1011F0002200E3140F304705CA00CB014A08200043
:10120000C40022004B082000C50007308031FD20BB
:101210002200CA00200045082200CB0046084A07E9
:10122000C40003014B3DC50020304705EC00200001
:101230009231AB2289312F296400023022006802EA
:101240008931200003182F2922006808463E8400B7
:1012500001308501853D65088000E80A200089315C
:101260003F29640022006A08013C89312000031DE7
:101270003F2922006508E9000230EA002000DB0A6D
:1012800064005B08103C8931031D4729DB012133D1
:1012900008002200EA01FF30C400FF30C500200032
:1012A0000800880130083407BC003108353DBD0016
:1012B0003208363DBE003308373DBF0008008801C4
:1012C00040083802BC004108393BBD0042083A3BA7
:1012D000BE0043083B3BBF00080021005E08E6005B
:1012E0005F08E7006008E8006108E9002200B80133
:1012F000B90120008631682E2200B801B901200012
:101300008631042621006608DE006708DF006808D1
:10131000E0006908E1002000080022002408210004
:10132000E600220025082100E7002200260821000F
:10133000E800220027082100E90022000430B8005C
:10134000B90120008631682E22000430B800B901AE
:10135000200086310426210066082200A400210016
:1013600067082200A500210068082200A6002100CD
:1013700069082200A700200008002200520820006F
:10138000CA00220053082000CB000630C600C70167
:10139000813148212200CA00200049082200CB00E8
:1013A00008304A07B80000304B3DB90020008531B5
:1013B000892522003E08D0003F08D1000230B8073E
:1013C0000030B93D20008631042621006608220045
:1013D000A800210067082200A90021006808220057
:1013E000AA00210069082200AB00200008002200AA
:1013F0005008BE005108BF0052082000CA00220059
:1014000053082000CB000630C600C70181314821B7
:101410002200CA00200049082200CB0008304A07F9
:10142000B80000304B3DB90020008531CE252200A8
:1014300028082100E600220029082100E7002200F8
:101440002A082100E80022002B082100E9002200E0
:101450000230B8070030B93D20008631682E2200E6
:1014600044082000C400220045082000C500FF30C9
:10147000C700FF30813102212200CA0021005E082E
:101480002000C40021005F082000C500FF30C70015
:10149000FF30813102212200CC00210060082000B1
:1014A000C400210061082000C500FF30C700FF30E4
:1014B000813102212200CE004C0884004E08200019
:1014C000813125212200CE00CF004A0884004E0839
:1014D0004F04200081312C212200CE00CF00640077
:1014E0004E084F048A3120000319772A0800220091
:1014F000D201D3012000220052082000C4002200A3
:1015000053082000C500C701273081310A218A31E4
:10151000031DA92A8931BD21220050082000C400E2
:10152000220051082000C500220045082000C70005
:10153000220044082000813110218A31031DA22A93
:101540008A31A92A2200D20A0319D30A2000031DD6
:10155000D2332830C400C501220053082000C70040
:10156000220052082000813113218A31031DB92A3B
:10157000080021005E08E2005F08E3006008E40064
:101580006108E500220050082000C4002200510834
:101590002000C500FF30C700FF308131022122004A
:1015A000CA0050082000C400220051082000C500D5
:1015B000220045082000C700220044082000813195
:1015C00002212200CC004A0884004C08200081310E
:1015D0002C212200CC00CD0064004C084D048A313F
:1015E00020000319F52A8B316F2B22005208D400FA
:1015F0005308D500D20A0319D30A2000220052084A
:101600002000C400220053082000C500C701273075
:1016100081310A218B31031D282B8931BD21FF30F7
:10162000C400FF30C500220051082000C70022007E
:1016300050082000813113218B31031D212B8B3168
:10164000282B2200D20A0319D30A2000031DD63307
:101650002830C400C501220053082000C700220022
:1016600052082000813113218B31031D382B0800D3
:1016700022005208D2005308D3002000013022007B
:101680005407CA000030553DCB0052082000C4006A
:10169000220053082000C50022004B082000C7008C
:1016A00022004A082000813110218B31031D6F2B4D
:1016B00001302200D2020030D33B20008931BD210D
:1016C0002200D20A0319D30A20008931F721013000
:1016D0002200D2020030D33B20000318CF33220077
:1016E0004408D0004508D10021005E082200A8006F
:1016F00021005F082200A900210060082200AA0042
:10170000210061082200AB0020008931F729220066
:10171000D201D3012000220052082000C400220080
:1017200053082000C500C701273081310A218B31C1
:10173000031DCA2B8931BD21220050082000C4009E
:10174000220051082000C500220045082000C700E3
:10175000220044082000813113218B31031DB22B5C
:101760008B31CA2BFF30C400FF30C5002200510866
:101770002000C700220050082000813113218B3146
:10178000031DC32B08002200D20A0319D30A20002C
:10179000031DC1332830C400C501220053082000B6
:1017A000C700220052082000813113218B31031D14
:1017B000DA2B0800220052082000C400220053083F
:1017C0002000C500C7012730813107218C31031D5E
:1017D000292C2200D20A0319D30A20002200520821
:1017E0002000C400220053082000C500C701273094
:1017F00081310A218C31031D232C8931BD21FF3019
:10180000C400FF30C500220051082000C70022009C
:1018100050082000813113218C31031D112C8C3193
:10182000232C01302200D2020030D33B200089312A
:10183000F7212200D20A0319D30AD20A0319D30AC4
:101840002000031DCB3301302200D2020030D33BF5
:1018500020002100FF30E200FF30E300FF30E40011
:10186000FF30E5002200FF30D000FF30D100FF3014
:10187000A800FF30A900FF30AA00FF30AB00200015
:101880008931F7292200D201D30120002200520819
:101890002000C400220053082000C500C7012730E3
:1018A00081310A218C31031D912C8931BD21220007
:1018B00050082000C400220051082000C500FF305D
:1018C000C700FF30813102212200CA0050082000E9
:1018D000C400220051082000C50022004508200055
:1018E000C700220044082000813102212200CC00E0
:1018F0004A0884004C08200081312C212200CC00B1
:10190000CD0064004C084D048C31200003198A2C52
:101910008C31912C2200D20A0319D30A2000031D16
:10192000B53308002200B801B9012100FF30E600FC
:10193000FF30E700FF30E800FF30E900200086318B
:10194000682622000430B800B901200086316826DC
:1019500022000830B800B901D201D30120002200D2
:1019600052082000C400220053082000C500C7010F
:10197000273081310A218C31031DD52C2200FF3004
:10198000D000FF30D100FF30A800FF30A900FF30A9
:10199000AA00FF30AB0020008931F7212200D20AD3
:1019A0000319D30A2000031DDA3308002100DE01E9
:1019B0000830DF00E001E101200089316D292100BC
:1019C0005E082000B80021005F082000B900210057
:1019D00060082000BA00210061082000BB00C0019F
:1019E0000830C100C201C30189315F213C08C40035
:1019F0003D08C500C7010030813102212200CA0024
:101A000020003E08C4003F08C500C70100308131F6
:101A100002212200CC004A0884004C0820008131B9
:101A200025212200CC00CD0064004C084D048D31EE
:101A3000200003191C2D08003C082200A4002000EF
:101A40003D082200A50020003E082200A60020003C
:101A50003F082200A700200089318D2122002408A0
:101A60002000C400220025082000C500FF30C70068
:101A7000FF30813102212200CA0026082000C40064
:101A8000220027082000C500FF30C700FF30813149
:101A900002212200CC004A0884004C082000813139
:101AA00025212200CC00CD0064004C084D048D316E
:101AB00020000319642DA030B0008630B100013041
:101AC000B200B3018D318E2D220024082000B00019
:101AD000220025082000B100220026082000B200C4
:101AE000220027082000B300220024082000B400B0
:101AF000220025082000B500220026082000B6009C
:101B0000220027082000B700893151213C08B0008D
:101B10003D08B1003E08B2003F08B300B4010830F0
:101B2000B500B601B701893151213C082200AC0053
:101B300020003D082200AD0020003E082200AE003B
:101B400020003F082200AF0020000800FF30C40042
:101B5000FF30C500220045082000C70022004408CD
:101B60002000813113218D31031DB72D0800210084
:101B70005E082200A00021005F082200A1002100D1
:101B800060082200A200210061082200A3002100B9
:101B90008030DE000930DF00E001E10120008A3101
:101BA0002F22220020082100DE002200210821002F
:101BB000DF00220022082100E0002200230821008B
:101BC000E1002000080021006A082000B800210080
:101BD0006B082000B90021006C082000BA00210029
:101BE0006D082000BB00C0010830C100C201C30164
:101BF00089315F213C08B8003D08B9003E08BA00B1
:101C00003F08BB00220024082000C0002200250855
:101C10002000C100220026082000C2002200270860
:101C20002000C30089315F2100303E052200CA0038
:101C3000803020003F052200CB0064004A084B049E
:101C40008E3120000319482E21006A082000B000C0
:101C500021006B082000B10021006C082000B200B8
:101C600021006D082000B300220024082000B400E9
:101C7000220025082000B500220026082000B6001A
:101C8000220027082000B700893151218E316A2EA9
:101C900021006A082000B80021006B082000B9006C
:101CA00021006C082000BA0021006D082000BB0054
:101CB000220024082000C000220025082000C100C6
:101CC000220026082000C200220027082000C300AE
:101CD00089315F213C082100EA0020003D082100F5
:101CE000EB0020003E082100EC0020003F0821000E
:101CF000ED002000080021005E082000C400210043
:101D00005F082000C500FF30C700FF30813102218D
:101D10002200CA0021005E082000C40021005F08E4
:101D20002000C500FF30C700FF30813102212200B2
:101D3000CC004A0884004C08200081312521220073
:101D4000CC00CD0064004C084D048E3120000319F6
:101D5000AA2E080021006A082000C40021006B0898
:101D60002000C5000930C7008030813102212200E7
:101D7000CA0021006C082000C40021006D0820006A
:101D8000C500C7010030813102212200CC004A0881
:101D900084004C082000813125212200CC00CD0098
:101DA00064004C084D048F3120000319112F2200CC
:101DB00024082000C400220025082000C500FF30B0
:101DC000C700FF30813102212200CA00260820000E
:101DD000C400220027082000C500FF30C700FF30E4
:101DE000813102212200CC004A0884004C082000E6
:101DF000813125212200CC00CD0064004C084D0427
:101E00008F3120000319052F080021005E08EA0029
:101E10005F08EB006008EC006108ED0020008D31E8
:101E2000E32521006A082000B80021006B0820008B
:101E3000B90021006C082000BA0021006D082000C4
:101E4000BB0021005E082000C00021005F082000C8
:101E5000C100210060082000C200210061082000AC
:101E6000C30089315F213C08C4003D08C500C7019B
:101E70000030813102212200CA0020003E08C40047
:101E80003F08C500C7010030813102212200CC008B
:101E90004A0884004C082000813125212200CC0012
:101EA000CD0064004C084D048F31200003195B2FD6
:101EB00008008F31952F00303E052200CA00803087
:101EC00020003F052200CB0064004A084B048F31FC
:101ED00020000319922F21005E082000B800210085
:101EE0005F082000B900210060082000BA0021002E
:101EF00061082000BB0021006A082000C00021000A
:101F00006B082000C10021006C082000C2002100E5
:101F10006D082000C30089315F212200631020007A
:101F20008F31952F2200631420003C08FB003D08F0
:101F3000FC003E08FD003F08FE0022006208EB00A6
:101F40000330E20020009431DC2482312F2264002F
:101F50008F3122008310631C831420008318B52F57
:101F60008E16161096148F31B82F8E1216149610E6
:101F700082311422320002308F002000C401C501DA
:101F80007E08C7007D08813113212200CA0021008C
:101F9000200822072200CC0021002108233D220036
:101FA000CD0020007B08C4007C08C50022004D083D
:101FB0002000C70022004C08200081310A212200A5
:101FC000CC004A0884004C08200081312C212200DA
:101FD000CC00CD0064004C084D048F312000031963
:101FE000F22F080082311F227B08B8007C08B9005C
:101FF0007D08BA007E08BB008231392222003008F9
:102000002000C000220031082000C1002200320858
:102010002000C200220033082000C30089315F2164
:102020003C08C4003D08C500C701003081310221D1
:102030002200CA0020003E08C4003F08C500C701B6
:102040000030813102212200CC004A0884004C0873
:102050002000813125212200CC00CD00200000305D
:102060003E052200CE00803020003F052200CF0038
:102070004C084D0484004E084F04200081312C216F
:102080002200CE00CF0064004E084F042000031948
:10209000B33382311F2222006B08E200E3140301F4
:1020A0002000161CFF302200CA0003012000961CED
:1020B000FF302200CC004A0884004C082000813107
:1020C00025212200CC00CD0064004C084D04903145
:1020D000200003196C2808001610961032008F019A
:1020E00020000230C70058308031E32024000E1059
:1020F0002000823139226400903122008310631C59
:10210000831420008318A82821005E082000B00056
:1021100021005F082000B100210060082000B2000B
:10212000210061082000B300220030082000B40024
:10213000220031082000B500220032082000B6003D
:10214000220033082000B700893151219031CA287C
:1021500021005E082000B80021005F082000B900BF
:10216000210060082000BA00210061082000BB00A7
:10217000220030082000C000220031082000C100E9
:10218000220032082000C200220033082000C300D1
:1021900089315F213C082100DE0020003D0821003C
:1021A000DF0020003E082100E00020003F08210061
:1021B000E100200089316D2982310D2282313922DE
:1021C0007B08B8007C08B9007D08BA007E08BB0017
:1021D000220030082000C000220031082000C10089
:1021E000220032082000C200220033082000C30071
:1021F00089315F213C08B8003D08B9003E08BA00AB
:102200003F08BB0064001F3032000F0291312000F4
:102210000318352932000F3584008501850DA03063
:1022200084070030853D00082200CA001000CB0062
:10223000013032000F022200CC00CD010030CD3B36
:102240004C3584004D0D8500A03084070030853D5D
:102250000008CC001000CD004C084A02C0004D0818
:102260004B3BC10020009131402921005A085C02FB
:102270002200C00021005B085D3B2200C10020005D
:10228000013032000F022200CA00CB010030CB3BEC
:102290004A3584004B0D8500A03084070030853D11
:1022A0000008CA001000CB004A0840072000C00008
:1022B00022004B08413D2000C100C201C301893109
:1022C0005F2100303E052200CA00803020003F051B
:1022D0002200CB0064004A084B049131200003190E
:1022E000C42932008F030F08023C031DFF30FF3A60
:1022F0002200CA0020003A08C4003B08C500C701FC
:102300000030813102212200CC00013032000F0266
:102310002200CE00CF010030CF3B4E3584004F0D60
:102320008500A03084070030853D0008CE001000F5
:10233000CF0020003808C4003908C50022004F082B
:102340002000C70022004E08200081310A2122000F
:10235000CE004C0884004E08200081312521220047
:10236000CE00CF004A0884004E084F04200081317F
:102370002C212200CE00CF0064004E084F04200024
:102380000319AF339131CF2964001F3032000F029F
:10239000913120000318CF2932008F0A20006400F9
:1023A00032000F08023C91312000031DD9298F31E2
:1023B000F22708002100EA010830EB00EC01ED01F2
:1023C00020008E317B2E22002C082100EA00220002
:1023D0002D082100EB0022002E082100EC00220035
:1023E0002F082100ED0020008E317B2E22004408B2
:1023F0002000C400220045082000C500FF30C700AF
:10240000FF30813102212200CA0052082000C4009E
:10241000220053082000C500C70127308131022166
:102420002200CC004A0884004C08200081312C2175
:102430002200CC00CD0064004C084D0492312000F5
:102440000319232A08002200D20A0319D30A200004
:102450008931BD21220050082000C400220051080B
:102460002000C500FF30C700FF30813102219231CA
:10247000031D552A22005008C4005108C500500809
:10248000C2005108C30028082100E20022002908E8
:102490002100E30022002A082100E40022002B088A
:1024A0002100E500200092315B2A01302200D20297
:1024B0000030D33B20000800220044082000C40064
:1024C000220045082000C500FF30C700FF308131E1
:1024D00002212200CA0052082000C4002200530832
:1024E0002000C500C7010030813102212200CC004C
:1024F0004A0884004C08200081312C212200CC00A5
:10250000CD0064004C084D04923120000319892A43
:10251000080001302200D2020030D33B2000893174
:10252000BD2122005008C4005108C5005008C20057
:102530005108C30028082100E200220029082100D8
:10254000E30022002A082100E40022002B082100D9
:10255000E500200008008C314224220050082000B1
:10256000C400220051082000C500220045082000B8
:10257000C700220044082000813113219331031D3C
:10258000222B220028082100E20022002908210035
:10259000E30022002A082100E40022002B08210089
:1025A000E50022004408C2004508C3006400620838
:1025B000003C93312000031D202B21006208EA001B
:1025C0006308EB006408EC006508ED00640022007D
:1025D0006C08003C93312000031D1E2B22002408B0
:1025E0002000C400220025082000C500FF30C700DD
:1025F000FF30813102212200CA0026082000C400D9
:10260000220027082000C500FF30C700FF308131BD
:1026100002212200CC004A0884004C0820008131AD
:1026200025212200CC00CD0064004C084D049331DC
:10263000200003191C2B08008D31E3258E317B2EE1
:1026400093313C2B640022006208003C933120004F
:10265000031D322B22004208C4004308C50020009D
:1026600093313C2B2100FF30E200FF30E300FF30CC
:10267000E400FF30E500200008001610961032003C
:102680008F0121000A30A000A1012C30A200A3017B
:102690006C30A400A501C930A600A7014630A800EF
:1026A0000130A900E230AA000130AB009E30AC003E
:1026B0000230AD007830AE000330AF007130B000B2
:1026C0000430B1008B30B2000530B300C230B4002A
:1026D0000630B5001730B6000830B7008C30B800AF
:1026E0000930B9002030BA000B30BB00D530BC0037
:1026F0000C30BD00AD30BE000E30BF00A330C000B6
:102700001030C100B930C2001230C300F230C40032
:102710001430C5004E30C6001730C700C930C8009D
:102720001930C9006630CA001C30CB002630CC00FE
:102730001F30CD000A30CE002230CF000E30D00046
:102740002530D1003930D2002830D3008730D40072
:102750002B30D500F930D6002E30D7009430D80079
:102760003230D9005230DA003630DB003A30DC004B
:102770003A30DD002200FF30C200FF30C3002100EC
:10278000FF30E200FF30E300FF30E400FF30E500FF
:10279000200089317C218931A4218D312E25220010
:1027A000D201D3012000220052082000C4002200E0
:1027B00053082000C500C701273081310A21943118
:1027C000031D392C8931BD21FF30C400FF30C50005
:1027D000220051082000C70022005008200081314B
:1027E00013219331031DFB2B22002830D200D3018B
:1027F00020009431392C220028082000C400220037
:1028000029082000C50021005F082000C700210022
:102810005E082000813102212200CA002A0820001F
:10282000C40022002B082000C50021006108200000
:10283000C700210060082000813102212200CC0065
:102840004A0884004C082000813125212200CC0058
:10285000CD0064004C084D04943120000319322C43
:102860009431392C2200D20A0319D30A2000031D07
:102870009A332830C400C501220053082000C70045
:10288000220052082000813113219431031D4E2C67
:102890002200D201D30120008931BD21220050083D
:1028A0002000C400220051082000C500FF30C700EE
:1028B000FF30813102219431031D732C2200500816
:1028C000C4005108C50028082100E20022002908A0
:1028D0002100E30022002A082100E40022002B0846
:1028E0002100E500200022004408C2004508C30082
:1028F000200008003808C4003908C500FF30C700B0
:10290000FF30813102212200CA0020003A08C400B1
:102910003B08C500FF30C700FF3081310221220093
:10292000CC004A0884004C08200081312521220077
:10293000CC00CD0064004C084D04943120000319F4
:10294000B52C6430CE00CF013F30803107203F30BE
:10295000803107203F308031072020308031072030
:102960000030803107209431DA2CC0010830C100DA
:10297000C201C30189315F216430CE00CF01CD0196
:102980003E08C8003F08C9000630D400D501803198
:102990009C200430CD003C08C8003D08C90006302A
:1029A000D400D50180319C202030803107200030B8
:1029B000803107208331952B2200D801D6012000D9
:1029C00084317D24220044082000C40022004508F0
:1029D0002000C500FF30C700FF3081310221953152
:1029E000031D112D6430CE00CF01CD010130220036
:1029F0004407CA000030453DCB004A082000C8000B
:102A000022004B082000C9000630D400D5018031D7
:102A1000AF202030803107200030803107209531F1
:102A2000232D6430CE00CF013F30803107203F306E
:102A3000803107203F30803107202030803107204F
:102A40000030803107208331952321006208200067
:102A5000B800210063082000B900210064082000AC
:102A6000BA00210065082000BB0094317A242100BF
:102A70005E082000B80021005F082000B900210096
:102A800060082000BA00210061082000BB009431DA
:102A90007A2483317E239731332722000130D800F6
:102AA000D601200084317D24640022006208003CAD
:102AB00095312000031DCB2D6430CE00CF01553061
:102AC00080310720503080310720203080310720AE
:102AD000203080310720443080310720573080314A
:102AE00007204E30803107202030803107202030F1
:102AF000803107204730803107204F308031072058
:102B0000003080310720FF30C400FF30C5002200B4
:102B100025082000C700220024082000813113214D
:102B20002200CA002000FF30C400FF30C500220090
:102B300027082000C7002200260820008131132129
:102B40002200CC004A0884004C08200081312C214E
:102B50002200CC00CD0064004C084D0495312000CB
:102B60000319C92D833195236430CE00CF01203065
:102B7000803107202030803107203130803107201C
:102B800038308031072030308031072000308031EC
:102B900007209731182F640022006208013C96310B
:102BA0002000031DC12E6430CE00CF0143308031A0
:102BB00007205730803107202030803107204330F4
:102BC0008031072043308031072057308031072083
:102BD0002030803107200030803107208331952359
:102BE00064007F08003C9631031D102E6430CE0037
:102BF000CF0120308031072053308031072045300D
:102C00008031072054308031072020308031072068
:102C10002030803107200030803107209631AE2EE1
:102C200064007F08013C9631031D302E6430CE00D5
:102C3000CF012030803107205A30803107204530C5
:102C4000803107205230803107204F3080310720FB
:102C50002030803107200030803107209631AE2EA1
:102C600064007F08023C9631031D502E6430CE0074
:102C7000CF012030803107204330803107203130B0
:102C800080310720383080310720303080310720F4
:102C90002030803107200030803107209631AE2E61
:102CA00064007F08033C9631031D702E6430CE0013
:102CB000CF0131308031072038308031072030306B
:102CC0008031072053308031072057308031072072
:102CD0002030803107200030803107209631AE2E21
:102CE00064007F08043C9631031D902E6430CE00B2
:102CF000CF014530803107205230803107204130EC
:102D00008031072053308031072045308031072043
:102D10002030803107200030803107209631AE2EE0
:102D200064007F08053C9631031DAE2E6430CE0052
:102D3000CF01533080310720573080310720543085
:102D40008031072043308031072048308031072010
:102D500020308031072000308031072083319523D7
:102D60006430CE00CF014630803107204E308031B4
:102D70000720433080310720003080310720973111
:102D8000182F640022006208023C96312000031DC7
:102D9000F82E6430CE00CF015530803107205030FE
:102DA00080310720203080310720203080310720FB
:102DB0004430803107205730803107204E30803139
:102DC0000720203080310720203080310720443018
:102DD000803107204F30803107204E30803107206E
:102DE0004530803107200030803107209731182F7F
:102DF000640022006208033C97312000031D182F55
:102E00006430CE00CF014D30803107206F308031EB
:102E100007207630803107206930803107206E30FE
:102E20008031072067308031072000308031072053
:102E30008331952383317E2B2200D8010F30D600B9
:102E4000200084317D246430CE00CF0120308031D9
:102E500007200030803107208331952B0130C700D7
:102E600090308031E32022000F30D60020008431E2
:102E70007D24640022006208003C97312000031D7D
:102E80004C2F6430CE00CF014F308031072000300E
:102E9000803107209731702F640022006208013CC6
:102EA00097312000031D5F2F6430CE00CF015030DA
:102EB000803107200030803107209731702F640067
:102EC00022006208023C97312000031D702F6430FD
:102ED000CE00CF01533080310720003080310720F1
:102EE0008331952B640022006208003C973120005A
:102EF0000319C92F2200E201210062082000C4004A
:102F0000210063082000C500FF30C700FF30813179
:102F100002212200CA00210064082000C400210010
:102F200065082000C500FF30C700FF308131022155
:102F30002200CC004A0884004C0820008131252161
:102F40002200CC00CD0064004C084D0497312000D5
:102F50000319C92F2200D201D30120008931BD21DC
:102F600022005008C4005108C5005008C200510892
:102F7000C30028082100E200220029082100E30004
:102F800022002A082100E40022002B082100E5008D
:102F900020000800640022006208013C97312000F4
:102FA0000319D62F22000130E20020000800FF3074
:102FB000C400FF30C500220045082000C7002200E1
:102FC00044082000813113219731031DEC2F22008A
:102FD000C401C501200008002200C40A0319C50A63
:102FE00064005C08133C98312000031D4B2822002C
:102FF00044082000C400220045082000C50003301A
:10300000C7008330813107219831031D3328220006
:103010006430C4070030C53D44082000C4002200CD
:1030200045082000C5006430C600C7018131302149
:103030002200C400200045082200C50044082000EA
:10304000CA00220045082000CB006430C600C7013A
:10305000813148212200C400200049082200C50017
:10306000200098314928220044082000C400220092
:1030700045082000C5000330C700DD30813107213D
:103080009831031D47289831642898314928983190
:1030900094289831A9282200DC0A64000A305C02D6
:1030A00098312000031C9428220044082000C4000A
:1030B000220045082000C5000330C700DD30813103
:1030C00007219831031D902822000A30C4070030E0
:1030D000C53D44082000C400220045082000C5006A
:1030E0000A30C600C701813130212200C40020000F
:1030F00045082200C50044082000CA0022004508F7
:103100002000CB000A30C600C701813148212200CF
:10311000C400200049082200C500200098319228F0
:10312000983194289831A928220044082000C4002E
:10313000220045082000C5000330C700E730813178
:1031400007219831031DA9282200C40A0319C50AC2
:10315000200001302200C4020030C53B2000923123
:10316000AB2AFF30C400FF30C50022004508200014
:10317000C700220044082000813113219831031D2B
:10318000C8282200E630C4000330C5002000080033
:103190002200C40A0319C50A64005C08133C993173
:1031A0002000031D2529220044082000C40022001D
:1031B00045082000C500C701653081310D219931D6
:1031C000031D0E2964302200C4020030C53B4408B0
:1031D0002000C400220045082000C5006430C6005D
:1031E000C701813130212200C4002000450822009F
:1031F000C50044082000CA00220045082000CB007A
:103200006430C600C701813148212200C40020007B
:1032100049082200C50020009931232922004408D2
:103220002000C400220045082000C500C7010B3063
:1032300081310D219931031D212999313D29993180
:10324000232999316D29993182292200DC0A6400F1
:103250000A305C0299312000031C6D2922004408C9
:103260002000C400220045082000C500C7010B3023
:1032700081310D219931031D69290A302200C402D0
:103280000030C53B44082000C4002200450820004F
:10329000C5000A30C600C701813130212200C400B8
:1032A000200045082200C50044082000CA00220072
:1032B00045082000CB000A30C600C70181314821F3
:1032C0002200C400200049082200C50020009931D6
:1032D0006B2999316D2999318229220044082000F7
:1032E000C400220045082000C500C701013081311B
:1032F0000D219931031D822901302200C4020030C2
:10330000C53B200001302200C4020030C53B200034
:103310009231AB2A640022006208003C99312000FF
:10332000031D962992315C229931BB296400220049
:103330006208013C99312000031DA2299131E32943
:103340009931BB29640022006208023C99312000B7
:10335000031DB1292200DC0120009731D72F9931BC
:10336000BB29640022006208033C99312000031D40
:10337000BB29903149280800640022006208003C03
:1033800099312000031DC8299131F6299931ED2981
:10339000640022006208013C99312000031DD429F9
:1033A0009131DA299931ED29640022006208023C4A
:1033B00099312000031DE3292200DC01200098310F
:1033C000B1289931ED29640022006208033C99314B
:1033D0002000031DED299031492808002200E31147
:1033E00064006208003C9A312000031D052A210078
:1033F0006208EA006308EB006408EC006508ED0071
:1034000020008E317B2E9A310F2A64002200620840
:10341000033C9A312000031D0F2A903149280800EF
:10342000640022006208003C9A312000031D242A17
:1034300021008030EA000930EB00EC01ED012000B2
:103440008E317B269A31402A640022006208013CBA
:103450009A312000031D362AFF0A640006307F02DD
:103460009A31031C342AFF019A31402A6400220059
:103470006208033C9A312000031D402A90314928FC
:103480000800640022006208003C9A312000031DFD
:103490004C2A48339A31562A640022006208023CC2
:1034A0009A312000031D562A9731D72F883165287D
:1034B000640022006208003C9A312000031D632A48
:1034C00063339A316E2A640022006208023C9A310A
:1034D0002000031D6E2A9831B12808008831652824
:1034E000640022006208013C9A312000031D7B2AFF
:1034F0002200E3152000883165286400220062085C
:10350000033C9A312000031D872A90314928080086
:10351000640022006208013C9B312000031D022B45
:1035200064007F08003C9A31031DA72A64009A3189
:1035300022008310E31D831420008318A32A8B31FB
:10354000872B9A31A52A8A312F2A9B31002B6400C0
:103550007F08013C9A31031DB12A8C31D62C9B3156
:10356000002B64007F08023C9A31031DD72A6400B7
:103570009A3122008310E31D831420008318D32A7C
:103580002200FF30A400FF30A500FF30A600FF306E
:10359000A700200089318D218D312E252200E311D5
:1035A00020009A31D52A8C31DF2C9B31002B64000E
:1035B0007F08033C9A31031DE12A8D31A62D9B31F2
:1035C000002B64007F08043C9A31031DF62A640036
:1035D0009A3122008310E31D831420008318F42AFB
:1035E0008C31922493313D239B31002B64007F0862
:1035F000053C9B31031D002B22000230E20020001D
:103600009B310E2B640022006208023C9B3120009B
:10361000031D0E2B22000130E2002000080084313F
:10362000C4248931492193313D2364009B318C1F8F
:103630001F2B22000130E20020009B31222B2200B0
:10364000E20120002200E314200082317E22883132
:1036500069208B1363082200DB002000E3018B1735
:10366000640022005B089B3120000319392B86314E
:10367000EB268B135A082200DB002000DA018B179F
:10368000640022005B089B3120000319492B903114
:10369000DC2064009B3122008310E31C8314200093
:1036A0008318572B9431DC242200E3102000CF3301
:0436B0006300FE3382
:020000040001F9
:02000E009C163E
:080010003F378B07FF1FFF3F84
:00000001FF
